:020000040800F2
:100000000050002061360008D3190008D5190008F7
:10001000D7190008D9190008DB19000800000000F2
:10002000000000000000000000000000DD190008D2
:10003000DF19000800000000E1190008E3190008BA
:10004000A9360008A9360008A9360008A936000814
:10005000A9360008A9360008A9360008A936000804
:10006000A9360008A9360008A9360008A9360008F4
:10007000A9360008A9360008A9360008A9360008E4
:10008000A9360008A9360008A9360008A9360008D4
:10009000A9360008A9360008A9360008A9360008C4
:1000A000A9360008A9360008A9360008A9360008B4
:1000B000A9360008A9360008D5120008A93600089C
:1000C000A9360008A9360008A9360008A936000894
:1000D000A9360008A9360008A9360008A936000884
:1000E000A9360008A9360008A9360008000000005B
:1000F0000000000000000000000000000000000000
:0C01000000000000000000005FF808F1A3
:10010C0070B5860747D0541E002A3ED00346CAB2AB
:10011C0001E0013C39D303F8012B9D07F9D1032CE5
:10012C002CD9CDB205EB05250F2C1A4605EB054550
:10013C0034D9A4F1100C2CF00F0603F1100EB644B8
:10014C004FEA1C1CC2E90055C2E902551032724537
:10015C00F8D10CF1010214F00C0F03EB021204F0B5
:10016C000F0C13D0ACF1040323F00303043313443A
:10017C0042F8045B9342FBD10CF003042CB1C9B2DE
:10018C001C4403F8011BA342FBD170BD644613460B
:10019C00002CF4D1F9E703461446C0E7A446E1E786
:1001AC0070B50F4B0F4DAB42A3EB050607D00024E7
:1001BC00B61055F8043B01349847A642F9D803F021
:1001CC006FFA094D094B5E1BAB424FEAA60606D0EF
:1001DC00002455F8043B01349847A642F9D870BD69
:1001EC002837000828370008283700082C37000863
:1001FC0000F000B870B521F00045B5F1FF4F0A468C
:10020C0003462CD820F00046B6F1FF4F844626D882
:10021C00B1F17E5F35D08C1704F0020444EAD0743F
:10022C0016B33DB3B5F1FF4F33D0B6F1FF4F21D02C
:10023C00761BB6F1F45F4FEAE65028DA002934DA7F
:10024C003C3032DA0020012C40D0022C36D02CB1BC
:10025C00254900F075F9254900F070F970BD194673
:10026C00104600F06DF970BD022C08D0032CF5D1AE
:10027C001F4870BDBCF1000F07DB1E4870BD1B484A
:10028C0070BDBDE8704000F03DB81B4870BD19480A
:10029C00D9E7B6F1FF4F04F1FF341AD0022C1ED867
:1002AC00164B03EB8403D86870BD1146184600F05A
:1002BC0003FB00F03BF900F025F8C4E70A4900F015
:1002CC003FF90146094800F039F970BD00F10040D2
:1002DC0070BD022C05D8094B53F8240070BD0020CA
:1002EC0070BD074870BD00BF2EBDBB33DB0F49404E
:1002FC00DB0F49C0DB0FC93FDB0FC9BFC436000899
:10030C00DB0F493F2DE9F04120F00045B5F1A14F3D
:10031C000446074608D3B5F1FF4F73D8002840F3C5
:10032C0081806F48BDE8F0816E4B9D427DD8B5F160
:10033C00445F6CD34FF0FF382146204600F008FA9A
:10034C000146064600F004FA0546674900F000FA3B
:10035C00664900F0F5F8294600F0FAF9644900F016
:10036C00EFF8294600F0F4F9624900F0E9F8294663
:10037C0000F0EEF9604900F0E3F8294600F0E8F9E6
:10038C005E4900F0DDF8314600F0E2F95C490646C2
:10039C00284600F0DDF95B4900F0D0F8294600F062
:1003AC00D7F9594900F0CAF8294600F0D1F9574954
:1003BC0000F0C4F8294600F0CBF9554900F0BEF81E
:1003CC00294600F0C5F90146304600F0B9F821463F
:1003DC0000F0BEF9B8F1FF3F014646D04D4D05EB9C
:1003EC008803196900F0AAF8214600F0A7F8014625
:1003FC0055F8280000F0A2F8002F93DA00F1004025
:10040C00BDE8F081014600F09BF8BDE8F08142495F
:10041C0000F096F84FF07E5100F056FB002889D082
:10042C0020467FE73D48BDE8F08100F07FF83C4B6B
:10043C0004469D421ED8A3F5D0039D423CD80146EC
:10044C0000F07EF84FF07E5100F078F803464FF044
:10045C00804120461C4600F073F80146204600F00F
:10046C002BFA4FF00008044666E7204600F066F8C9
:10047C00BDE8F0812B4B9D4216D84FF07F5100F018
:10048C005DF803464FF07F5120461C4600F060F9A2
:10049C004FF07E5100F054F80146204600F00CFA63
:1004AC004FF00208044647E701461F4800F004FAE3
:1004BC004FF0030804463FE74FF07E5100F03EF842
:1004CC0003464FF07E5120461C4600F039F8014699
:1004DC00204600F0F1F94FF0010804462CE700BF6C
:1004EC00DB0FC93FFFFFDF3ED769853C59DA4B3D37
:1004FC00356B883D6E2EBA3D2549123EABAAAA3EFD
:10050C0021A215BD6BF16E3D95879D3D388EE33D67
:10051C00CDCC4C3EDC360008CAF24971DB0FC9BFAA
:10052C00FFFF973FFFFF1B40000080BF20F0004003
:10053C00704700BF80F0004002E000BF81F0004136
:10054C0042001FBF5FEA410392EA030F7FEA226C6D
:10055C007FEA236C6AD04FEA1262D2EB1363C1BFFD
:10056C00D218414048404140B8BF5B42192B88BF6C
:10057C00704710F0004F40F4000020F07F4018BF8F
:10058C00404211F0004F41F4000121F07F4118BFAF
:10059C00494292EA030F3FD0A2F1010241FA03FC57
:1005AC0010EB0C00C3F1200301FA03F100F000433F
:1005BC0002D5494260EB4000B0F5000F13D3B0F107
:1005CC00807F06D340084FEA310102F10102FE2A76
:1005DC0051D2B1F1004F40EBC25008BF20F00100E6
:1005EC0040EA03007047490040EB0000013A28BF85
:1005FC00B0F5000FEDD2B0FA80FCACF1080CB2EB08
:10060C000C0200FA0CF0AABF00EBC2505242184385
:10061C00BCBFD0401843704792F0000F81F400012A
:10062C0006BF80F400000132013BB5E74FEA4103FD
:10063C007FEA226C18BF7FEA236C21D092EA030F69
:10064C0004D092F0000F08BF0846704790EA010FE3
:10065C001CBF0020704712F07F4F04D1400028BF10
:10066C0040F00040704712F100723CBF00F50000F2
:10067C00704700F0004343F0FE4040F40000704728
:10068C007FEA226216BF08467FEA236301464202D4
:10069C0006BF5FEA412390EA010F40F480007047E7
:1006AC004FF0000304E000BF10F0004348BF40428D
:1006BC005FEA000C08BF704743F0964301464FF0C9
:1006CC0000001CE050EA010208BF70474FF0000325
:1006DC000AE000BF50EA010208BF704711F0004366
:1006EC0002D5404261EB41015FEA010C02BF844636
:1006FC000146002043F0B64308BFA3F18053A3F595
:10070C000003BCFA8CF2083AA3EBC25310DB01FADB
:10071C0002FC634400FA02FCC2F12002BCF1004F5F
:10072C0020FA02F243EB020008BF20F001007047F0
:10073C0002F1200201FA02FCC2F1200250EA4C0044
:10074C0021FA02F243EB020008BF20EADC7070478A
:10075C004FF0FF0C1CEAD0521EBF1CEAD15392EA98
:10076C000C0F93EA0C0F6FD01A4480EA010C400274
:10077C0018BF5FEA41211ED04FF0006343EA5010CE
:10078C0043EA5111A0FB01310CF00040B1F5000F10
:10079C003EBF490041EAD3715B0040EA010062F1BF
:1007AC007F02FD2A1DD8B3F1004F40EBC25008BFA9
:1007BC0020F00100704790F0000F0CF0004C08BFC7
:1007CC0049024CEA502040EA51207F3AC2BFD2F194
:1007DC00FF0340EAC250704740F400004FF00003A2
:1007EC00013A5DDC12F1190FDCBF00F000407047DC
:1007FC00C2F10002410021FA02F1C2F1200200FA1A
:10080C0002FC5FEA310040F1000053EA4C0308BFE0
:10081C0020EADC70704792F0000F00F0004C02BF31
:10082C00400010F4000F013AF9D040EA0C0093F0AC
:10083C00000F01F0004C02BF490011F4000F013B06
:10084C00F9D041EA0C018FE70CEAD15392EA0C0F74
:10085C0018BF93EA0C0F0AD030F0004C18BF31F0DF
:10086C00004CD8D180EA010000F00040704790F0B5
:10087C00000F17BF90F0004F084691F0000F91F059
:10088C00004F14D092EA0C0F01D142020FD193EA1F
:10089C000C0F03D14B0218BF084608D180EA0100A7
:1008AC0000F0004040F0FE4040F40000704740F083
:1008BC00FE4040F4400070474FF0FF0C1CEAD05251
:1008CC001EBF1CEAD15392EA0C0F93EA0C0F69D0AD
:1008DC00A2EB030280EA010C49024FEA402037D018
:1008EC004FF0805343EA111143EA10130CF000400F
:1008FC008B4238BF5B0042F17D024FF4000C8B42FF
:10090C0024BF5B1A40EA0C00B3EB510F24BFA3EBDE
:10091C00510340EA5C00B3EB910F24BFA3EB9103AE
:10092C0040EA9C00B3EBD10F24BFA3EBD10340EA08
:10093C00DC001B0118BF5FEA1C1CE0D1FD2A3FF64E
:10094C0050AF8B4240EBC25008BF20F00100704703
:10095C000CF0004C4CEA50207F32C2BFD2F1FF03A6
:10096C0040EAC250704740F400004FF00003013AD7
:10097C0037E792F0000F00F0004C02BF400010F47B
:10098C00000F013AF9D040EA0C0093F0000F01F08F
:10099C00004C02BF490011F4000F013BF9D041EAB1
:1009AC000C0195E70CEAD15392EA0C0F08D14202E4
:1009BC007FF47DAF93EA0C0F7FF470AF084676E7B7
:1009CC0093EA0C0F04D14B023FF44CAF08466EE790
:1009DC0030F0004C18BF31F0004CCAD130F000425E
:1009EC007FF45CAF31F000437FF43CAF5FE700BFB6
:1009FC004FF0FF3C06E000BF4FF0010C02E000BFDF
:100A0C004FF0010C4DF804CD4FEA40024FEA410380
:100A1C007FEA226C18BF7FEA236C11D001B052EA36
:100A2C00530C18BF90EA010F58BFB2EB030088BFFC
:100A3C00C81738BF6FEAE17018BF40F0010070476B
:100A4C007FEA226C02D15FEA402C05D17FEA236C4D
:100A5C00E4D15FEA412CE1D05DF8040B704700BF94
:100A6C00844608466146FFE70FB5FFF7C9FF00282B
:100A7C0048BF10F1000F0FBD4DF808EDFFF7F4FF64
:100A8C000CBF012000205DF808FB00BF4DF808EDFD
:100A9C00FFF7EAFF34BF012000205DF808FB00BF20
:100AAC004DF808EDFFF7E0FF94BF012000205DF842
:100ABC0008FB00BF4DF808EDFFF7D2FF94BF0120F3
:100ACC0000205DF808FB00BF4DF808EDFFF7C8FFEC
:100ADC0034BF012000205DF808FB00BF4FEA400244
:100AEC00B2F1FE4F0FD34FF09E03B3EB12620DD950
:100AFC004FEA002343F0004310F0004F23FA02F0BA
:100B0C0018BF404270474FF00000704712F1610F60
:100B1C0001D1420205D110F0004008BF6FF0004037
:100B2C0070474FF00000704710B5054C237833B96F
:100B3C00044B13B10448AFF300800123237010BDA4
:100B4C00D800002000000000AC36000808B5034BAC
:100B5C001BB103490348AFF3008008BD000000003F
:100B6C00DC000020AC36000872B6FEE700B591B090
:100B7C002822002106A8FFF7C3FA00230193029351
:100B8C000393049305930223069301220A921022E5
:100B9C000B920D934FF460130F9306A801F06AFDAE
:100BAC0080B90F23019302210291002303934FF488
:100BBC0080620492059301A801F08EFF20B911B058
:100BCC005DF804FBFFF7D0FFFFF7CEFF08B500F090
:100BDC004FFFFFF7CBFF00F053FA00F09BFAFCE756
:100BEC00024A536803435360704700BF5001002012
:100BFC00034B5A6822F00E025A6000229A72704718
:100C0C005001002010B504460949FFF75DFF48B9B3
:100C1C0008492046FFF73AFF30B92046FFF75EFF40
:100C2C0000B210BD6420FCE76FF06300F9E700BF71
:100C3C000000C8420000C8C200B585B00023009374
:100C4C000193029303934023009301230293022305
:100C5C0003936946024802F00BF805B05DF804FBFB
:100C6C00000C014070B584B00023009301930293F3
:100C7C0003934FF40055009501260196022303932C
:100C8C00054C6946204601F0F3FF324629462046C2
:100C9C0002F003F904B070BD0010014000B583B040
:100CAC00164B9A6942F008029A619A6902F008029E
:100CBC000092009A9A6942F010029A619B6903F0C3
:100CCC0010030193019BFFF7B7FFFFF7CBFF402108
:100CDC000B4802F0DBF870B901230A4A13700A4A78
:100CEC0013700021094A1170094A137353739173DD
:100CFC0003B05DF804FB0023EFE700BF00100240D7
:100D0C00000C014002010020010100200001002024
:100D1C005001002008B5054B1A78B2FA82F252093C
:100D2C004FF40051024802F0B8F808BDB40000209E
:100D3C000010014008B540211A4802F0A7F898B9F4
:100D4C000123194A1373194A12789A420ED1184B7F
:100D5C001B78132B05D80133DBB215490B70142B00
:100D6C000CD0FFF7D7FF08BD0023EAE70F4A13703A
:100D7C000F4B00221A70FFF7CDFFF4E70D4B1B78D9
:100D8C009A42EED00B4B1A70074B5A73002AE8D0DC
:100D9C00094B01221A70044A937B83F0010393736D
:100DAC00DFE700BF000C01405001002002010020D1
:100DBC0000010020010100200401002008B50948B1
:100DCC0000F08AFD084800F087FD084800F084FD1B
:100DDC00074B00221A60074B00221A875A879A8702
:100DEC00DA8708BD780000203C00002000000020BD
:100DFC00F80000205001002008B5054B00221A72A3
:100E0C001A875A879A87DA8700F092FB08BD00BFD1
:100E1C00500100202DE9F04385B001A800F0D2FC70
:100E2C0000286FD15A4C01236372BDF904702782DC
:100E3C00BDF906306382BDF90860A682BDF90A309F
:100E4C00E382BDF90C002083BDF90E306383FFF7FC
:100E5C002BFCDFF84081D8F80C10FFF76FFB054630
:100E6C003046FFF721FC06463846FFF71DFC31469D
:100E7C00FFF7BEF900F100404749FFF71DFD474958
:100E8C00FFF766FCD8F81010FFF75AFB07464FF037
:100E9C0060512846FFF75CFC4149FFF759FC41497A
:100EAC00FFF756FCDFF80091D9F80010FFF748FB6C
:100EBC0006463C493846FFF74BFC05463B49304655
:100ECC00FFF746FC01462846FFF73AFB0546C9F8F2
:100EDC000000E76126626062D8F81410FFF7F4FD99
:100EEC00D8B9D8F8141001F100412846FFF7CEFD0F
:100EFC0098B9284B1B7813B1254B5B7AB3B9FFF724
:100F0C007BFF07E00220FFF76BFE214B00225A7299
:100F1C00FFF772FF05B0BDE8F0830420FFF760FE19
:100F2C001C4B00221A70FFF767FFF3E7184C0123E4
:100F3C0023721F4E7560304600F0D7FCF7681D4BCE
:100F4C00D3F800804FF07C514046FFF701FC064679
:100F5C003946FFF7F5FA054631463846FFF7EEFA03
:100F6C0006462846FFF74EFE05463046FFF74AFE7A
:100F7C0006463846FFF746FEA0874046FFF742FE7E
:100F8C00E087258766873146284600F07FFAC1E75F
:100F9C0050010020B4000020D00F49400000344321
:100FAC000000FA440AD7233CFC000020A4707D3FCB
:100FBC0078000020F8000020F8B500F0EFF90546A5
:100FCC0000F0F6F904462846FFF76EFB2349FFF7BD
:100FDC0073FC2349FFF770FC2249FFF76DFC0546B3
:100FEC002046FFF761FB1D49FFF766FC1C49FFF724
:100FFC0063FC1C49FFF760FC044601462846FFF7DA
:10100C009FFA4FF07C51FFF7A3FB07462146284679
:10101C00FFF794FA144B9D62DC621F635863134B09
:10102C001B781BB10646104B1B7A03B9F8BD0F4D4C
:10103C006B680F4C23606760204600F056FCE2683A
:10104C000C4B1A60AB680C4C23606660204600F0B9
:10105C004CFCE268094B1A60E8E700BF0000504105
:10106C00CDCC4C3D0000F04150010020B4000020DC
:10107C003C0000207800002000000020F800002038
:10108C0010B5FFF70BFEFFF799FE00F079FA044656
:10109C0038BB00F065F948BB00F03EFB58BB1A4B5F
:1010AC0001225A7200F0CEFB174BD8721748184B1E
:1010BC0003603F2343600023836040F2E732C26049
:1010CC000361836101F0E2FF18B9104801F068FF79
:1010DC0018B14020FFF784FD0124FFF78DFE204658
:1010EC0010BD1020FFF77CFD0124D2E72020FFF774
:1010FC0077FD0124D0E70120FFF772FD024B00229F
:10110C005A720124CEE700BF5001002008010020D4
:10111C000008004008B5314B1B7893B12F4B0022CF
:10112C001A702F4B1B7813BBFFF762FDFFF746FEBF
:10113C002C4B5A6A2C4B1A60294B01221A70FFF760
:10114C00E9FD274B9B7823B10023254A9370254A50
:10115C005360234B5B7883B9214B1B7813B1234B22
:10116C001B7883B11E4B1A78204B1A701DE01C4B58
:10117C0000221A70FFF740FEE1E7194B00225A706B
:10118C00FFF71CFEE8E7FFF733FDFFF717FE154BE3
:10119C005A6A154B1A60E5E772B6154A1378013B8B
:1011AC00DBB2137062B6FFF735FE114B1B78002BC8
:1011BC00F2D108E072B60F4A1378013BDBB2137020
:1011CC0062B6FFF7F9FE0B4B1B78002BF2D1044BE8
:1011DC001B7803B108BDFFF70FFEFBE704010020ED
:1011EC00B400002050010020FC000020030100206E
:1011FC00060100200501002008B51E4A13680133C2
:10120C001360FFF797FD1C4A13780133DBB21370A0
:10121C00092B0CD9134600221A70184B1B78DBB221
:10122C00FF2B19D0154A13780133DBB21370144A13
:10123C0013780133DBB21370312B0CD91346002217
:10124C001A70104B1B78DBB2FF2B0CD00D4A1378A5
:10125C000133DBB2137008BD0820FFF7C1FC054B4E
:10126C0001229A72E3E70820FFF7BAFC014B012236
:10127C009A72F0E750010020F500002006010020D2
:10128C00F40000200501002002680E4B9A4200D0A9
:10129C00704700B583B003F50233DA6942F00402FB
:1012AC00DA61DB6903F004030193019B0022022144
:1012BC001E2002F09BF91E2002F0A8F903B05DF885
:1012CC0004FB00BF0008004008B5084B1B681A69F6
:1012DC0012F0010F03D0DA6812F0010F00D108BD33
:1012EC006FF001021A61FFF787FFF8E70801002091
:1012FC0030B58DB004460D462422002103A8FEF71C
:10130C00FFFE00230193029325606360A3604FF6F8
:10131C00FF72E2602361A361032203920493012113
:10132C00059106930F220792089309910A930B9249
:10133C0003A9204601F002FF10B101200DB030BD11
:10134C0000230193029301A9204602F0D3F808B1BF
:10135C000120F3E73C21204602F066F8EEE700009E
:10136C0008B50B490B48FFF7C3FF08B1012008BDB6
:10137C004FF080410848FFF7BBFF38B9054B1A689E
:10138C0000235362044A12685362F0E70120EEE72F
:10139C00002C0140D801002090010020034B1B6859
:1013AC00586A00225A62404200B27047D8010020AD
:1013BC00034B1B68586A00225A6200B2704700BF88
:1013CC009001002000B589B0002304930593069387
:1013DC00079303F1804303F504339A6942F0040246
:1013EC009A619B6903F004030193019B0368164AFD
:1013FC0093421AD0B3F1804F14D103F50433DA6958
:10140C0042F00102DA61DB6903F001030393039BF1
:10141C0003230493012306930323079304A90B4886
:10142C0001F026FC09B05DF804FB094B9A6942F403
:10143C0000629A619B6903F400630293029B4FF470
:10144C0040730493E6E700BF002C01400008014004
:10145C0000100240642803DC10F1640F02DB7047BB
:10146C00642070476FF06300704700000028B8BF1D
:10147C00404200B24FF47A7303FB00F0024BA3FB23
:10148C0000304009704700BF1F85EB5170B50C460A
:10149C00FFF7E0FF06462046FFF7DCFF044601227B
:1014AC000821204801F0F9FC002E22DB1D4D012201
:1014BC001021284601F0F1FC00222021284601F0E1
:1014CC00ECFC002C21DB184D01220221284601F0F6
:1014DC00E4FC00220121284601F0DFFC134B1D68BF
:1014EC003046FFF7C3FF68632046FFF7BFFFA863D2
:1014FC0070BD0C4D00221021284601F0CEFC0122BB
:10150C002021284601F0C9FCDBE7074D002202210F
:10151C00284601F0C2FC01221146284601F0BDFC10
:10152C00DCE700BF00080140000C01402002002055
:10153C0070B5104B1B6800245C639C630E4D2246F7
:10154C001021284601F0A9FC22462021284601F052
:10155C00A4FC0A4E22460221304601F09EFC224693
:10156C000121304601F099FC22460821284601F061
:10157C0094FC70BD2002002000080140000C0140CA
:10158C0070B58EB000240A940B940C940D94304BCF
:10159C009A6942F004029A619A6902F0040201927B
:1015AC00019A9A6942F008029A619B6903F0080358
:1015BC000293029B38230A9301260B9603250D9563
:1015CC000AA9244801F054FB0A950B960D950AA91B
:1015DC00214801F04DFB2148214B03603F23436020
:1015EC0084604FF47A73C3600461846101F07AFD06
:1015FC0018B1012420460EB070BD22460394049409
:10160C00059406940794089409946023039303A902
:10161C00124801F01DFE08B10124EBE7042203A9D6
:10162C000E4801F015FE08B10124E3E721460B48F2
:10163C0001F08CFE08B10124DCE70421074801F01D
:10164C0085FE044608B10124D4E7FFF771FFD1E70A
:10165C000010024000080140000C01402002002054
:10166C000004004000B587B0002302930393049359
:10167C0005930268124B9A4202D007B05DF804FB46
:10168C0003F50333DA6942F00202DA61DA6902F037
:10169C0002020092009A9A6942F004029A619B69D4
:1016AC0003F004030193019BC023029302230393D1
:1016BC000323059302A9034801F0DAFADDE700BF22
:1016CC00000400400008014000B585B002460A2322
:1016DC000293012301930091D021034800F006FEF0
:1016EC0005B05DF804FB00BF6C02002000B587B0AC
:1016FC0002468DF817100A230293012301930DF172
:10170C0017010091D021034800F03EFD07B05DF8B1
:10171C0004FB00BF6C02002008B52648264B036072
:10172C00264B436000238360C3604FF48042026108
:10173C0043618361C361036200F048FC08B101207E
:10174C0008BD1F497520FFF7BFFF80BB1C4B1B78E2
:10175C00682B01D00120F3E701216B20FFF7C6FFB6
:10176C0008B10120ECE700216C20FFF7BFFF08B1A6
:10177C000120E5E707211920FFF7B8FF08B1012088
:10178C00DEE700211A20FFF7B1FF08B10120D7E7EF
:10179C0018211B20FFF7AAFF08B10120D0E7182160
:1017AC001C20FFF7A3FF0028CAD00120C8E70120A6
:1017BC00C6E700BF6C02002000540040801A0600EF
:1017CC006802002010B588B00446052302930E234E
:1017DC00019304AB009301233B22D021184800F065
:1017EC0085FD58BB9DF810209DF8113043EA02236B
:1017FC0023809DF812209DF8133043EA0223638066
:10180C009DF814209DF8153043EA0223A3809DF81F
:10181C0018209DF8193043EA0223E3809DF81A2022
:10182C009DF81B3043EA022323819DF81C209DF870
:10183C001D3043EA0223638108B010BD0120FBE791
:10184C006C020020014B1878704700BF6802002022
:10185C0000B589B00023049305930693079302689F
:10186C001A4B9A4202D009B05DF804FB03F5DE3343
:10187C009A6942F008029A619A6902F00802019290
:10188C00019A9A6942F001029A619A6902F0010286
:10189C000292029ADA6942F40012DA61DB6903F40B
:1018AC0000130393039B0A4A536843F0E06343F02D
:1018BC00020353604FF440730493122305930323E4
:1018CC00079304A9034801F0D3F9CCE70054004076
:1018DC0000000140000C0140002303604360836062
:1018EC00C360C3610362436270472DE9F041044653
:1018FC00C3690362466831460068FEF71FFE054661
:10190C00E061676900213846FFF7B6F8B0B9616A43
:10191C002846FEF715FE6062D4F828804146FFF792
:10192C00D3F808B1C4F82480D4F82C804146606AFE
:10193C00FFF7ACF820B1C4F8248001E00023636207
:10194C0021692846FEF704FF0546616A3846FEF712
:10195C00FFFE01462846FEF7F3FD0546A769A16880
:10196C003046FEF7EBFD01463846FEF7F1FE014628
:10197C002846FEF7E3FD0546E0600021FFF7A4F8DA
:10198C0020B1A16B2846FEF7DBFDE060E568002185
:10199C002846FFF77BF880B9256B2946E068FFF7EE
:1019AC0093F800B1E560656B2946E068FFF76EF8C7
:1019BC0000B1E560A660BDE8F081A16B2846FEF79A
:1019CC00BDFDE060E8E7FEE7FEE7FEE7FEE7FEE7C9
:1019DC0070477047704708B500F05CF808BD000010
:1019EC0082B00E4B9A6942F001029A619A6902F038
:1019FC0001020092009ADA6942F08052DA61DB69E6
:101A0C0003F080530193019B054A536823F0E06374
:101A1C0043F00073536002B0704700BF00100240E7
:101A2C000000014010B504460E4B1A784FF47A733F
:101A3C00B3FBF2F30C4A1068B0FBF3F001F0F4FDC9
:101A4C0068B90F2C01D901200AE0002221464FF081
:101A5C00FF3001F0CBFD054B1C60002000E00120A5
:101A6C0010BD00BFCC000020D4000020D00000200E
:101A7C0008B5074A136843F010031360032001F004
:101A8C00A3FD0F20FFF7CEFFFFF7AAFF002008BD34
:101A9C0000200240034A1168034B1B780B4413606F
:101AAC00704700BFC0020020CC000020014B18681A
:101ABC00704700BFC002002003685A6912F4806F9F
:101ACC0001D1002070476FF480625A6100230363D8
:101ADC00202280F83D2080F83E30026C42F0040257
:101AEC00026480F83C30012070472DE9F041064635
:101AFC000C46174698463BE0FFF7D8FF069BC01AEA
:101B0C00404502D8B8F1000F32D1012D18D03368FE
:101B1C009B6924EA03039BB2B3FA83F35B099F42EC
:101B2C0026D100233363202286F83D2086F83E30F0
:101B3C00326C42F02002326486F83C30012027E0FF
:101B4C0033685B6924EA03039BB2B3FA83F35B0942
:101B5C00E5E733685B6924EA030C1FFA8CFCBCFADA
:101B6C008CFC4FEA5C1C674511D1B8F1FF3FC3D127
:101B7C00C4F30745012DECD033689B6924EA030CB0
:101B8C001FFA8CFCBCFA8CFC4FEA5C1CEBE70020C7
:101B9C00BDE8F0812DE9F84305460E46904699467E
:101BAC0053E01A6842F400721A602B686FF480627A
:101BBC005A6100232B63202285F83D2085F83E30A6
:101BCC002A6C42F004022A6485F83C3001204AE079
:101BDC00FFF76CFFA0EB0900404502D8B8F1000FED
:101BEC0033D1012F17D02B689B6926EA03039BB2D4
:101BFC00003B18BF012343B300232B63202285F83D
:101C0C003D2085F83E302A6C42F020022A6485F88B
:101C1C003C30012027E02B685B6926EA03039BB26A
:101C2C00003B18BF0123E6E72B689C6926EA0404F5
:101C3C00A4B2003C18BF0124A4B12B685A6912F459
:101C4C00806FAED1B8F1FF3FC2D1C6F30747012F69
:101C5C00EAD12B685C6926EA0404A4B2003C18BFE4
:101C6C000124E9E70020BDE8F88370B504460D4671
:101C7C00164623685B6913F0800F21D12046FFF7CD
:101C8C001BFFF8B9B5F1FF3FF3D0FFF70FFF801B37
:101C9C00A84201D8002DECD123685B6913F0800FAA
:101CAC00E7D100232363202284F83D2084F83E30C2
:101CBC00226C42F02002226484F83C30012000E0C7
:101CCC00002070BD0120FCE72DE9F04385B00446EF
:101CDC000D4691461F46DDF830800D9E036819684D
:101CEC0041F4807119600096434600224FF00111B7
:101CFC00FFF7FBFE60B9236805F0FE051D61334656
:101D0C00424626492046FFF745FF68B1012008E00E
:101D1C0023681B6813F4807F02D04FF40073236494
:101D2C00032005B0BDE8F0830023039323685A69B0
:101D3C0003929B690393039B324641462046FFF76F
:101D4C0094FF30B9012F0FD123685FFA89F61E6119
:101D5C00E7E7236C042B01D00120E2E7226813682B
:101D6C0043F400731360F7E723684FEA19221A61F2
:101D7C00324641462046FFF778FF20B923685FFAC8
:101D8C0089F61E61CDE7236C042B01D00120C8E736
:101D9C002268136843F400731360F7E70200010034
:101DAC002DE9F04784B004460D46164699460C9F23
:101DBC00DDF834800268136843F4806313600368B1
:101DCC00196841F480711960CDF800803B460022FF
:101DDC004FF00111FFF789FE70B95FFA85FA23689D
:101DEC0005F0FE051D6143463A4641492046FFF782
:101DFC00D1FE68B1012008E023681B6813F4807FD2
:101E0C0002D04FF400732364032004B0BDE8F087C4
:101E1C000023039323685A6903929B690393039BE2
:101E2C00424639462046FFF720FF80B9B9F1010F31
:101E3C0018D12368F6B21E61424639462046FFF798
:101E4C0014FF68B3236C042B24D00120DDE7236C32
:101E5C00042B01D00120D8E72268136843F40073E7
:101E6C001360F7E72368320A1A6142463946204666
:101E7C00FFF7FBFE18B92368F6B21E61DCE7236C92
:101E8C00042B01D00120C0E72268136843F40073CF
:101E9C001360F7E72268136843F400731360D4E708
:101EAC002268136843F480731360CDF800803B46BE
:101EBC0000224FF001112046FFF717FE68B9226887
:101ECC004AF00103136143463A4609492046FFF79D
:101EDC0061FE002899D0012097E723681B6813F452
:101EEC00807F02D04FF40073236403208DE700BF82
:101EFC000200010070B504460D46164623685B6966
:101F0C0013F0040F21D12046FFF7D6FDF8B9B5F137
:101F1C00FF3FF3D0FFF7CAFD801BA84201D8002D6C
:101F2C00ECD123685B6913F0040FE7D10023236322
:101F3C00202284F83D2084F83E30226C42F02002AE
:101F4C00226484F83C30012000E0002070BD0120A8
:101F5C00FCE770B504460D46164614E06FF010020F
:101F6C005A6100232363202284F83D2084F83E30FC
:101F7C00226C226484F83C30012025E023685B69E4
:101F8C0013F0400F10D02368586910F0400F1AD18D
:101F9C00586910F0100FE1D1FFF788FD801BA842A3
:101FAC00ECD8002DEFD1E9E700232363202284F83D
:101FBC003D2084F83E30226C42F02002226484F8EA
:101FCC003C30012000E0002070BD0000002800F033
:101FDC00CC8070B5044690F83D30002B77D024238C
:101FEC0084F83D302268136823F0010313602268E3
:101FFC00136843F4004313602268136823F400430E
:10200C00136000F025FE62685A4B9A4264D85A4B12
:10201C0098428CBF00230123002B40F0A880574925
:10202C00A1FB00318B0C25686A6822F03F0242EA62
:10203C0091426A6021680A6A22F03F0266684D4D3F
:10204C00AE424FD8013313430B622168CA6922F4A4
:10205C004F4222F0FF026568464B9D424CD8431E0E
:10206C006D00B3FBF5F3013340F6FC70034278D0FE
:10207C00C3F30B031A43CA6121680B6823F0C00336
:10208C00E269206A024313430B6021688B6823F4D6
:10209C00034323F0FF032269E068024313438B6080
:1020AC002168CB6823F0FF036269A06902431343E4
:1020BC00CB602268136843F0010313600020206496
:1020CC00202384F83D30206384F83E0070BD80F8F6
:1020DC003C30FFF7BDFB82E7294B98428CBF0023B5
:1020EC00012399E74FF4967505FB03F3254DA5FBEA
:1020FC0003539B090133A6E7A668BEB9431E05EB43
:10210C00450CB3FBFCF30133C3F30B03B3FA83F3BA
:10211C005B0943BBC6B9431E05EB4505B3FBF5F3A1
:10212C000133C3F30B0343F40043A3E7431E05EB56
:10213C00850C0CEB8C0CB3FBFCF30133C3F30B03DE
:10214C00B3FA83F35B09E4E7431E05EB850505EB66
:10215C008505B3FBF5F30133C3F30B0343F44043A1
:10216C0088E7042386E7012384E7012070470120D8
:10217C00ACE700BFA08601007F841E0083DE1B43FA
:10218C00FF083D00D34D62102DE9F04383B00446A7
:10219C000F46904699460C9EFFF788FC054694F82E
:1021AC003D00C0B2202803D0022003B0BDE8F0836C
:1021BC000095192301224B492046FFF796FC002875
:1021CC0040F0898094F83C30012B00F0868001238C
:1021DC0084F83C3023681A6812F0010F03D11A6896
:1021EC0042F001021A602268136823F40063136042
:1021FC00212384F83D30402384F83E3000232364AF
:10220C000A9B6362BDF82C306385638D2385364B46
:10221C00E362019500964B46424639462046FFF74D
:10222C0053FD00285BD1238D002B35D02A46314637
:10223C002046FFF71AFD20BB626A236812781A61E8
:10224C00626A531C6362218D013989B22185638DC9
:10225C009BB2013B9BB263852368586910F0040F55
:10226C00E1D00029DFD052781A61636A01336362CE
:10227C00238D013B2385638D9BB2013B9BB2638510
:10228C00D1E7236C042B01D001208EE72268136860
:10229C0043F400731360F7E72A4631462046FFF7F4
:1022AC0029FE50B1236C042B01D001207DE722685C
:1022BC00136843F400731360F7E72268136843F460
:1022CC0000731360202384F83D30002384F83E30E3
:1022DC0084F83C3069E7022067E7022065E70120BB
:1022EC0063E700BF020010000000FFFF2DE9F04380
:1022FC0089B004460F4690469946129E00230793D8
:10230C00FFF7D4FB054694F83D00C0B2202804D05A
:10231C000227384609B0BDE8F08300951923012245
:10232C0081492046FFF7E1FB002840F07C8194F8BE
:10233C003C30012B00F07981012384F83C30236878
:10234C001A6812F0010F03D11A6842F001021A60E8
:10235C002268136823F400631360222384F83D3051
:10236C00402384F83E3000232364109B6362BDF845
:10237C0044306385638D23856C4BE3620195009635
:10238C004B46424639462046FFF70AFD07460028D1
:10239C0040F04D81238D5BB9039323685A690392F6
:1023AC009A690392039A1A6842F400721A60F2E076
:1023BC00012B0FD0022B21D02268136843F48063C9
:1023CC0013600023069323685A6906929B6906934F
:1023DC00069BE0E02268136823F48063136072B6F6
:1023EC000023049323685A6904929A690492049A0C
:1023FC001A6842F400721A6062B6CCE02268136864
:10240C0043F40063136072B60023059323685A6982
:10241C0005929A690592059A1A6822F480621A60EC
:10242C0062B6B8E02A4631462046FFF792FD0028F6
:10243C0040F0FF8023681A69636A1A70636A01337B
:10244C006362238D013B2385638D9BB2013B9BB261
:10245C006385A0E000953346002235492046FFF7FE
:10246C0044FB002840F0E9802268136823F4806361
:10247C00136072B623681A69636A1A70636A01334F
:10248C006362238D013B2385638D9BB2013B9BB221
:10249C006385284B1B68DB08274AA2FB03231B0A16
:1024AC0003EB8303C3EBC3030793079B013B079326
:1024BC00079B002B28D023685A6912F0040FF4D024
:1024CC001A6842F400721A6023681A69636A1A70F7
:1024DC00636A01336362238D013B2385638D9BB259
:1024EC00013B9BB2638562B623681A69636A1A70F2
:1024FC00636A01336362238D013B2385638D9BB239
:10250C00013B9BB2638546E02363202284F83D2087
:10251C0084F83E30226C42F02002226462B684F8C9
:10252C003C300127F5E600BF020010000000FFFF61
:10253C0004000100D400002089B5F8142A46314665
:10254C002046FFF706FD002879D123681A69636AD3
:10255C001A70636A01336362228D013A92B222854A
:10256C00638D9BB2013B9BB263852368596911F063
:10257C00040F10D0032A48D023681A69636A1A70B2
:10258C00636A01336362238D013B2385638D9BB2A8
:10259C00013B9BB26385238D002B3BD0032BCDD805
:1025AC00012B3FF43FAF022B7FF454AF0095334621
:1025BC00002224492046FFF798FA00283BD172B636
:1025CC002268136843F40073136023681A69636A02
:1025DC001A70636A01336362238D013B2385638D1B
:1025EC009BB2013B9BB2638562B623681A69636A2E
:1025FC001A70636A01336362238D013B2385638DFB
:10260C009BB2013B9BB26385C5E71A6822F48062DA
:10261C001A60B1E7202384F83D30002384F83E3063
:10262C0084F83C3075E6022773E6022771E6012731
:10263C006FE601276DE601276BE6012769E60127A6
:10264C0067E600BF0400010082B0084B1B68084A13
:10265C00A2FB03235B0A00FB03F3019300BF019B66
:10266C005A1E0192002BF9D102B07047D400002001
:10267C00D34D6210002800F0F18170B582B0044691
:10268C00036813F0010F2CD0994B5B6803F00C031B
:10269C00042B1DD0964B5B6803F00C03082B12D057
:1026AC006368B3F5803F41D0002B55D103F18043D3
:1026BC0003F504331A6822F480321A601A6822F483
:1026CC0080221A6037E08A4B5B6813F4803FE7D0B6
:1026DC00874B1B6813F4003F03D06368002B00F09A
:1026EC00BF81236813F0020F75D0814B5B6813F028
:1026FC000C0F5FD07E4B5B6803F00C03082B54D09F
:10270C002369002B00F08A807A4B01221A60FFF7B4
:10271C00CDF90546764B1B6813F0020F75D1FFF708
:10272C00C5F9401B0228F5D903209EE1704A1368B5
:10273C0043F480331360636843B3FFF7B7F905467E
:10274C006B4B1B6813F4003FCBD1FFF7AFF9401B69
:10275C006428F5D9032088E1B3F5A02F09D0644B88
:10276C001A6822F480321A601A6822F480221A60E5
:10277C00E1E703F18043A3F53C331A6842F480226D
:10278C001A601A6842F480321A60D4E7FFF78EF9A7
:10279C000546574B1B6813F4003FA2D0FFF786F990
:1027AC00401B6428F5D903205FE1514B5B6813F49F
:1027BC00803FA5D14E4B1B6813F0020F03D0236949
:1027CC00012B40F04F814A4A136823F0F8036169EA
:1027DC0043EAC1031360236813F0080F33D0A369D5
:1027EC00002B5CD0434B0122C3F88024FFF75EF929
:1027FC0005463F4B5B6A13F0020F21D1FFF756F9E8
:10280C00401B0228F5D903202FE1394A136823F025
:10281C00F803616943EAC1031360DCE7354B00221E
:10282C001A60FFF743F90546314B1B6813F0020F92
:10283C00D1D0FFF73BF9401B0228F5D9032014E156
:10284C000120FFF701FF236813F0040F00F09680BE
:10285C00274BDB6913F0805F34D1254BDA6942F0EA
:10286C008052DA61DB6903F080530193019B0125EF
:10287C00214B1B6813F4807F26D0E368012B3DD0DD
:10288C00002B53D103F1804303F504331A6A22F071
:10289C0001021A621A6A22F004021A6233E0154B22
:1028AC000022C3F88024FFF701F90546104B5B6A40
:1028BC0013F0020FC7D0FFF7F9F8401B0228F5D927
:1028CC000320D2E00025D3E70B4A136843F480734E
:1028DC001360FFF7EBF80646074B1B6813F4807F79
:1028EC00CBD1FFF7E3F8801B6428F5D90320BCE0BB
:1028FC000010024000004242007000405F4A136A20
:10290C0043F001031362E36833B3FFF7CFF80646D5
:10291C005A4B1B6A13F0020F2FD1FFF7C7F8801B1D
:10292C0041F288339842F3D903209EE0052B09D05D
:10293C00524B1A6A22F001021A621A6A22F004023D
:10294C001A62E0E74D4B1A6A42F004021A621A6AE4
:10295C0042F001021A62D6E7FFF7A8F80646474B89
:10296C001B6A13F0020F08D0FFF7A0F8801B41F28E
:10297C0088339842F3D9032077E0E5B9E369002B5B
:10298C0072D03E4A526802F00C02082A56D0022B32
:10299C0017D03B4B00221A66FFF788F80446374BDA
:1029AC001B6813F0007F47D0FFF780F8001B02284C
:1029BC00F5D9032059E0314AD36923F08053D36110
:1029CC00DCE72F4B00221A66FFF770F805462B4BFD
:1029DC001B6813F0007F06D0FFF768F8401B022835
:1029EC00F5D9032041E0236AB3F5803F1AD023497F
:1029FC004B6823F47413226A606A024313434B60DE
:102A0C001F4B01221A66FFF751F804461B4B1B683B
:102A1C0013F0007F0ED1FFF749F8001B0228F5D9FF
:102A2C00032022E0154A536823F40033A1680B43BA
:102A3C005360DCE7002018E0002016E0012B16D0D4
:102A4C000E4B5B6803F48031226A914211D103F47E
:102A5C007013626A93420ED1002006E00120704789
:102A6C00012002E0012000E0002002B070BD012036
:102A7C00FBE70120F9E70120F7E700BF0010024057
:102A8C00000042420F4B5B6803F00C02082A01D095
:102A9C000D487047C3F383420C49885C13F4803FA4
:102AAC000BD0084B5B68C3F34043094AD35C064A1E
:102ABC0002FB00F0B0FBF3F07047064B03FB00F099
:102ACC00704700BF0010024000127A000037000867
:102ADC00FC36000800093D00002800F0A08070B50D
:102AEC000D460446524B1B6803F007038B420BD276
:102AFC004F4A136823F007030B431360136803F06A
:102B0C0007038B4240F08D80236813F0020F17D01F
:102B1C0013F0040F04D0474A536843F4E063536046
:102B2C00236813F0080F04D0424A536843F46053EF
:102B3C005360404A536823F0F003A1680B43536081
:102B4C00236813F0010F31D06368012B20D0022BC6
:102B5C0025D0384A126812F0020F64D035494A6801
:102B6C0022F0030213434B60FEF7A0FF0646314BE5
:102B7C005B6803F00C036268B3EB820F16D0FEF7B0
:102B8C0095FF801B41F288339842F0D9032045E031
:102B9C00284A126812F4003FE0D101203EE0254A99
:102BAC00126812F0007FD9D1012037E0204B1B684E
:102BBC0003F00703AB420AD91D4A136823F007033D
:102BCC002B431360136803F00703AB422DD123682A
:102BDC0013F0040F06D0174A536823F4E063E1683E
:102BEC000B435360236813F0080F07D0114A536846
:102BFC0023F46053216943EAC1035360FFF742FF9A
:102C0C000C4B5B68C3F303130B4AD35CD8400B4BE0
:102C1C0018600B4B1868FEF705FF002070BD0120F3
:102C2C0070470120FAE70120F8E70120F6E700BF22
:102C3C00002002400010024018370008D400002089
:102C4C00D0000020014B1868704700BFD400002052
:102C5C0008B5FFF7F7FF044B5B68C3F30223034A85
:102C6C00D35CD84008BD00BF0010024010370008EC
:102C7C0070B582B00024A446A1E07E4DAB4214D0C6
:102C8C000CD8A5F58015AB420FD005F57025AB42DD
:102C9C000BD0A5F58015AB4210D106E0764DAB42BA
:102CAC0003D005F58035AB4208D18B68002B50D092
:102CBC00012B49D04261082400E0CC68BEF1FF0F23
:102CCC0049D806464FEA8C0233680F25954023EA13
:102CDC00050304FA02F2134333604B6813F0805F70
:102CEC006BD0664B9A6942F001029A619B6903F0C2
:102CFC0001030193019B4FEA9C02951C604B53F816
:102D0C0025600CF00305AD000F23AB4026EA03064B
:102D1C005C4B984226D003F58063984200F08C807F
:102D2C0003F58063984200F0898003F58063984234
:102D3C0016D0042317E0CC680434BFE7CC68083401
:102D4C00BCE7CC680C34B9E702610824B6E7002470
:102D5C00B4E70424B2E7061DACF108029200B3E715
:102D6C00032300E00023AB4033430232444D45F8CB
:102D7C0022304B6813F4801F62D0434A936843EAB5
:102D8C000E0393604B6813F4001F5FD03E4AD36868
:102D9C0043EA0E03D3604B6813F4003F5CD03A4A0D
:102DAC00536843EA0E0353604B6813F4803F59D0C9
:102DBC00354A136843EA0E0313600CF1010C0B68DF
:102DCC0033FA0CF254D0012202FA0CF203EA020E8E
:102DDC0032EA0303F1D14B68122B3FF64EAF122BA4
:102DEC003FF66CAF01A555F823F000BFB72C0008D7
:102DFC00C72C0008492D00085B2D0008C92C0008C1
:102E0C00C92C0008C92C0008C92C0008C92C0008C2
:102E1C00C92C0008C92C0008C92C0008C92C0008B2
:102E2C00C92C0008C92C0008C92C0008C92C0008A2
:102E3C00432D00084F2D0008012394E7022392E74D
:102E4C00114A936823EA0E0393609BE70E4AD368FA
:102E5C0023EA0E03D3609EE70B4A536823EA0E0362
:102E6C005360A1E7084A136823EA0E031360A4E732
:102E7C0002B070BD000022100000311000100240A2
:102E8C000000014000080140000401408368194221
:102E9C0001D001207047002070470AB101617047D2
:102EAC00090401617047000030B4026A036A23F020
:102EBC00010303624568836923F073030C681C43A8
:102ECC0022F002028B6813430B4A904206D04560F5
:102EDC0084614A684263036230BC704723F0080384
:102EEC00CA681A4322F0040325F440754A692A4340
:102EFC008D691543EBE700BF002C014030B4036A29
:102F0C00026A22F4807202624468C26922F073027F
:102F1C000D68154323F400738A6843EA02230D4AB3
:102F2C00904206D04460C5614A68C263036230BCFB
:102F3C00704723F40063CA6843EA022323F48063D6
:102F4C0024F440544A6944EA02148A6944EA02149B
:102F5C00E8E700BF002C014030B4036A026A22F497
:102F6C00805202624468C26922F4E6420D6842EA69
:102F7C00052223F400538D6843EA0533074DA8421C
:102F8C0006D04460C2614A680264036230BC704778
:102F9C0024F480444D6944EA8514F2E7002C014086
:102FAC0090F83D30DBB2012B27D1022380F83D3065
:102FBC000268D36843F00103D3600368114A93425B
:102FCC0010D0B3F1804F0DD0A2F59432934209D0BA
:102FDC0002F58062934205D01A6842F001021A6031
:102FEC00002070479A6802F00702062A07D01A6878
:102FFC0042F001021A600020704701207047002047
:10300C00704700BF002C014003681F4A90420AD051
:10301C00B0F1804F07D0A2F59432904203D002F564
:10302C008062904203D123F070034A681343164A1E
:10303C0090420AD0B0F1804F07D0A2F59432904262
:10304C0003D002F58062904203D123F44073CA6826
:10305C00134323F080034A69134303608B68C362F4
:10306C000B688362084B98420AD0012343610369C1
:10307C0013F0010F03D0036923F0010303617047C0
:10308C000B690363F1E700BF002C014040B310B59E
:10309C00044690F83D30F3B1022384F83D302146CC
:1030AC0051F8040BFFF7B0FF012384F8463084F885
:1030BC003E3084F83F3084F8403084F8413084F856
:1030CC00423084F8433084F8443084F8453084F836
:1030DC003D30002010BD80F83C30FEF7D5F8DBE722
:1030EC000120704740B310B5044690F83D30F3B161
:1030FC00022384F83D30214651F8040BFFF784FF7E
:10310C00012384F8463084F83E3084F83F3084F84C
:10311C00403084F8413084F8423084F8433084F8ED
:10312C00443084F8453084F83D30002010BD80F8E0
:10313C003C30FEF797FADBE701207047002856D0A9
:10314C0070B50D46044690F83D30002B4AD0022352
:10315C0084F83D302268936823F4804323F00703FE
:10316C009360214651F8040BFFF74EFF21688B68E2
:10317C008A690E6A2868184322F4407222F003020E
:10318C00AB68D5F818C043EA0C23134323F47C43F3
:10319C0023F0FC03EA68D5F81CC042EA0C221A435F
:1031AC002B6A1B03D5F810C043EA0C13134326F00B
:1031BC0022066A686D6942EA05123243886021680A
:1031CC008B6123681A62012384F8463084F83E3000
:1031DC0084F83F3084F8423084F8433084F83D3032
:1031EC00002070BD80F83C30FEF7ECF8AFE7012012
:1031FC007047000030B4036A026A22F010020262C7
:10320C004468826922F4E6420D6842EA052223F002
:10321C0020038D6843EA05130C4DA84206D0446088
:10322C0082614A688263036230BC704723F080037A
:10323C00CD6843EA051323F0400324F440644D6940
:10324C0044EA85048D6944EA8504E8E7002C0140D2
:10325C0038B590F83C30012B66D004460D4601235E
:10326C0080F83C300C2A5AD8DFE802F0075959593B
:10327C001B5959593059595944000068FFF714FE2D
:10328C002268936943F0080393612268936923F0E1
:10329C00040393612268936929690B4393610020AD
:1032AC003EE00068FFF7A6FF2268936943F40063D1
:1032BC0093612268936923F4806393612268936914
:1032CC00296943EA01239361002029E00068FFF794
:1032DC0015FE2268D36943F00803D3612268D369D1
:1032EC0023F00403D3612268D36929690B43D361AA
:1032FC00002015E00068FFF72FFE2268D36943F425
:10330C000063D3612268D36923F48063D36122689C
:10331C00D369296943EA0123D361002000E001202D
:10332C00002384F83C3038BD0220FCE701F01F017B
:10333C004FF0010C0CFA01FC036A23EA0C03036244
:10334C00036A8A40134303627047000010B50446B9
:10335C00084651BB94F83E30DBB2013B18BF012349
:10336C00002B5BD1002839D1022384F83E30012296
:10337C0001462068FFF7DAFF23682A4A93423DD0C2
:10338C002368284A93423ED0B3F1804F3BD0A2F53C
:10339C009432934237D002F58062934233D01A684C
:1033AC0042F001021A60002039E0042908D00829F3
:1033BC000DD094F84130DBB2013B18BF0123CFE7AD
:1033CC0094F83F30DBB2013B18BF0123C8E794F8F7
:1033DC004030DBB2013B18BF0123C1E7042805D004
:1033EC00082807D0022384F84130C0E7022384F870
:1033FC003F30BCE7022384F84030B8E75A6C42F403
:10340C0000425A64BCE79A6802F00702062A07D009
:10341C001A6842F001021A60002000E0012010BD81
:10342C000020FCE7002C014038B5044690F83E0023
:10343C00C0B294F83F3094F84220D2B294F843C012
:10344C000D46B1B9012849D1012A48D1022384F88B
:10345C003E3084F842307DB3042D39D00122002156
:10346C002068FFF763FF012204212068FFF75EFF4D
:10347C0027E0DBB25FFA8CFC042912D0012833D18F
:10348C00012B2CD1012A31D1BCF1010F30D10223F7
:10349C0084F83E3084F83F3084F8423084F843306E
:1034AC00D9E7012B1CD1BCF1010F1BD1022384F8ED
:1034BC003F3084F84330CEE7012200212068FFF72B
:1034CC0035FF2268136843F001031360002006E007
:1034DC00012204212068FFF729FFF2E7012038BD03
:1034EC000120FCE71846FAE70120F8E71846F6E752
:1034FC001046F4E790F83C20012A2CD010B4034677
:10350C00012280F83C20022280F83D20026850689D
:10351C00946820F0700C086840EA0C0050601A683F
:10352C000E4882420AD0B2F1804F07D0A0F59430F9
:10353C00824203D000F58060824204D124F08004E2
:10354C00496821439160012283F83D20002083F8D3
:10355C003C0010BC70470220704700BF002C01409B
:10356C00002808DB0901C9B200F1604000F5614098
:10357C0080F80013704700F00F000901C9B2014B2D
:10358C001954704714ED00E000B500F00700C0F1CD
:10359C00070CBCF1040F28BF4FF0040C031D062BC5
:1035AC000FD9C31E4FF0FF3E0EFA0CF021EA0001BA
:1035BC0099400EFA03FE22EA0E0241EA02005DF87F
:1035CC0004FB0023EEE70000074AD36823F4E06312
:1035DC001B041B0C000200F4E060034343F0BF63C8
:1035EC0043F40033D360704700ED00E010B504469F
:1035FC00054BD868C0F30220FFF7C6FF01462046F2
:10360C00FFF7AEFF10BD00BF00ED00E0002807DBA8
:10361C0000F01F02400901239340024A42F8203077
:10362C00704700BF00E100E00138B0F1807F0BD2A1
:10363C004FF0E0235861054AF02182F82310002056
:10364C00986107221A6170470120704700ED00E075
:10365C0070470000FFF7FCFF0B480C490C4A002395
:10366C0002E0D458C4500433C4188C42F9D3094A2C
:10367C00094C002301E013600432A242FBD3FCF797
:10368C008FFDFDF7A3FA704700000020D800002042
:10369C0030370008D8000020C4020020FEE70000EC
:1036AC00F8B500BFF8BC08BC9E467047F8B500BF23
:0836BC00F8BC08BC9E467047F3
:1036C400DB0F49BFE4CB1640E4CB16C000000080FA
:1036D400DB0F4940DB0F49C03863ED3EDA0F493F49
:1036E4005E987B3FDA0FC93F6937AC3168212233DA
:1036F400B40F14336821A23301020000020304054D
:10370400060708090A0B0C0D0E0F1010000000002C
:103714000102030400000000000000000102030491
:043724000607080983
:04372800590B000831
:04372C00350B000851
:103730000000000000000000000000000000000089
:103740000000000000000000000000000000000079
:1037500000000000000000000000A0410000A0C127
:1037600000004842000048C20000000000000000C5
:10377000000000000000000000000000CDCC4C3E26
:103780000000000000000000000000000000000039
:103790000000000000001643000016C30000A04017
:1037A0000000A0C0000000000000000000000000B9
:1037B0000000000000000000000030410000803EDA
:1037C00000000041000000000000000000000000B8
:1037D00000001644000016C40000C8420000C8C221
:1037E00000004040000000000000803F000000009A
:1037F0000000A0419A9919400000404101000000DA
:083800001000000000127A0024
:040000050800366158
:00000001FF
