:020000040800F2
:1000000000500020A15A00081732000819320008D9
:100010001B3200081D3200081F32000800000000DB
:100020000000000000000000000000002132000875
:1000300023320008000000002532000827320008A3
:10004000E95A0008E95A0008E95A0008E95A000884
:10005000E95A0008E95A0008E95A0008E95A000874
:10006000E95A0008E95A0008E95A0008E95A000864
:10007000E95A0008E95A0008E95A0008E95A000854
:10008000E95A0008E95A0008E95A0008E95A000844
:10009000E95A0008E95A0008E95A0008E95A000834
:1000A000E95A0008E95A0008E95A0008E95A000824
:1000B000E95A0008E95A000805210008E95A000831
:1000C000E95A0008E95A0008E95A0008E95A000804
:1000D000E95A0008E95A0008E95A0008E95A0008F4
:1000E000E95A0008E95A0008E95A0008000000002F
:1000F0000000000000000000000000000000000000
:0C01000000000000000000005FF808F1A3
:10010C0008B410B5002A04469DB034DB4FF4027CD1
:10011C004FF00003ADF814C01B934FF6FF7C029117
:10012C00069120AB15D0013A0492079202A91F9AAE
:10013C000193ADF816C000F069FB421C01DA8B2369
:10014C0023600022029B1A701DB0BDE8104001B064
:10015C0070470492079202A91F9A0193ADF816C03A
:10016C0000F054FB431C01DA8B2323601DB0BDE867
:10017C00104001B070478B234FF0FF302360F5E740
:10018C000CB410B5204B00291C689CB036DB4FF02A
:10019C0000034FF402721B934FF6FF7C0290069003
:1001AC00ADF814201FAB16D001391E9A049107919B
:1001BC00204602A90193ADF816C000F027FB421CA3
:1001CC0001DA8B2323600022029B1A701CB0BDE85D
:1001DC00104002B070470491079120461E9A02A964
:1001EC000193ADF816C000F011FB431C01DA8B2310
:1001FC0023601CB0BDE8104002B070478B234FF059
:10020C00FF302360F5E700BF0000002070B58607C3
:10021C0047D0541E002A3ED00346CAB201E0013C2E
:10022C0039D303F8012B9D07F9D1032C2CD9CDB26E
:10023C0005EB05250F2C1A4605EB054534D9A4F121
:10024C00100C2CF00F0603F1100EB6444FEA1C1CD8
:10025C00C2E90055C2E9025510327245F8D10CF1D1
:10026C00010214F00C0F03EB021204F00F0C13D06C
:10027C00ACF1040323F003030433134442F8045B8E
:10028C009342FBD10CF003042CB1C9B21C4403F80B
:10029C00011BA342FBD170BD64461346002CF4D164
:1002AC00F9E703461446C0E7A446E1E7014B18689A
:1002BC00704700BF0000002070B50F4B0F4DAB42D4
:1002CC00A3EB050607D00024B61055F8043B013407
:1002DC009847A642F9D805F003FC094D094B5E1B63
:1002EC00AB424FEAA60606D0002455F8043B013475
:1002FC009847A642F9D870BDEC5D0008EC5D00088B
:10030C00EC5D0008F05D0008704700BF704700BF4F
:10031C00704700BF704700BF704700BF704700BFF9
:10032C000120704701207047704700BF704700BF25
:10033C00844641EA000313F0030349D1403A23D326
:10034C000B6803604B6843608B688360CB68C36049
:10035C000B6903614B6943618B698361CB69C36131
:10036C000B6A03624B6A43628B6A8362CB6AC36219
:10037C000B6B03634B6B43638B6B8363CB6BC36301
:10038C0040304031403ADBD230320BD30B68036043
:10039C004B6843608B688360CB68C360103010314E
:1003AC00103AF3D20C3205D351F8043B40F8043B1D
:1003BC00043AF9D2043208D0D2071CBF11F8013B21
:1003CC0000F8013B01D30B8803806046704700BFE7
:1003DC00082A13D38B07B1D010F00303AED0C3F1AE
:1003EC000403D21ADB071CBF11F8013B00F8013BD8
:1003FC00A4D331F8023B20F8023B9FE7043AD9D34F
:10040C00013A11F8013B00F8013BF9D20B7803706B
:10041C004B7843708B78837060467047002950D0BE
:10042C0038B551F8043C0C1F002BB8BFE418054636
:10043C0000F0F8F8274A13682BB1A3420CD92168B5
:10044C00601883422CD0284663601460BDE83840A5
:10045C0000F0EEB8A3420FD81A465B68002BF9D116
:10046C0011685018844217D02CD36360546028460E
:10047C00BDE8384000F0DCB811685018A04214D028
:10048C0020D8216860188342EFD118685B68084453
:10049C00C4E900035460EAE723680B441360E6E701
:1004AC0018685B6808442060CDE720680144501848
:1004BC0083421160DBD1D3E900040144C2E900148A
:1004CC00D5E770470C2328462B60BDE8384000F078
:1004DC00AFB800BFB002002070B5114E05463368AE
:1004EC000C46BBB12146284600F0FAFC431C0146E1
:1004FC000CD0C41C24F00304A04205D02846611A79
:10050C0000F0EEFC013001D0204670BD4FF0FF34FE
:10051C00204670BD194600F0E3FC3060E2E700BFF6
:10052C00AC0200202DE9F843CD1C25F0030508355D
:10053C000C2D38BF0C25002D064618DBA94216D809
:10054C00DFF8DC8000F06EF8D8F80420A2B1144675
:10055C0003E0636822467BB11C4623685B1BF8D41E
:10056C000B2B1FD89442636854D053600CE00C23BF
:10057C0033600020BDE8F88329463046FFF7ACFF16
:10058C00431C044619D00560304600F051F804F1C4
:10059C000B00231D20F00700C21A1CBF1B1AA3500E
:1005AC00BDE8F88361199442256014BF5160C8F806
:1005BC000410635163684B60E6E7D8F804701FB30E
:1005CC003C467F68002FFBD123683946304604EB4C
:1005DC00030900F085FC814516D123683046ED1ADD
:1005EC002946FFF779FF01300ED02368D8F8042094
:1005FC002B442360536883B1A34203D01A465B6833
:10060C009C42FBD10023B0E70C233046336000F052
:10061C000FF8AEE7C8F80430B6E7C8F80470B3E7D3
:10062C00AC0200200148FFF779BE00BF9C020020FD
:10063C000148FFF77BBE00BF9C0200202DE9F0476C
:10064C001D468F680C46AF4216460B6836D8B1F97A
:10065C000CC01CF4906F0ED13D46184631462A460C
:10066C0000F0C0FB0020A368DF1B2368A7602B44AD
:10067C002360BDE8F0874A69096902EB42025F1A00
:10068C0002EBD2726B1C52103B44934292BF9146C8
:10069C0099461A461CF4806F804611D01146FFF71C
:1006AC0041FF824600B33A462169FFF741FEA38918
:1006BC0023F4906343F08003A38105E02F46CCE73D
:1006CC0000F06CFC824658B10AEB0703A9EB070754
:1006DC00A760C4F810A02F46C4F814902360BCE7A0
:1006EC0040462169FFF79AFE0C22A3894FF0FF3098
:1006FC0043F04003C8F80020A381BAE72DE9F04F7E
:10070C00936883B0924617680190002B76D04FF017
:10071C00000B0C465D468B680A6848E0B4F90CC0C7
:10072C001CF4906F2FD0D4E90403A2EB000803EB68
:10073C00430202EBD27208F101015210294491429A
:10074C0092BF914689460A461CF4806F39D01146F7
:10075C000198FFF7E7FE064600283DD04246216986
:10076C00FFF7E6FDA28922F4906242F08002A2819A
:10077C0006EB0800A9EB08022661A8462E46A260EB
:10078C002060C4F814903246594600F02BFBDAF87E
:10079C000810A3682268A3EB08033244491BA3602A
:1007AC002260CAF8081049B3D7E900B50837984653
:1007BC001046002DF8D09D421E46AFD2A8462E46BC
:1007CC00E1E70146019800F0E9FB06460028CFD18D
:1007DC0001982169FFF722FE0C21A389019D43F0AA
:1007EC00400329600022A3814FF0FF300023CAF898
:1007FC000820CAF8043003B0BDE8F08F00200023B5
:10080C00CAF8043003B0BDE8F08F00BF2DE9F04FFB
:10081C001C468B8989461D06824693469DB003D59E
:10082C000B69002B00F0EE80002343F220020993A9
:10083C009BF8003001277C4E0394ADF82920002B47
:10084C0071D05D4603E015F8013F002B73D0252BCA
:10085C00F9D1B5EB0B0471D12A78002A63D00023AF
:10086C004FF0FF320135CDE90523049307938DF842
:10087C0053301A9306E02546049B801B07FA00F0C0
:10088C00034304932C46052214F8011B304600F058
:10089C0039FBA3460028EED1049BD90644BF202285
:1008AC008DF853201A0748BF2B22297848BF8DF8A2
:1008BC0053202A294FD1039A11680432002903923C
:1008CC007BDB079169782E295BD0584C032220469C
:1008DC0000F018FB38B14022049B001B82401343EC
:1008EC000BF1010B04931BF8011B062250488DF8E9
:1008FC00281000F007FB002865D04E4B002B55D07C
:10090C0003A900914A4650464B4B04A9AFF3008013
:10091C008046B8F1FF3F06D0099B434409939BF8EE
:10092C000030002B8DD1B9F80C305B0679D40998C6
:10093C001DB0BDE8F08FB5EB0B04F4D023465A463E
:10094C0049465046FFF77AFE0130ECD0099B2A78D5
:10095C002344099381E7A1F13002092A88BFAB46F1
:10096C00B1D8079B00E00134217803EB830302EB41
:10097C004303A1F13002092AF5D92E29A346079386
:10098C00A3D19BF801102A2927D1039B0BF102005C
:10099C001A680433002A0393B8BF4FF0FF339BF857
:1009AC00021005928346B8BF05938EE7039B07336D
:1009BC0023F0070308330393AEE7494243F00203E5
:1009CC00079104937EE703A900914A4650461A4BBF
:1009DC0004A900F0C5F880469BE70023A1F1300282
:1009EC00092A0BF1010B05933FF66FAF1BF8011FA2
:1009FC0003EB830302EB4303A1F13002092AF5D97F
:100A0C00059362E74021FFF78DFDC9F80000C9F896
:100A1C00100018B14023C9F8143005E70C23CAF8AC
:100A2C0000304FF0FF3083E7705B0008785B000804
:100A3C007C5B000800000000490600082DE9F84F17
:100A4C0092461F460A698B680C469A42B8BF1A46F2
:100A5C00CAF8002091F843300646DDF8289013B10F
:100A6C000132CAF80020226891065FD5DAF800300E
:100A7C000233CAF80030226812F0060F11461DD15D
:100A8C00E1689942D8BF114618DD4FF0000804F117
:100A9C00190B05E0E568DAF80030ED1A45450CDD78
:100AAC0001235A4639463046C847013008F101083F
:100ABC00F0D14FF0FF30BDE8F88F216894F8433047
:100ACC00003B18BF01238A060AD53021E21882F8B0
:100ADC00431094F845105A1C2244023382F84310F8
:100AEC003946304604F14302C8470130E1D0D4E91D
:100AFC0002202368DAF8005003F00603042B216966
:100B0C001BD08A4220DD4FF00008521A9044002579
:100B1C001A3401E0454517DA01232246394630469E
:100B2C00C847013005F10105F4D1C2E712F0060FF8
:100B3C000DD0003B18BF0123D2E7401B8A4220EAAC
:100B4C00E078E2DC0028E2DC0020BDE8F88FE16808
:100B5C00DAF800309942D8BF114696DCAEE700BFF8
:100B6C002DE9F04717460A7E84B00C460646984697
:100B7C000C9D01F1430C002A35D0A2F15803D9B2D7
:100B8C00202969D8202B67D8DFE813F0E60066002F
:100B9C006600660066006600660066006600660019
:100BAC006600AC00700066006600660066007000AF
:100BBC00660066006600660021008300C6006600C1
:100BCC006600B6006600830066006600EC002B68C9
:100BDC002268181D6169286010061B6802D4520631
:100BEC0000F1E08019600023E14623613B46214679
:100BFC003046CDF8008003AAFFF720FF013020D04B
:100C0C004A46394630462369C047013019D023681B
:100C1C00E0689B07DDF80C9018D5484516DD0025DB
:100C2C0004F1190A04E0E068A0EB0903AB420DDD06
:100C3C000123524639463046C047013005F10105C3
:100C4C00F1D14FF0FF3004B0BDE8F0874845B8BF94
:100C5C00484604B0BDE8F087012084F8422004F136
:100C6C0042090023206184F84330BFE72A682368D7
:100C7C00111D1806296002D4590600F195801068E0
:100C8C00014600286268C0F293804FF00A0E534868
:100C9C0015E020682B6810F0800F53F8041B02D16C
:100CAC00400648BF89B26F2A14BF4FF00A0E4FF0AE
:100CBC00080E4A482B600023626884F84330002AEF
:100CCC00A26051DB236823F00403236000294BD17D
:100CDC00002A7BD1E146BEF1080F56D0ACEB0903DC
:100CEC00236183E72A680120116804322A6004F129
:100CFC00420984F84210B4E72B6800211A1D2A60BF
:100D0C00D3F800906268484600F0FCF8002863D0E5
:100D1C00A0EB09006060A4E7236843F02003236084
:100D2C0078222F4884F845202A6813F0800F52F857
:100D3C00041B03D113F0400F18BF89B22A60DA07E5
:100D4C0044BF43F02003236019B9236823F0200328
:100D5C0023604FF0100EAEE75823204884F845303E
:100D6C002368E1E72368DBE77546E146B1FBF5F361
:100D7C000A4605FB131A194610F80A30AA4209F85C
:100D8C00013DF3D2BEF1080FA8D12368DD07A5D52C
:100D9C00626823699A42A1DC302309F1FF3989F892
:100DAC0000309BE719801EE7B2F90010084668E78F
:100DBC002D20002AA26084F8430002DB23F00403F8
:100DCC0023600A250548AE464942CEE7037804F174
:100DDC00420984F842307EE7606842E7845B000891
:100DEC00985B000888420ED98B1883420BD900EB14
:100DFC00020C002A6DD0624613F801CD994202F81C
:100E0C0001CDF9D170470F2A0FD8034602F1FF3CF0
:100E1C00002A5ED00CF1010C013B8C4411F8012B23
:100E2C00614503F8012FF9D1704740EA01039B0794
:100E3C0050D1A2F1100370B501F1200C23F00F0575
:100E4C0001F1100E00F11004AC441B095EF8105CAB
:100E5C000EF1100E44F8105C5EF81C5C103444F873
:100E6C001C5C5EF8185C44F8185C5EF8145CE64593
:100E7C0044F8145CEAD1013312F00C0F01EB0311AE
:100E8C0002F00F0400EB031328D08E46043C24F030
:100E9C0003064FEA940C1E441C1F5EF8045B44F8D6
:100EAC00045FB442F9D10CF1010402F0030203EB2C
:100EBC00840301EB840102F1FF3C4AB10CF1010CFB
:100ECC00013B8C4411F8012B614503F8012FF9D13A
:100EDC0070BD7047034602F1FF3C9BE72246EAE7F0
:100EEC00002238B5064D044608462A6004F0AEFDD3
:100EFC00431C00D038BD2B68002BFBD0236038BDC1
:100F0C00880200205FFA81FC810744D00346511E01
:100F1C0022B909E09A0709D0013905D3184602789D
:100F2C0001336245F6D170470020704718460329FB
:100F3C000CD80029F8D00346014401E08B42F3D0D1
:100F4C00184613F8012B6245F8D1704710B50CEB1D
:100F5C000C24024604EB044402E00439032915D99D
:100F6C00104652F8043B6340A3F1013E2EEA030302
:100F7C0013F0803FF1D00346014401E08B4208D0CE
:100F8C00184613F8012B6245F8D110BD1046002904
:100F9C00F1D1002010BD1146C9E700BF2DE9F04189
:100FAC00144641B30AB306460D4600F029F88442B4
:100FBC00074602D8B4EB500F13D821463046FFF742
:100FCC00B1FA804650B1BC422246294628BF3A4667
:100FDC00FFF7AEF929463046FFF720FA4046BDE848
:100FEC00F081A8464046BDE8F081A046FFF716FA0E
:100FFC004046BDE8F0811146BDE8F041FFF792BADA
:10100C0051F8043C181F002BBCBF0B58C01870477C
:10101C0000F000B870B521F00045B5F1FF4F0A465D
:10102C0003462CD820F00046B6F1FF4F844626D854
:10103C00B1F17E5F35D08C1704F0020444EAD07411
:10104C0016B33DB3B5F1FF4F33D0B6F1FF4F21D0FE
:10105C00761BB6F1F45F4FEAE65028DA002934DA51
:10106C003C3032DA0020012C40D0022C36D02CB18E
:10107C00254900F075F9254900F070F970BD194645
:10108C00104600F06DF970BD022C08D0032CF5D180
:10109C001F4870BDBCF1000F07DB1E4870BD1B481C
:1010AC0070BDBDE8704000F03DB81B4870BD1948DC
:1010BC00D9E7B6F1FF4F04F1FF341AD0022C1ED839
:1010CC00164B03EB8403D86870BD1146184600F02C
:1010DC0003FB00F03BF900F025F8C4E70A4900F0E7
:1010EC003FF90146094800F039F970BD00F10040A4
:1010FC0070BD022C05D8094B53F8240070BD00209C
:10110C0070BD074870BD00BF2EBDBB33DB0F49401F
:10111C00DB0F49C0DB0FC93FDB0FC9BF045B000805
:10112C00DB0F493F2DE9F04120F00045B5F1A14F0F
:10113C000446074608D3B5F1FF4F73D8002840F397
:10114C0081806F48BDE8F0816E4B9D427DD8B5F132
:10115C00445F6CD34FF0FF382146204600F008FA6C
:10116C000146064600F004FA0546674900F000FA0D
:10117C00664900F0F5F8294600F0FAF9644900F0E8
:10118C00EFF8294600F0F4F9624900F0E9F8294635
:10119C0000F0EEF9604900F0E3F8294600F0E8F9B8
:1011AC005E4900F0DDF8314600F0E2F95C49064694
:1011BC00284600F0DDF95B4900F0D0F8294600F034
:1011CC00D7F9594900F0CAF8294600F0D1F9574926
:1011DC0000F0C4F8294600F0CBF9554900F0BEF8F0
:1011EC00294600F0C5F90146304600F0B9F8214611
:1011FC0000F0BEF9B8F1FF3F014646D04D4D05EB6E
:10120C008803196900F0AAF8214600F0A7F80146F6
:10121C0055F8280000F0A2F8002F93DA00F10040F6
:10122C00BDE8F081014600F09BF8BDE8F081424931
:10123C0000F096F84FF07E5100F056FB002889D054
:10124C0020467FE73D48BDE8F08100F07FF83C4B3D
:10125C0004469D421ED8A3F5D0039D423CD80146BE
:10126C0000F07EF84FF07E5100F078F803464FF016
:10127C00804120461C4600F073F80146204600F0E1
:10128C002BFA4FF00008044666E7204600F066F89B
:10129C00BDE8F0812B4B9D4216D84FF07F5100F0EA
:1012AC005DF803464FF07F5120461C4600F060F974
:1012BC004FF07E5100F054F80146204600F00CFA35
:1012CC004FF00208044647E701461F4800F004FAB5
:1012DC004FF0030804463FE74FF07E5100F03EF814
:1012EC0003464FF07E5120461C4600F039F801466B
:1012FC00204600F0F1F94FF0010804462CE700BF3E
:10130C00DB0FC93FFFFFDF3ED769853C59DA4B3D08
:10131C00356B883D6E2EBA3D2549123EABAAAA3ECE
:10132C0021A215BD6BF16E3D95879D3D388EE33D39
:10133C00CDCC4C3E1C5B0008CAF24971DB0FC9BF17
:10134C00FFFF973FFFFF1B40000080BF20F00040D5
:10135C00704700BF80F0004002E000BF81F0004108
:10136C0042001FBF5FEA410392EA030F7FEA226C3F
:10137C007FEA236C6AD04FEA1262D2EB1363C1BFCF
:10138C00D218414048404140B8BF5B42192B88BF3E
:10139C00704710F0004F40F4000020F07F4018BF61
:1013AC00404211F0004F41F4000121F07F4118BF81
:1013BC00494292EA030F3FD0A2F1010241FA03FC29
:1013CC0010EB0C00C3F1200301FA03F100F0004311
:1013DC0002D5494260EB4000B0F5000F13D3B0F1D9
:1013EC00807F06D340084FEA310102F10102FE2A48
:1013FC0051D2B1F1004F40EBC25008BF20F00100B8
:10140C0040EA03007047490040EB0000013A28BF56
:10141C00B0F5000FEDD2B0FA80FCACF1080CB2EBD9
:10142C000C0200FA0CF0AABF00EBC2505242184357
:10143C00BCBFD0401843704792F0000F81F40001FC
:10144C0006BF80F400000132013BB5E74FEA4103CF
:10145C007FEA226C18BF7FEA236C21D092EA030F3B
:10146C0004D092F0000F08BF0846704790EA010FB5
:10147C001CBF0020704712F07F4F04D1400028BFE2
:10148C0040F00040704712F100723CBF00F50000C4
:10149C00704700F0004343F0FE4040F400007047FA
:1014AC007FEA226216BF08467FEA236301464202A6
:1014BC0006BF5FEA412390EA010F40F480007047B9
:1014CC004FF0000304E000BF10F0004348BF40425F
:1014DC005FEA000C08BF704743F0964301464FF09B
:1014EC0000001CE050EA010208BF70474FF00003F7
:1014FC000AE000BF50EA010208BF704711F0004338
:10150C0002D5404261EB41015FEA010C02BF844607
:10151C000146002043F0B64308BFA3F18053A3F566
:10152C000003BCFA8CF2083AA3EBC25310DB01FAAD
:10153C0002FC634400FA02FCC2F12002BCF1004F31
:10154C0020FA02F243EB020008BF20F001007047C2
:10155C0002F1200201FA02FCC2F1200250EA4C0016
:10156C0021FA02F243EB020008BF20EADC7070475C
:10157C004FF0FF0C1CEAD0521EBF1CEAD15392EA6A
:10158C000C0F93EA0C0F6FD01A4480EA010C400246
:10159C0018BF5FEA41211ED04FF0006343EA5010A0
:1015AC0043EA5111A0FB01310CF00040B1F5000FE2
:1015BC003EBF490041EAD3715B0040EA010062F191
:1015CC007F02FD2A1DD8B3F1004F40EBC25008BF7B
:1015DC0020F00100704790F0000F0CF0004C08BF99
:1015EC0049024CEA502040EA51207F3AC2BFD2F166
:1015FC00FF0340EAC250704740F400004FF0000374
:10160C00013A5DDC12F1190FDCBF00F000407047AD
:10161C00C2F10002410021FA02F1C2F1200200FAEB
:10162C0002FC5FEA310040F1000053EA4C0308BFB2
:10163C0020EADC70704792F0000F00F0004C02BF03
:10164C00400010F4000F013AF9D040EA0C0093F07E
:10165C00000F01F0004C02BF490011F4000F013BD8
:10166C00F9D041EA0C018FE70CEAD15392EA0C0F46
:10167C0018BF93EA0C0F0AD030F0004C18BF31F0B1
:10168C00004CD8D180EA010000F00040704790F087
:10169C00000F17BF90F0004F084691F0000F91F02B
:1016AC00004F14D092EA0C0F01D142020FD193EAF1
:1016BC000C0F03D14B0218BF084608D180EA010079
:1016CC0000F0004040F0FE4040F40000704740F055
:1016DC00FE4040F4400070474FF0FF0C1CEAD05223
:1016EC001EBF1CEAD15392EA0C0F93EA0C0F69D07F
:1016FC00A2EB030280EA010C49024FEA402037D0EA
:10170C004FF0805343EA111143EA10130CF00040E0
:10171C008B4238BF5B0042F17D024FF4000C8B42D0
:10172C0024BF5B1A40EA0C00B3EB510F24BFA3EBB0
:10173C00510340EA5C00B3EB910F24BFA3EB910380
:10174C0040EA9C00B3EBD10F24BFA3EBD10340EADA
:10175C00DC001B0118BF5FEA1C1CE0D1FD2A3FF620
:10176C0050AF8B4240EBC25008BF20F001007047D5
:10177C000CF0004C4CEA50207F32C2BFD2F1FF0378
:10178C0040EAC250704740F400004FF00003013AA9
:10179C0037E792F0000F00F0004C02BF400010F44D
:1017AC00000F013AF9D040EA0C0093F0000F01F061
:1017BC00004C02BF490011F4000F013BF9D041EA83
:1017CC000C0195E70CEAD15392EA0C0F08D14202B6
:1017DC007FF47DAF93EA0C0F7FF470AF084676E789
:1017EC0093EA0C0F04D14B023FF44CAF08466EE762
:1017FC0030F0004C18BF31F0004CCAD130F0004230
:10180C007FF45CAF31F000437FF43CAF5FE700BF87
:10181C004FF0FF3C06E000BF4FF0010C02E000BFB0
:10182C004FF0010C4DF804CD4FEA40024FEA410352
:10183C007FEA226C18BF7FEA236C11D001B052EA08
:10184C00530C18BF90EA010F58BFB2EB030088BFCE
:10185C00C81738BF6FEAE17018BF40F0010070473D
:10186C007FEA226C02D15FEA402C05D17FEA236C1F
:10187C00E4D15FEA412CE1D05DF8040B704700BF66
:10188C00844608466146FFE70FB5FFF7C9FF0028FD
:10189C0048BF10F1000F0FBD4DF808EDFFF7F4FF36
:1018AC000CBF012000205DF808FB00BF4DF808EDCF
:1018BC00FFF7EAFF34BF012000205DF808FB00BFF2
:1018CC004DF808EDFFF7E0FF94BF012000205DF814
:1018DC0008FB00BF4DF808EDFFF7D2FF94BF0120C5
:1018EC0000205DF808FB00BF4DF808EDFFF7C8FFBE
:1018FC0034BF012000205DF808FB00BF4FEA400216
:10190C00B2F1FE4F0FD34FF09E03B3EB12620DD921
:10191C004FEA002343F0004310F0004F23FA02F08B
:10192C0018BF404270474FF00000704712F1610F32
:10193C0001D1420205D110F0004008BF6FF0004009
:10194C0070474FF00000704710B5054C237833B941
:10195C00044B13B10448AFF300800123237010BD76
:10196C00B402002000000000EC5A000808B5034B3C
:10197C001BB103490348AFF3008008BD0000000011
:10198C00B8020020EC5A000872B6FEE700B591B020
:10199C002822002106A8FEF739FC002301930293AC
:1019AC000393049305930223069301220A921022B7
:1019BC000B920D934FF460130F9306A802F072FC78
:1019CC0080B90F23019302210291002303934FF45A
:1019DC0080620492059301A802F096FE20B911B022
:1019EC005DF804FBFFF7D0FFFFF7CEFF08B501F061
:1019FC0061FCFFF7CBFF00F053FA00F09FFAFCE715
:101A0C00024A536803435360704700BF2C03002005
:101A1C00034B5A6822F00E025A6000229A727047E9
:101A2C002C03002010B504460949FFF75DFF48B9A7
:101A3C0008492046FFF73AFF30B92046FFF75EFF12
:101A4C0000B210BD6420FCE76FF06300F9E700BF43
:101A5C000000C8420000C8C200B585B00023009346
:101A6C0001930293039340230093012302930223D7
:101A7C0003936946024802F08FFF05B05DF804FB42
:101A8C00000C014070B584B00023009301930293C5
:101A9C0003934FF4005500950126019602230393FE
:101AAC00054C6946204602F077FF3246294620460F
:101ABC0003F087F804B070BD0010014000B583B08E
:101ACC00164B9A6942F008029A619A6902F0080270
:101ADC000092009A9A6942F010029A619B6903F095
:101AEC0010030193019BFFF7B7FFFFF7CBFF4021DA
:101AFC000B4803F05FF870B901230A4A13700A4AC5
:101B0C0013700021094A1170094A137353739173AE
:101B1C0003B05DF804FB0023EFE700BF00100240A8
:101B2C00000C0140DE020020DD020020DC0200205F
:101B3C002C03002008B5054B1A78B2FA82F2520930
:101B4C004FF40051024803F03CF808BD040100209A
:101B5C000010014008B540211A4803F02BF898B941
:101B6C000123194A1373194A12789A420ED1184B51
:101B7C001B78132B05D80133DBB215490B70142BD2
:101B8C000CD0FFF7D7FF08BD0023EAE70F4A13700C
:101B9C000F4B00221A70FFF7CDFFF4E70D4B1B78AB
:101BAC009A42EED00B4B1A70074B5A73002AE8D0AE
:101BBC00094B01221A70044A937B83F0010393733F
:101BCC00DFE700BF000C01402C030020DE020020E8
:101BDC00DC020020DD020020E002002008B50948EC
:101BEC0001F09CFA084801F099FA084801F096FABD
:101BFC00074B00221A60074B00221A875A879A87D4
:101C0C00DA8708BDC80000208C000020500000209E
:101C1C00D40200202C03002008B5054B00221A72B8
:101C2C001A875A879A87DA8700F0CCFF08BD00BF65
:101C3C002C0300202DE9F04385B001A801F0F4F845
:101C4C0000286FD15A4C01236372BDF904702782AE
:101C5C00BDF906306382BDF90860A682BDF90A3071
:101C6C00E382BDF90C002083BDF90E306383FFF7CE
:101C7C002BFCDFF84081D8F80C10FFF76FFB054602
:101C8C003046FFF721FC06463846FFF71DFC31466F
:101C9C00FFF7BEF900F100404749FFF71DFD47492A
:101CAC00FFF766FCD8F81010FFF75AFB07464FF009
:101CBC0060512846FFF75CFC4149FFF759FC41494C
:101CCC00FFF756FCDFF80091D9F80010FFF748FB3E
:101CDC0006463C493846FFF74BFC05463B49304627
:101CEC00FFF746FC01462846FFF73AFB0546C9F8C4
:101CFC000000E76126626062D8F81410FFF7F4FD6B
:101D0C00D8B9D8F8141001F100412846FFF7CEFDE0
:101D1C0098B9284B1B7813B1254B5B7AB3B9FFF7F5
:101D2C007BFF07E00220FFF76BFE214B00225A726B
:101D3C00FFF772FF05B0BDE8F0830420FFF760FEEB
:101D4C001C4B00221A70FFF767FFF3E7184C0123B6
:101D5C0023721F4E7560304601F0E9F9F7681D4B90
:101D6C00D3F800804FF07C514046FFF701FC06464B
:101D7C003946FFF7F5FA054631463846FFF7EEFAD5
:101D8C0006462846FFF74EFE05463046FFF74AFE4C
:101D9C0006463846FFF746FEA0874046FFF742FE50
:101DAC00E087258766873146284600F0B9FEC1E7F3
:101DBC002C03002004010020D00F494000003443C4
:101DCC000000FA440AD7233CD8020020A4707D3FBF
:101DDC00C8000020D4020020F8B500F0D7FC05465E
:101DEC0000F0DEFC04462846FFF76EFB2349FFF7A4
:101DFC0073FC2349FFF770FC2249FFF76DFC054685
:101E0C002046FFF761FB1D49FFF766FC1C49FFF7F5
:101E1C0063FC1C49FFF760FC044601462846FFF7AB
:101E2C009FFA4FF07C51FFF7A3FB0746214628464B
:101E3C00FFF794FA144B9D62DC621F635863134BDB
:101E4C001B781BB10646104B1B7A03B9F8BD0F4D1E
:101E5C006B680F4C23606760204601F068F9E268FC
:101E6C000C4B1A60AB680C4C23606660204601F08A
:101E7C005EF9E268094B1A60E8E700BF00005041C8
:101E8C00CDCC4C3D0000F0412C030020040100207F
:101E9C008C000020C800002050000020D40200203C
:101EAC0010B5FFF70BFEFFF799FE00F0B3FE0446EA
:101EBC0058BB00F04DFC68BB00F076FF78BB1C4BA8
:101ECC0001225A7200F0F0FF194BD87200F0C0F9E1
:101EDC0000F072FA1748184B03603F23436000234D
:101EEC00836040F2E732C2600361836102F062FFFB
:101EFC0018B9104802F0E8FE18B14020FFF780FD39
:101F0C000124FFF789FE204610BD1020FFF778FD55
:101F1C000124CEE72020FFF773FD0124CCE701203C
:101F2C00FFF76EFD024B00225A720124CAE700BF74
:101F3C002C030020E40200200008004008B500F04B
:101F4C00A9F900F071FA314B1B7893B12F4B002299
:101F5C001A702F4B1B7813BBFFF75AFDFFF73EFE91
:101F6C002C4B5A6A2C4B1A60294B01221A70FFF722
:101F7C00E1FD274B9B7823B10023254A9370254A1A
:101F8C005360234B5B7883B9214B1B7813B1234BE4
:101F9C001B7883B11E4B1A78204B1A701DE01C4B1A
:101FAC0000221A70FFF738FEE1E7194B00225A7035
:101FBC00FFF714FEE8E7FFF72BFDFFF70FFE154BBD
:101FCC005A6A154B1A60E5E772B6154A1378013B4D
:101FDC00DBB2137062B6FFF72DFE114B1B78002B92
:101FEC00F2D108E072B60F4A1378013BDBB21370E2
:101FFC0062B6FFF7F1FE0B4B1B78002BF2D1044BB2
:10200C001B7803B108BDFFF707FEFBE7E0020020D9
:10201C00040100202C030020D8020020DF02002045
:10202C00E2020020E102002008B51E4A13680133C9
:10203C001360FFF78FFD1C4A13780133DBB213706A
:10204C00092B0CD9134600221A70184B1B78DBB2E3
:10205C00FF2B19D0154A13780133DBB21370144AD5
:10206C0013780133DBB21370312B0CD913460022D9
:10207C001A70104B1B78DBB2FF2B0CD00D4A137867
:10208C000133DBB2137008BD0820FFF7B9FC054B18
:10209C0001229A72E3E70820FFF7B2FC014B012200
:1020AC009A72F0E72C030020D1020020E2020020FB
:1020BC00D0020020E102002002680E4B9A4200D0B0
:1020CC00704700B583B003F50233DA6942F00402BD
:1020DC00DA61DB6903F004030193019B0022022106
:1020EC001E2003F017F91E2003F024F903B05DF84D
:1020FC0004FB00BF0008004008B5084B1B681A69B8
:10210C0012F0010F03D0DA6812F0010F00D108BDF4
:10211C006FF001021A61FFF787FFF8E7E402002075
:10212C00024A936903439361704700BF1C0100206E
:10213C00024A936923EA0003936170471C01002053
:10214C0010B582B001A90DF1060000F0BDFB10BB6B
:10215C000820FFF7EDFF164A01235377BDF8063030
:10216C001381BDF804105181124A127822B9104A19
:10217C001382104A012111700D4A128A92B29342B5
:10218C0010D90B4C208A80B2181AFFF79DF961699F
:10219C00FFF7EEF907E00820FFF7C2FF044B00221F
:1021AC005A7702E00020024BD86002B010BD00BF8D
:1021BC001C0100206C03002000B583B0204B1B7861
:1021CC004BB101F095F81F4B1B68C01A112817D89A
:1021DC0003B05DF804FB00F0E9F938B901F088F8B8
:1021EC00184B1860164B01221A70F1E70220FFF70A
:1021FC0097FF01F07DF800F5FA60134B1860E7E7E4
:10220C000F4B00221A7001F073F800F5FA600E4BB8
:10221C001860684600F0D8F950B90220FFF788FF23
:10222C000A4B01221A77009A1A60019A5A60CFE77A
:10223C000220FFF775FF054B00221A77C8E700BF95
:10224C006D03002070030020740300201C0100208B
:10225C0010B500F095F9044670B900F0F3FA80B9A6
:10226C0001F046F8094B186001F042F800F57A705D
:10227C00074B1860204610BD0120FFF751FF0124C9
:10228C00EBE70420FFF74CFF0124E9E7780300207B
:10229C007403002010B501F02BF804460B4B1B689F
:1022AC00C31A002B0ADA0A4B1B7823B9094B1B689B
:1022BC00E41A002C01DBFFF77FFF10BD00F1640373
:1022CC00024A1360FFF73CFFEDE700BF78030020E4
:1022DC006D0300207403002030B589B02F4D2868A1
:1022EC002F49FFF745F9FFF709FB0446E8684FF063
:1022FC007C51FFF735F8FFF701FB054600F04EFE69
:10230C00284A82FB0432E317C3EBA203002C40DB08
:10231C00244981FB0421E217C2EBA10202EB8202E9
:10232C00A4EB42020092204A162102A8FDF728FFD6
:10233C0002AA0021084600F0ABFE184C60684FF072
:10234C007C51FFF70DF8FFF7D9FA0346174A16210F
:10235C0002A8FDF715FF02AA0221002000F098FE4A
:10236C002B46134A162102A8FDF70AFF02AA0421E4
:10237C00002000F08DFE23899BB20E4A162102A884
:10238C00FDF7FEFE02AA0621002000F081FE09B036
:10239C0030BD03EB8302C4EB4202C3E71C010020F7
:1023AC0000002041676666663C5B00084C5B0008D9
:1023BC00585B0008685B000838B500F0F9FD05466D
:1023CC00D0B91020FFF7B4FE144C0123A37700F012
:1023DC00D3FDE07700F0D6FD84F8200000F0D8FDA6
:1023EC0084F8210000F084FF0D4B186000F080FF92
:1023FC000C4B1860284638BD1020FFF791FE074C97
:10240C000023A37700F0B8FDE07700F0BBFD84F863
:10241C00200000F0BDFD84F82100EBE71C0100203A
:10242C00800300207C030020174B9B7F03B970476F
:10243C0010B500F05DFF0446144B1B68C31A002B4B
:10244C0005DA134B1B68E31A002B07DA10BD00F5F5
:10245C00FA730E4A1360FFF73FFFF2E714340C4B8C
:10246C001C6000F051FD50B12020FFF759FE064CC6
:10247C000023A37700F08CFD84F82100E6E72020F0
:10248C00FFF756FEE2E700BF1C010020800300208E
:10249C007C0300200A4B1B7883B90A4AD2F8FC3023
:1024AC0043F08073C2F8FC30074B00225A601A6864
:1024BC0042F001021A60024B01221A70704700BFF1
:1024CC008403002000ED00E0001000E000B585B0B2
:1024DC00002300930193029303934FF480430093E2
:1024EC0001230293032303936946034802F054FA31
:1024FC0005B05DF804FB00BF0010014000B585B0CD
:10250C00002300930193029303934FF480430093B1
:10251C001123019301230293032303936946034878
:10252C0002F03AFA05B05DF804FB00BF0010014060
:10253C0010B5054B5C6802F09DF9044BA3FB003011
:10254C00800CB4FBF0F010BD001000E083DE1B43E8
:10255C0070B504460E46FFF7EBFF05464FF480417D
:10256C00064802F027FBA04206D0FFF7E1FF401B14
:10257C00B042F3D9032000E0002070BD00100140F0
:10258C0000B583B0084B9A6942F010029A619B69BE
:10259C0003F010030193019BFFF77CFFFFF796FFFD
:1025AC00002003B05DF804FB0010024008B5FFF7F3
:1025BC00A5FF00224FF48041024802F002FB0020EC
:1025CC0008BD00BF001001402DE9F04383B000238B
:1025DC0000938DF8043000286FD00646FFF776FF85
:1025EC0064210020FFF7B4FF00286BD16421012087
:1025FC00FFF7AEFF002867D16421FFF7A9FF05465E
:10260C00002863D1044601E00134E4B2272C24D81D
:10261C0050210120FFF79CFF002859D1FFF788FFBC
:10262C00074678210020FFF793FF002852D1FFF7CF
:10263C007FFFC01BC4F3C70202F108030DEB0301BB
:10264C0011F8083C5B00DBB201F8083C2D28DBD903
:10265C0043F0010301F8083CD6E79DF800009DF813
:10266C000170C319DBB29DF802402344DBB29DF824
:10267C0003804344DBB29DF8042093422CD1FEF737
:10268C001FFF81463846FEF71BFF1449FEF770FF0B
:10269C0001464846FEF764FE70602046FEF710FFC8
:1026AC0004464046FEF70CFF0C49FEF761FF01465D
:1026BC002046FEF755FE306000E00125284603B0A9
:1026CC00BDE8F0830325F9E70325F7E70325F5E7D4
:1026DC000325F3E70325F1E70125EFE7CDCCCC3D4E
:1026EC0030B58DB004460D462422002103A8FDF719
:1026FC008DFD00230193029325606360A3604FF668
:10270C00FF72E2602361A36103220392049301210F
:10271C00059106930F220792089309910A930B9245
:10272C0003A9204602F09EFB10B101200DB030BD74
:10273C0000230193029301A9204602F06FFD08B11A
:10274C000120F3E73C21204602F002FDEEE70000F9
:10275C0008B50B490B48FFF7C3FF08B1012008BDB2
:10276C004FF080410848FFF7BBFF38B9054B1A689A
:10277C0000235362044A12685362F0E70120EEE72B
:10278C00002C0140D003002088030020034B1B6861
:10279C00586A00225A62404200B27047D0030020AF
:1027AC00034B1B68586A00225A6200B2704700BF84
:1027BC008803002000B589B0002304930593069389
:1027CC00079303F1804303F504339A6942F0040242
:1027DC009A619B6903F004030193019B0368164AF9
:1027EC0093421AD0B3F1804F14D103F50433DA6954
:1027FC0042F00102DA61DB6903F001030393039BEE
:10280C0003230493012306930323079304A90B4882
:10281C0002F0C2F809B05DF804FB094B9A6942F466
:10282C0000629A619B6903F400630293029B4FF46C
:10283C0040730493E6E700BF002C01400008014000
:10284C000010024000B585B000230193029303935E
:10285C001A4A516841F440415160916941F4007148
:10286C009161926902F400720092009A1448154A20
:10287C0002608360037303754FF46022C26143608E
:10288C000123036102F0C2FF18B1012005B05DF80D
:10289C0004FB02230193012302930723039301A951
:1028AC00074802F02FFE08B10120EFE7044803F0BF
:1028BC004BF80028EAD00120E8E700BF00100240E6
:1028CC0018040020002401402DE9F04168B30C46A7
:1028DC00074661B3174802F0F9FE18B101263046DD
:1028EC00BDE8F0810521134802F046FD0646B8B953
:1028FC00DFF84080404602F001FE0546404603F0FA
:10290C0009F83D8040F6E44303FB05F50A4BA3FBB5
:10291C000523ED1A03EB5503C3F3CF232380DEE726
:10292C00044802F0F7FF0326D9E70126D7E7012672
:10293C00D5E700BF180400200101100000B587B0D6
:10294C000023029303930493059302680C4B9A4261
:10295C0002D007B05DF804FB03F56C439A6942F0B2
:10296C0004029A619B6903F004030193019B042305
:10297C0002930323039302A9024802F00DF8E8E73F
:10298C00002401400008014008B50E4B1B780BB128
:10299C00002008BD0C480D4B03600D4B4360002319
:1029AC008360C3604FF48042026143618361C36101
:1029BC00036200F09DFF18B9024B01221A70E8E780
:1029CC000120E6E749040020A00400200054004048
:1029DC00801A060000487047A004002008B50E4B72
:1029EC001B780BB1002008BD0C480D4B03600D4B40
:1029FC00436000238360C3604FF4804202614361F3
:102A0C008361C361036200F073FF18B9024B0122AA
:102A1C001A70E8E70120E6E7480400204C04002087
:102A2C0000580040801A0600004870474C040020F3
:102A3C0000B589B00023049305930693079303F123
:102A4C00804303F504339A6942F008029A619B694A
:102A5C0003F008030093009B03681E4A93421AD0AC
:102A6C001D4A934214D11D4BDA6942F48002DA619B
:102A7C00DB6903F480030393039B4FF440630493DB
:102A8C00122305930323079304A9154801F084FF2F
:102A9C0009B05DF804FB114B9A6942F001029A618E
:102AAC009A6902F001020192019ADA6942F4001269
:102ABC00DA61DB6903F400130293029B094A536841
:102ACC0043F0E06343F0020353604FF4407304930C
:102ADC00D6E700BF005400400058004000100240F0
:102AEC00000C014000000140642803DC10F1640F6D
:102AFC0002DB7047642070476FF063007047000082
:102B0C000028B8BF404200B24FF47A7303FB00F0C8
:102B1C00024BA3FB00304009704700BF1F85EB51EF
:102B2C0070B50C46FFF7E0FF06462046FFF7DCFFCA
:102B3C00044601220821204802F043F8002E22DB33
:102B4C001D4D01221021284602F03BF800222021C5
:102B5C00284602F036F8002C21DB184D0122022108
:102B6C00284602F02EF800220121284602F029F80E
:102B7C00134B1D683046FFF7C3FF68632046FFF711
:102B8C00BFFFA86370BD0C4D00221021284602F037
:102B9C0018F801222021284602F013F8DBE7074D34
:102BAC0000220221284602F00CF801221146284688
:102BBC0002F007F8DCE700BF00080140000C014000
:102BCC00F404002070B5104B1B6800245C639C63FC
:102BDC000E4D22461021284601F0F3FF22462021FB
:102BEC00284601F0EEFF0A4E22460221304601F043
:102BFC00E8FF22460121304601F0E3FF224608217E
:102C0C00284601F0DEFF70BDF404002000080140EE
:102C1C00000C014070B58EB000240A940B940C94F7
:102C2C000D94304B9A6942F004029A619A6902F051
:102C3C0004020192019A9A6942F008029A619B6916
:102C4C0003F008030293029B38230A9301260B9688
:102C5C0003250D950AA9244801F09EFE0A950B96B2
:102C6C000D950AA9214801F097FE2148214B0360DC
:102C7C003F23436084604FF47A73C36004618461C2
:102C8C0002F0C4F818B1012420460EB070BD2246E3
:102C9C00039404940594069407940894099460236F
:102CAC00039303A9124802F067F908B10124EBE77A
:102CBC00042203A90E4802F05FF908B10124E3E7EE
:102CCC0021460B4802F0D6F908B10124DCE70421B7
:102CDC00074802F0CFF9044608B10124D4E7FFF706
:102CEC0071FFD1E70010024000080140000C0140C8
:102CFC00F40400200004004000B587B000230293C8
:102D0C000393049305930268124B9A4202D007B0C6
:102D1C005DF804FB03F50333DA6942F00202DA6171
:102D2C00DA6902F002020092009A9A6942F00402F7
:102D3C009A619B6903F004030193019BC0230293E6
:102D4C00022303930323059302A9034801F024FEF5
:102D5C00DDE700BF000400400008014030B585B03D
:102D6C0004460D46FFF736FE0A2302930123019316
:102D7C0000952246D02101F007F805B030BD10B502
:102D8C0086B004468DF81710FFF724FE0A23029331
:102D9C00012301930DF1170200922246D02100F07D
:102DAC0041FF06B010BD000008B5FFF7EDFD08B1FE
:102DBC00012008BD1B497520FFF7D0FF80BB194BC4
:102DCC001B78682B01D00120F3E701216B20FFF762
:102DDC00D6FF08B10120ECE700216C20FFF7CFFFF4
:102DEC0008B10120E5E707211920FFF7C8FF08B15A
:102DFC000120DEE700211A20FFF7C1FF08B10120F6
:102E0C00D7E718211B20FFF7BAFF08B10120D0E744
:102E1C0018211C20FFF7B3FF0028CAD00120C8E7F7
:102E2C000120C6E73C05002010B588B00446FFF72A
:102E3C00D1FD052302930E23019304AB00930123D0
:102E4C003B22D02100F0A0FF58BB9DF810209DF82C
:102E5C00113043EA022323809DF812209DF8133091
:102E6C0043EA022363809DF814209DF8153043EA51
:102E7C000223A3809DF818209DF8193043EA022301
:102E8C00E3809DF81A209DF81B3043EA022323812E
:102E9C009DF81C209DF81D3043EA0223638108B085
:102EAC0010BD0120FBE70000014B1878704700BFF4
:102EBC003C05002000B585B000238DF80C308DF852
:102ECC000D00FFF7B1FD064B19780A23009302237E
:102EDC0003AA490000F0EAFD05B05DF804FB00BF51
:102EEC003F05002008B540F0B000FFF7E3FF08B144
:102EFC00012008BDFFF7DEFF08B10120F9E7102023
:102F0C00FFF7D8FFF5E7000000B5A5B0174B187810
:102F1C00FFF7E8FF18B1012025B05DF804FB402352
:102F2C008DF80C30114B19788022114B03EBC11129
:102F3C000DF10D00FDF7FCF9FFF776FD0D4B19783F
:102F4C0014230093812303AA490000F0AFFD50B96C
:102F5C00064A13780133DBB21370072BDCD9134606
:102F6C0000221A70D8E70120D6E700BF40050020E8
:102F7C00440500203F050020014B1878704700BF26
:102F8C003F050020014B1878704700BF3E0500201C
:102F9C00014B1878704700BF3D05002008B54FF471
:102FAC00806200210148FDF731F908BD440500207D
:102FBC0038B50023314A1370314A1370314A1370FB
:102FCC00FFF70CFD20B101252E4B1D70284638BD96
:102FDC000546142000F092F9FFF726FD0A23022281
:102FEC00782101F07FF838B9254A137843F00103B2
:102FFC001370224B3C221A70FFF716FD0A23022293
:10300C007A2101F06FF850B91D4A137843F002038E
:10301C0013701A4B1B7813B9184B3D221A70174BAF
:10302C001B7853B12C461B2C11D8174B185DFFF78E
:10303C0041FF38B90134E4B2F5E7124B02221A70A1
:10304C000125C3E70F4B03221A700125BEE7FFF7DA
:10305C00A5FF2C46072C0CD80C4B1C70FFF754FF0B
:10306C0010B90134E4B2F5E7064B04221A700125BD
:10307C00ACE7064B00221A70A8E700BF3F05002002
:10308C003E0500203D050020AC5B000840050020FB
:10309C0007293ED810F0800F3BD1002A39D000EB25
:1030AC00C11C1378ABB37A2832D830B521E00CF1BF
:1030BC00010ECD5C174C04F80C500130C0B201333A
:1030CC00DBB21FFA8EFC042B02D810F0800FEED06E
:1030DC0010F0800F09D10CF101030E49002401F806
:1030EC000C400130C0B21FFA83FC13787BB17A28F4
:1030FC000DD80132A3F12001C9B25E2900D93F23BA
:10310C00203B03EB8303044919440023DBE730BD68
:10311C007047704744050020C85B0008002303601B
:10312C0043608360C360C3610362436270472DE9EF
:10313C00F0410446C3690362466831460068FEF7F5
:10314C000DF90546E061676900213846FEF7A4FBDE
:10315C00B0B9616A2846FEF703F96062D4F828809A
:10316C004146FEF7C1FB08B1C4F82480D4F82C808A
:10317C004146606AFEF79AFB20B1C4F8248001E056
:10318C000023636221692846FEF7F2F90546616A5D
:10319C003846FEF7EDF901462846FEF7E1F80546FC
:1031AC00A769A1683046FEF7D9F801463846FEF704
:1031BC00DFF901462846FEF7D1F80546E06000210C
:1031CC00FEF792FB20B1A16B2846FEF7C9F8E06030
:1031DC00E56800212846FEF769FB80B9256B294676
:1031EC00E068FEF781FB00B1E560656B2946E0689D
:1031FC00FEF75CFB00B1E560A660BDE8F081A16B59
:10320C002846FEF7ABF8E060E8E7FEE7FEE7FEE7EE
:10321C00FEE7FEE770477047704708B500F05CF8B2
:10322C0008BD000082B00E4B9A6942F001029A610F
:10323C009A6902F001020092009ADA6942F0805217
:10324C00DA61DB6903F080530193019B054A5368F3
:10325C0023F0E06343F00073536002B0704700BF8B
:10326C00001002400000014010B504460E4B1A78C5
:10327C004FF47A73B3FBF2F30C4A1068B0FBF3F023
:10328C0002F066F868B90F2C01D901200AE000227F
:10329C0021464FF0FF3002F03DF8054B1C6000203A
:1032AC0000E0012010BD00BF4001002048010020BB
:1032BC004401002008B5074A136843F0100313605B
:1032CC00032002F015F80F20FFF7CEFFFFF7AAFF3F
:1032DC00002008BD00200240034A1168034B1B78F4
:1032EC000B441360704700BF4409002040010020CC
:1032FC00014B1868704700BF4409002038B50446DC
:10330C00FFF7F6FF0546B4F1FF3F02D0044B1B78E4
:10331C001C44FFF7EDFF401BA042FAD338BD00BFA1
:10332C004001002003685A6912F4806F01D100201B
:10333C0070476FF480625A6100230363202280F887
:10334C003D2080F83E30026C42F00402026480F8AA
:10335C003C30012070472DE9F04106460C461746DB
:10336C0098463BE0FFF7C4FF069BC01A404502D8C5
:10337C00B8F1000F32D1012D18D033689B6924EAC3
:10338C0003039BB2B3FA83F35B099F4226D100235C
:10339C003363202286F83D2086F83E30326C42F0B2
:1033AC002002326486F83C30012027E033685B69E8
:1033BC0024EA03039BB2B3FA83F35B09E5E73368B2
:1033CC005B6924EA030C1FFA8CFCBCFA8CFC4FEAF8
:1033DC005C1C674511D1B8F1FF3FC3D1C4F307455D
:1033EC00012DECD033689B6924EA030C1FFA8CFC8A
:1033FC00BCFA8CFC4FEA5C1CEBE70020BDE8F081CA
:10340C002DE9F84305460E469046994653E01A6856
:10341C0042F400721A602B686FF480625A610023C8
:10342C002B63202285F83D2085F83E302A6C42F033
:10343C0004022A6485F83C3001204AE0FFF758FF6B
:10344C00A0EB0900404502D8B8F1000F33D1012F91
:10345C0017D02B689B6926EA03039BB2003B18BF6D
:10346C00012343B300232B63202285F83D2085F8EC
:10347C003E302A6C42F020022A6485F83C30012050
:10348C0027E02B685B6926EA03039BB2003B18BF5D
:10349C000123E6E72B689C6926EA0404A4B2003CED
:1034AC0018BF0124A4B12B685A6912F4806FAED1F5
:1034BC00B8F1FF3FC2D1C6F30747012FEAD12B6801
:1034CC005C6926EA0404A4B2003C18BF0124E9E7B5
:1034DC000020BDE8F8830000F0B583B004460D462B
:1034EC0016461F46C36A082B0DD0012B0BD013F5C3
:1034FC00803F08D0036B122B0AD10268136843F487
:10350C008073136004E02268136843F480731360C3
:10351C000097334600224FF001112046FFF71BFFA6
:10352C0080B92369B3F5804F16D1236805F0FE05E9
:10353C001D613B46324613492046FFF761FFF8B93F
:10354C0003B0F0BD23681B6813F4807F02D04FF4E6
:10355C00007323640320F3E7EB11226803F00603E6
:10356C0043F0F00313613B46324607492046FFF710
:10357C0047FF18B92368EDB21D61DAE70120DFE7D8
:10358C000120DDE7020001000800010070B50446CF
:10359C000D46164623685B6913F0800F21D1204637
:1035AC00FFF7C0FEF8B9B5F1FF3FF3D0FFF7A0FE6F
:1035BC00801BA84201D8002DECD123685B6913F065
:1035CC00800FE7D100232363202284F83D2084F868
:1035DC003E30226C42F02002226484F83C30012000
:1035EC0000E0002070BD0120FCE700002DE9F04355
:1035FC0085B004460D4691461F46DDF830800D9E81
:10360C000368196841F480711960009643460022E2
:10361C004FF00111FFF79FFE60B9236805F0FE051E
:10362C001D613346424626492046FFF7E9FE68B144
:10363C00012008E023681B6813F4807F02D04FF44C
:10364C0000732364032005B0BDE8F08300230393CB
:10365C0023685A6903929B690393039B3246414644
:10366C002046FFF793FF30B9012F0FD123685FFA83
:10367C0089F61E61E7E7236C042B01D00120E2E7F9
:10368C002268136843F400731360F7E723684FEA6A
:10369C0019221A61324641462046FFF777FF20B9BE
:1036AC0023685FFA89F61E61CDE7236C042B01D0E9
:1036BC000120C8E72268136843F400731360F7E72E
:1036CC00020001002DE9F04784B004460D46164671
:1036DC0099460C9FDDF834800268136843F48063CC
:1036EC0013600368196841F480711960CDF800808B
:1036FC003B4600224FF00111FFF72DFE70B95FFA27
:10370C0085FA236805F0FE051D6143463A4641499A
:10371C002046FFF775FE68B1012008E023681B689E
:10372C0013F4807F02D04FF400732364032004B0A1
:10373C00BDE8F0870023039323685A6903929B69C1
:10374C000393039B424639462046FFF71FFF80B97F
:10375C00B9F1010F18D12368F6B21E614246394601
:10376C002046FFF713FF68B3236C042B24D00120F1
:10377C00DDE7236C042B01D00120D8E72268136805
:10378C0043F400731360F7E72368320A1A61424668
:10379C0039462046FFF7FAFE18B92368F6B21E61C7
:1037AC00DCE7236C042B01D00120C0E722681368EE
:1037BC0043F400731360F7E72268136843F4007353
:1037CC001360D4E72268136843F480731360CDF858
:1037DC0000803B4600224FF001112046FFF7BBFD55
:1037EC0068B922684AF00103136143463A46094915
:1037FC002046FFF705FE002899D0012097E72368A3
:10380C001B6813F4807F02D04FF4007323640320F1
:10381C008DE700BF0200010070B504460D46164648
:10382C0023685B6913F0040F21D12046FFF77AFD62
:10383C00F8B9B5F1FF3FF3D0FFF75AFD801BA84252
:10384C0001D8002DECD123685B6913F0040FE7D18C
:10385C0000232363202284F83D2084F83E30226C20
:10386C0042F02002226484F83C30012000E0002069
:10387C0070BD0120FCE770B504460D46164614E0F9
:10388C006FF010025A6100232363202284F83D203C
:10389C0084F83E30226C226484F83C30012025E010
:1038AC0023685B6913F0400F10D02368586910F03F
:1038BC00400F1AD1586910F0100FE1D1FFF718FD25
:1038CC00801BA842ECD8002DEFD1E9E7002323633D
:1038DC00202284F83D2084F83E30226C42F02002F5
:1038EC00226484F83C30012000E0002070BD000010
:1038FC00002800F0CC8070B5044690F83D30002BC9
:10390C0077D0242384F83D302268136823F0010318
:10391C0013602268136843F4004313602268136831
:10392C0023F40043136000F0ABFF62685A4B9A42D9
:10393C0064D85A4B98428CBF00230123002B40F0D3
:10394C00A8805749A1FB00318B0C25686A6822F0CE
:10395C003F0242EA91426A6021680A6A22F03F0201
:10396C0066684D4DAE424FD8013313430B6221684C
:10397C00CA6922F44F4222F0FF026568464B9D4211
:10398C004CD8431E6D00B3FBF5F3013340F6FC70CD
:10399C00034278D0C3F30B031A43CA6121680B6846
:1039AC0023F0C003E269206A024313430B602168D1
:1039BC008B6823F4034323F0FF032269E06802437E
:1039CC0013438B602168CB6823F0FF036269A06905
:1039DC0002431343CB602268136843F00103136066
:1039EC0000202064202384F83D30206384F83E00BE
:1039FC0070BD80F83C30FFF71BF882E7294B9842EA
:103A0C008CBF0023012399E74FF4967505FB03F354
:103A1C00254DA5FB03539B090133A6E7A668BEB948
:103A2C00431E05EB450CB3FBFCF30133C3F30B0353
:103A3C00B3FA83F35B0943BBC6B9431E05EB4505DB
:103A4C00B3FBF5F30133C3F30B0343F40043A3E7D8
:103A5C00431E05EB850C0CEB8C0CB3FBFCF3013318
:103A6C00C3F30B03B3FA83F35B09E4E7431E05EBE3
:103A7C00850505EB8505B3FBF5F30133C3F30B03A8
:103A8C0043F4404388E7042386E7012384E70120BD
:103A9C0070470120ACE700BFA08601007F841E00A8
:103AAC0083DE1B43FF083D00D34D62102DE9F0432C
:103ABC0085B004460F46914698460C9EFFF718FCBD
:103ACC00054694F83D00C0B2202804D002273846A1
:103ADC0005B0BDE8F0830095192301224F4920461B
:103AEC00FFF739FC002840F0928094F83C30012B11
:103AFC0000F08F80012384F83C3023681A6812F0A0
:103B0C00010F03D11A6842F001021A60226813688F
:103B1C0023F400631360212384F83D30102384F8D0
:103B2C003E3000232364C4F82490A4F82A80638DCB
:103B3C0023853B4BE3622B46324639462046FFF742
:103B4C00CBFC0746002866D10023039323685A69EF
:103B5C0003929B690393039B11E0236C042B01D00C
:103B6C000127B4E72268136843F400731360F7E786
:103B7C002A4631462046FFF74FFE00282ED1238DD2
:103B8C00002B36D02A4631462046FFF7FFFC002892
:103B9C00E3D1626A236812781A61606A431C63621B
:103BAC00618D89B2013989B26185238D013B9BB24C
:103BBC0023852268516911F0040FD9D0002BD7D07E
:103BCC0043781361636A01336362638D9BB2013B7B
:103BDC009BB26385238D013B2385C9E7236C042BA2
:103BEC0001D0012773E72268136843F40073136054
:103BFC00F7E72268136843F400731360202384F8FA
:103C0C003D30002384F83E3084F83C305FE70227D7
:103C1C005DE702275BE7012759E700BF02001000B0
:103C2C000000FFFF2DE9F04383B004460F46904699
:103C3C0099460C9EFFF75CFB054694F83D00C0B21C
:103C4C00202803D0022003B0BDE8F083009519238F
:103C5C0001224B492046FFF77EFB002840F089806B
:103C6C0094F83C30012B00F08680012384F83C3022
:103C7C0023681A6812F0010F03D11A6842F001028E
:103C8C001A602268136823F400631360212384F8FC
:103C9C003D30402384F83E30002323640A9B63624A
:103CAC00BDF82C306385638D2385364BE36201951B
:103CBC0000964B46424639462046FFF797FC0028B3
:103CCC005BD1238D002B35D02A4631462046FFF799
:103CDC005DFC20BB626A236812781A61626A531C0D
:103CEC006362218D013989B22185638D9BB2013BC1
:103CFC009BB263852368586910F0040FE1D000294A
:103D0C00DFD052781A61636A01336362238D013B01
:103D1C002385638D9BB2013B9BB26385D1E7236CFA
:103D2C00042B01D001208EE72268136843F4007342
:103D3C001360F7E72A4631462046FFF76DFD50B178
:103D4C00236C042B01D001207DE72268136843F417
:103D5C0000731360F7E72268136843F40073136071
:103D6C00202384F83D30002384F83E3084F83C3026
:103D7C0069E7022067E7022065E7012063E700BFDF
:103D8C00020010000000FFFF2DE9F04389B004464B
:103D9C000F4690469946129E00230793FFF7A8FA08
:103DAC00054694F83D00C0B2202804D002273846BE
:103DBC0009B0BDE8F0830095192301228149204602
:103DCC00FFF7C9FA002840F07C8194F83C30012BB5
:103DDC0000F07981012384F83C3023681A6812F0D2
:103DEC00010F03D11A6842F001021A6022681368AD
:103DFC0023F400631360222384F83D30402384F8BD
:103E0C003E3000232364109B6362BDF8443063850D
:103E1C00638D23856C4BE362019500964B464246BD
:103E2C0039462046FFF74EFC0746002840F04D81EE
:103E3C00238D5BB9039323685A6903929A690392A1
:103E4C00039A1A6842F400721A60F2E0012B0FD048
:103E5C00022B21D02268136843F480631360002383
:103E6C00069323685A6906929B690693069BE0E0C9
:103E7C002268136823F48063136072B600230493E2
:103E8C0023685A6904929A690492049A1A6842F453
:103E9C0000721A6062B6CCE02268136843F40063C7
:103EAC00136072B60023059323685A6905929A69C8
:103EBC000592059A1A6822F480621A6062B6B8E01C
:103ECC002A4631462046FFF7D6FC002840F0FF80FA
:103EDC0023681A69636A1A70636A01336362238DFB
:103EEC00013B2385638D9BB2013B9BB26385A0E0B4
:103EFC0000953346002235492046FFF72CFA00285E
:103F0C0040F0E9802268136823F48063136072B672
:103F1C0023681A69636A1A70636A01336362238DBA
:103F2C00013B2385638D9BB2013B9BB26385284B80
:103F3C001B68DB08274AA2FB03231B0A03EB830342
:103F4C00C3EBC3030793079B013B0793079B002B12
:103F5C0028D023685A6912F0040FF4D01A6842F47E
:103F6C0000721A6023681A69636A1A70636A0133F3
:103F7C006362238D013B2385638D9BB2013B9BB216
:103F8C00638562B623681A69636A1A70636A0133BF
:103F9C006362238D013B2385638D9BB2013B9BB2F6
:103FAC00638546E02363202284F83D2084F83E306C
:103FBC00226C42F02002226462B684F83C30012765
:103FCC00F5E600BF020010000000FFFF0400010036
:103FDC004801002089B5F8142A4631462046FFF7DF
:103FEC004AFC002879D123681A69636A1A70636ADB
:103FFC0001336362228D013A92B22285638D9BB2AA
:10400C00013B9BB263852368596911F0040F10D0F2
:10401C00032A48D023681A69636A1A70636A0133E9
:10402C006362238D013B2385638D9BB2013B9BB265
:10403C006385238D002B3BD0032BCDD8012B3FF474
:10404C003FAF022B7FF454AF009533460022244936
:10405C002046FFF780F900283BD172B6226813681E
:10406C0043F40073136023681A69636A1A70636AF5
:10407C0001336362238D013B2385638D9BB2013B2E
:10408C009BB2638562B623681A69636A1A70636AA5
:10409C0001336362238D013B2385638D9BB2013B0E
:1040AC009BB26385C5E71A6822F480621A60B1E797
:1040BC00202384F83D30002384F83E3084F83C30D3
:1040CC0075E6022773E6022771E601276FE60127E2
:1040DC006DE601276BE6012769E6012767E600BF5D
:1040EC00040001002DE9F04385B004468846914652
:1040FC001D46FFF7FDF894F83D30DBB2202B03D0C2
:10410C00022005B0BDE8F083064600901923012279
:10411C0057492046FFF71FF9002840F0A08094F87B
:10412C003C30012B00F09D80012384F83C30236847
:10413C001A6812F0010F03D11A6842F001021A60DA
:10414C002268136823F400631360242384F83D3041
:10415C0000272764474BE36240E023681B6813F495
:10416C00807F02D04FF4007323640320C9E7A0239F
:10417C0084F83D3022685369C3F340035269C2F39B
:10418C00802294F83DC05FFA8CFCBCF1A00F09D0E2
:10419C0043B93AB9FFF7ACF8801BA842E7D8002D19
:1041AC00E8D1E4E7202384F83D3023685A6912F003
:1041BC00020F31D11A6842F400721A6023686FF44E
:1041CC0080625A6100961923012229492046FFF783
:1041DC00C2F8002849D101374F4538D222681368FC
:1041EC0043F48073136000962B4600224FF00111AC
:1041FC002046FFF7B0F80028AFD1236808F0FE0284
:10420C001A61FFF775F8064622685369C3F3400339
:10421C005269C2F38022B4E71A6842F400721A6041
:10422C000023039323685A6903929B690393039BAE
:10423C000096192301220E492046FFF78CF890B9FD
:10424C00202384F83D30002384F83C3059E72023A8
:10425C0084F83D30002384F83C30012051E70220E3
:10426C004FE702204DE701204BE7012049E700BF53
:10427C00020010000000FFFF82B0084B1B68084AC8
:10428C00A2FB03235B0A00FB03F3019300BF019B1A
:10429C005A1E0192002BF9D102B070474801002040
:1042AC00D34D6210002800F0F18170B582B0044645
:1042BC00036813F0010F2CD0994B5B6803F00C03CF
:1042CC00042B1DD0964B5B6803F00C03082B12D00B
:1042DC006368B3F5803F41D0002B55D103F1804387
:1042EC0003F504331A6822F480321A601A6822F437
:1042FC0080221A6037E08A4B5B6813F4803FE7D06A
:10430C00874B1B6813F4003F03D06368002B00F04D
:10431C00BF81236813F0020F75D0814B5B6813F0DB
:10432C000C0F5FD07E4B5B6803F00C03082B54D052
:10433C002369002B00F08A807A4B01221A60FEF769
:10434C00D7FF0546764B1B6813F0020F75D1FEF7AD
:10435C00CFFF401B0228F5D903209EE1704A136859
:10436C0043F480331360636843B3FEF7C1FF054623
:10437C006B4B1B6813F4003FCBD1FEF7B9FF401B0E
:10438C006428F5D9032088E1B3F5A02F09D0644B3C
:10439C001A6822F480321A601A6822F480221A6099
:1043AC00E1E703F18043A3F53C331A6842F4802221
:1043BC001A601A6842F480321A60D4E7FEF798FF4C
:1043CC000546574B1B6813F4003FA2D0FEF790FF35
:1043DC00401B6428F5D903205FE1514B5B6813F453
:1043EC00803FA5D14E4B1B6813F0020F03D02369FD
:1043FC00012B40F04F814A4A136823F0F80361699E
:10440C0043EAC1031360236813F0080F33D0A36988
:10441C00002B5CD0434B0122C3F88024FEF768FFCD
:10442C0005463F4B5B6A13F0020F21D1FEF760FF8C
:10443C00401B0228F5D903202FE1394A136823F0D9
:10444C00F803616943EAC1031360DCE7354B0022D2
:10445C001A60FEF74DFF0546314B1B6813F0020F37
:10446C00D1D0FEF745FF401B0228F5D9032014E1FB
:10447C000120FFF701FF236813F0040F00F0968072
:10448C00274BDB6913F0805F34D1254BDA6942F09E
:10449C008052DA61DB6903F080530193019B0125A3
:1044AC00214B1B6813F4807F26D0E368012B3DD091
:1044BC00002B53D103F1804303F504331A6A22F025
:1044CC0001021A621A6A22F004021A6233E0154BD6
:1044DC000022C3F88024FEF70BFF0546104B5B6AE5
:1044EC0013F0020FC7D0FEF703FF401B0228F5D9CB
:1044FC000320D2E00025D3E70B4A136843F4807302
:10450C001360FEF7F5FE0646074B1B6813F4807F1D
:10451C00CBD1FEF7EDFE801B6428F5D90320BCE05F
:10452C000010024000004242007000405F4A136AD3
:10453C0043F001031362E36833B3FEF7D9FE06467A
:10454C005A4B1B6A13F0020F2FD1FEF7D1FE801BC2
:10455C0041F288339842F3D903209EE0052B09D011
:10456C00524B1A6A22F001021A621A6A22F00402F1
:10457C001A62E0E74D4B1A6A42F004021A621A6A98
:10458C0042F001021A62D6E7FEF7B2FE0646474B2E
:10459C001B6A13F0020F08D0FEF7AAFE801B41F233
:1045AC0088339842F3D9032077E0E5B9E369002B0F
:1045BC0072D03E4A526802F00C02082A56D0022BE6
:1045CC0017D03B4B00221A66FEF792FE0446374B7F
:1045DC001B6813F0007F47D0FEF78AFE001B0228F1
:1045EC00F5D9032059E0314AD36923F08053D361C4
:1045FC00DCE72F4B00221A66FEF77AFE05462B4BA2
:10460C001B6813F0007F06D0FEF772FE401B0228D9
:10461C00F5D9032041E0236AB3F5803F1AD0234932
:10462C004B6823F47413226A606A024313434B6091
:10463C001F4B01221A66FEF75BFE04461B4B1B68E0
:10464C0013F0007F0ED1FEF753FE001B0228F5D9A4
:10465C00032022E0154A536823F40033A1680B436E
:10466C005360DCE7002018E0002016E0012B16D088
:10467C000E4B5B6803F48031226A914211D103F432
:10468C007013626A93420ED1002006E0012070473D
:10469C00012002E0012000E0002002B070BD0120EA
:1046AC00FBE70120F9E70120F7E700BF001002400B
:1046BC00000042420F4B5B6803F00C02082A01D049
:1046CC000D487047C3F383420C49885C13F4803F58
:1046DC000BD0084B5B68C3F34043094AD35C064AD2
:1046EC0002FB00F0B0FBF3F07047064B03FB00F04D
:1046FC00704700BF0010024000127A00A85D00084D
:10470C00A45D000800093D00002800F0A08070B5F1
:10471C000D460446524B1B6803F007038B420BD229
:10472C004F4A136823F007030B431360136803F01D
:10473C0007038B4240F08D80236813F0020F17D0D3
:10474C0013F0040F04D0474A536843F4E0635360FA
:10475C00236813F0080F04D0424A536843F46053A3
:10476C005360404A536823F0F003A1680B43536035
:10477C00236813F0010F31D06368012B20D0022B7A
:10478C0025D0384A126812F0020F64D035494A68B5
:10479C0022F0030213434B60FEF7AAFD0646314B91
:1047AC005B6803F00C036268B3EB820F16D0FEF764
:1047BC009FFD801B41F288339842F0D9032045E0DD
:1047CC00284A126812F4003FE0D101203EE0254A4D
:1047DC00126812F0007FD9D1012037E0204B1B6802
:1047EC0003F00703AB420AD91D4A136823F00703F1
:1047FC002B431360136803F00703AB422DD12368DE
:10480C0013F0040F06D0174A536823F4E063E168F1
:10481C000B435360236813F0080F07D0114A5368F9
:10482C0023F46053216943EAC1035360FFF742FF4D
:10483C000C4B5B68C3F303130B4AD35CD8400B4B94
:10484C0018600B4B1868FEF70FFD002070BD01209F
:10485C0070470120FAE70120F8E70120F6E700BFD6
:10486C000020024000100240D45D000848010020E6
:10487C0044010020014B1868704700BF480100201C
:10488C0008B5FFF7F7FF044B5B68C3F30223034A39
:10489C00D35CD84008BD00BF00100240CC5D0008BE
:1048AC0008B5FFF7E7FF044B5B68C3F3C223034A69
:1048BC00D35CD84008BD00BF00100240CC5D00089E
:1048CC0008B502284ED0102803D0012828D000208B
:1048DC0052E02B4B5A68186810F080704CD0C2F321
:1048EC0083432849C85C12F4803F15D0244B5B6885
:1048FC00C3F34043244AD25C244BB3FBF2F303FBD7
:10490C0000F01F4B5B6813F4800F35D14000204B37
:10491C00A3FB003040082FE01E4B03FB00F0F0E738
:10492C00174B1B6A40F202321A40B2F5817F24D039
:10493C0003F44073B3F5007F04D0B3F5407F09D086
:10494C00002019E00E4A526A12F0020FF5D049F617
:10495C00404011E00A4B186810F400300CD04FF2B4
:10496C00244009E0FFF79CFF054B5B68C3F38133E0
:10497C0001335B00B0FBF3F008BD4FF40040FBE7E4
:10498C0000100240BC5D0008B85D000800127A00FF
:10499C00ABAAAAAA00093D0070B582B00024A446B7
:1049AC00A1E07E4DAB4214D00CD8A5F58015AB42DE
:1049BC000FD005F57025AB420BD0A5F58015AB4299
:1049CC0010D106E0764DAB4203D005F58035AB42F5
:1049DC0008D18B68002B50D0012B49D042610824A0
:1049EC0000E0CC68BEF1FF0F49D806464FEA8C02B6
:1049FC0033680F25954023EA050304FA02F21343AA
:104A0C0033604B6813F0805F6BD0664B9A6942F051
:104A1C0001029A619B6903F001030193019B4FEA28
:104A2C009C02951C604B53F825600CF00305AD00FF
:104A3C000F23AB4026EA03065C4B984226D003F5C5
:104A4C008063984200F08C8003F58063984200F0FC
:104A5C00898003F58063984216D0042317E0CC6854
:104A6C000434BFE7CC680834BCE7CC680C34B9E735
:104A7C0002610824B6E70024B4E70424B2E7061D5B
:104A8C00ACF108029200B3E7032300E00023AB4033
:104A9C0033430232444D45F822304B6813F4801FE7
:104AAC0062D0434A936843EA0E0393604B6813F455
:104ABC00001F5FD03E4AD36843EA0E03D3604B68B5
:104ACC0013F4003F5CD03A4A536843EA0E03536038
:104ADC004B6813F4803F59D0354A136843EA0E03F0
:104AEC0013600CF1010C0B6833FA0CF254D0012258
:104AFC0002FA0CF203EA020E32EA0303F1D14B681C
:104B0C00122B3FF64EAF122B3FF66CAF01A555F8AA
:104B1C0023F000BFDF490008EF490008714A000884
:104B2C00834A0008F1490008F1490008F1490008DE
:104B3C00F1490008F1490008F1490008F149000861
:104B4C00F1490008F1490008F1490008F149000851
:104B5C00F1490008F14900086B4A0008774A00083F
:104B6C00012394E7022392E7114A936823EA0E0388
:104B7C0093609BE70E4AD36823EA0E03D3609EE74B
:104B8C000B4A536823EA0E035360A1E7084A1368E3
:104B9C0023EA0E031360A4E702B070BD00002210DC
:104BAC0000003110001002400000014000080140DC
:104BBC00000401408368194201D001207047002095
:104BCC0070470AB101617047090401617047000028
:104BDC0030B4026A036A23F00103036245688369F7
:104BEC0023F073030C681C4322F002028B681343FE
:104BFC000B4A904206D0456084614A684263036266
:104C0C0030BC704723F00803CA681A4322F004032F
:104C1C0025F440754A692A438D691543EBE700BFBB
:104C2C00002C014030B4036A026A22F480720262E2
:104C3C004468C26922F073020D68154323F40073B3
:104C4C008A6843EA02230D4A904206D04460C5614B
:104C5C004A68C263036230BC704723F40063CA68BD
:104C6C0043EA022323F4806324F440544A6944EA5F
:104C7C0002148A6944EA0214E8E700BF002C0140E0
:104C8C0030B4036A026A22F4805202624468C26938
:104C9C0022F4E6420D6842EA052223F400538D68A3
:104CAC0043EA0533074DA84206D04460C2614A6806
:104CBC000264036230BC704724F480444D6944EABA
:104CCC008514F2E7002C014090F83D30DBB2012B4B
:104CDC0027D1022380F83D300268D36843F00103EA
:104CEC00D3600368114A934210D0B3F1804F0DD0BA
:104CFC00A2F59432934209D002F58062934205D01A
:104D0C001A6842F001021A60002070479A6802F09B
:104D1C000702062A07D01A6842F001021A60002026
:104D2C007047012070470020704700BF002C0140E5
:104D3C0003681F4A90420AD0B0F1804F07D0A2F509
:104D4C009432904203D002F58062904203D123F05A
:104D5C0070034A681343164A90420AD0B0F1804F50
:104D6C0007D0A2F59432904203D002F580629042B3
:104D7C0003D123F44073CA68134323F080034A69B8
:104D8C00134303608B68C3620B688362084B9842C1
:104D9C000AD001234361036913F0010F03D00369A7
:104DAC0023F00103036170470B690363F1E700BF54
:104DBC00002C014040B310B5044690F83D30F3B1DF
:104DCC00022384F83D30214651F8040BFFF7B0FF65
:104DDC00012384F8463084F83E3084F83F3084F860
:104DEC00403084F8413084F8423084F8433084F801
:104DFC00443084F8453084F83D30002010BD80F8F4
:104E0C003C30FDF759F9DBE70120704740B310B592
:104E1C00044690F83D30F3B1022384F83D3021462E
:104E2C0051F8040BFFF784FF012384F8463084F813
:104E3C003E3084F83F3084F8403084F8413084F8B8
:104E4C00423084F8433084F8443084F8453084F898
:104E5C003D30002010BD80F83C30FDF74DFFDBE706
:104E6C0001207047002856D070B50D46044690F8C6
:104E7C003D30002B4AD0022384F83D3022689368E1
:104E8C0023F4804323F007039360214651F8040B6D
:104E9C00FFF74EFF21688B688A690E6A28681843F1
:104EAC0022F4407222F00302AB68D5F818C043EA32
:104EBC000C23134323F47C4323F0FC03EA68D5F85A
:104ECC001CC042EA0C221A432B6A1B03D5F810C0F3
:104EDC0043EA0C13134326F022066A686D6942EA12
:104EEC0005123243886021688B6123681A620123A2
:104EFC0084F8463084F83E3084F83F3084F84230F1
:104F0C0084F8433084F83D30002070BD80F83C308C
:104F1C00FDF750FCAFE701207047000030B4036A86
:104F2C00026A22F0100202624468826922F4E642AC
:104F3C000D6842EA052223F020038D6843EA05132D
:104F4C000C4DA84206D0446082614A6882630362B9
:104F5C0030BC704723F08003CD6843EA051323F07F
:104F6C00400324F440644D6944EA85048D6944EAA5
:104F7C008504E8E7002C014038B590F83C30012B53
:104F8C0066D004460D46012380F83C300C2A5AD8D2
:104F9C00DFE802F0075959591B59595930595959D9
:104FAC0044000068FFF714FE2268936943F008037D
:104FBC0093612268936923F00403936122689369D7
:104FCC0029690B43936100203EE00068FFF7A6FFC0
:104FDC002268936943F4006393612268936923F414
:104FEC008063936122689369296943EA0123936181
:104FFC00002029E00068FFF715FE2268D36943F012
:10500C000803D3612268D36923F00403D3612268B7
:10501C00D36929690B43D361002015E00068FFF7C1
:10502C002FFE2268D36943F40063D3612268D369ED
:10503C0023F48063D3612268D369296943EA01238D
:10504C00D361002000E00120002384F83C3038BDFF
:10505C000220FCE701F01F014FF0010C0CFA01FCDF
:10506C00036A23EA0C030362036A8A401343036254
:10507C007047000010B50446084651BB94F83E300A
:10508C00DBB2013B18BF0123002B5BD1002839D1C7
:10509C00022384F83E30012201462068FFF7DAFF34
:1050AC0023682A4A93423DD02368284A93423ED033
:1050BC00B3F1804F3BD0A2F59432934237D002F536
:1050CC008062934233D01A6842F001021A600020C9
:1050DC0039E0042908D008290DD094F84130DBB20E
:1050EC00013B18BF0123CFE794F83F30DBB2013B03
:1050FC0018BF0123C8E794F84030DBB2013B18BF5E
:10510C000123C1E7042805D0082807D0022384F81E
:10511C004130C0E7022384F83F30BCE7022384F817
:10512C004030B8E75A6C42F400425A64BCE79A68C3
:10513C0002F00702062A07D01A6842F001021A6030
:10514C00002000E0012010BD0020FCE7002C0140F5
:10515C0038B5044690F83E00C0B294F83F3094F84D
:10516C004220D2B294F843C00D46B1B9012849D1BE
:10517C00012A48D1022384F83E3084F842307DB3B2
:10518C00042D39D0012200212068FFF763FF012292
:10519C0004212068FFF75EFF27E0DBB25FFA8CFC8E
:1051AC00042912D0012833D1012B2CD1012A31D161
:1051BC00BCF1010F30D1022384F83E3084F83F302B
:1051CC0084F8423084F84330D9E7012B1CD1BCF170
:1051DC00010F1BD1022384F83F3084F84330CEE713
:1051EC00012200212068FFF735FF2268136843F085
:1051FC0001031360002006E0012204212068FFF760
:10520C0029FFF2E7012038BD0120FCE71846FAE738
:10521C000120F8E71846F6E71046F4E790F83C2032
:10522C00012A2CD010B40346012280F83C20022223
:10523C0080F83D2002685068946820F0700C086873
:10524C0040EA0C0050601A680E4882420AD0B2F153
:10525C00804F07D0A0F59430824203D000F58060D7
:10526C00824204D124F080044968214391600122D8
:10527C0083F83D20002083F83C0010BC70470220CE
:10528C00704700BF002C0140002808DB0901C9B29F
:10529C0000F1604000F5614080F80013704700F0A9
:1052AC000F000901C9B2014B1954704714ED00E00D
:1052BC0000B500F00700C0F1070CBCF1040F28BFCB
:1052CC004FF0040C031D062B0FD9C31E4FF0FF3EED
:1052DC000EFA0CF021EA000199400EFA03FE22EAC4
:1052EC000E0241EA02005DF804FB0023EEE7000029
:1052FC00074AD36823F4E0631B041B0C000200F480
:10530C00E060034343F0BF6343F40033D360704762
:10531C0000ED00E010B50446054BD868C0F3022040
:10532C00FFF7C6FF01462046FFF7AEFF10BD00BFDA
:10533C0000ED00E0002807DB00F01F02400901230C
:10534C009340024A42F82030704700BF00E100E071
:10535C000138B0F1807F0BD24FF0E0235861054A41
:10536C00F02182F823100020986107221A617047FF
:10537C000120704700ED00E0F0B583B005460C4607
:10538C0000230193FDF7B4FF2B689A6812F4807F19
:10539C0023D107465A6812F4807F03D1DB6A13F4D9
:1053AC00700F29D0504B1E680220FFF789FAB6FB0C
:1053BC00F0F62B6819694D4A114236D1D96802F1C1
:1053CC005C42114231D11969494A114240D1DA6823
:1053DC00484B1A423ED0292341E0AB6A43F02003EC
:1053EC00AB62002385F82430012003B0F0BD2B689C
:1053FC001B6813F0020F0FD02B681B6813F0020F01
:10540C004FD1B4F1FF3FF7D0002CF0D0FDF770FF77
:10541C00C31BA342F0D9EAE7AB6A43F00403AB62C7
:10542C00002385F824300320DFE71969304A114244
:10543C0004D1D96802F16E4211420DD019692E4A7D
:10544C000A405AB9DA682C4B13405BB1FC2306E0D6
:10545C00292304E0142302E0542300E0FC2303FB83
:10546C0006F607E05423FAE7019BB34210D3019BE5
:10547C0001330193019BB34213D2B4F1FF3FF6D039
:10548C00002CF1D0FDF734FFC01BA042EFD9EBE7A5
:10549C00AB6A43F00403AB62002385F8243003208D
:1054AC00A3E72B686FF012021A60AB6A43F4007327
:1054BC00AB622B689B6803F46023B3F5602F01D0BB
:1054CC00002092E7287B60B9AB6A23F48073AB624F
:1054DC00AB6A13F4805F88D1AB6A43F00103AB6213
:1054EC0083E7002081E700BF480100202449922473
:1054FC009224491292244900499224000368D86CE2
:10550C007047000030B482B00022019290F8242041
:10551C00012A00F08F800346012280F824204A687B
:10552C00062A2DD80468606B02EB8202053A4FF014
:10553C001F0C0CFA02FC20EA0C000D6805FA02F2B2
:10554C00024362630A68092A38D91C68E06802EBD6
:10555C0042021E3A4FF0070C0CFA02FC20EA0C0037
:10556C008D6805FA02F20243E2600A68103A012AD9
:10557C0034D90020002283F8242002B030BC7047BC
:10558C000C2A0DD80568286B02EB8202233A1F24E3
:10559C00944020EA04000C68944020432863D1E72F
:1055AC000568E86A02EB8202413A1F24944020EA23
:1055BC0004000C6894402043E862C3E71C6820692F
:1055CC0002EB42024FF0070C0CFA02FC20EA0C0032
:1055DC008D6805FA02F202432261C6E71A68164882
:1055EC00824205D09A6A42F020029A620120C1E7F9
:1055FC00906810F4000F1BD1906840F4000090608C
:10560C000A68102A01D00020B4E70C4A12680C4931
:10561C00A1FB0212920C02EB82025200019202E0F8
:10562C00019A013A0192019A002AF9D10020A1E7CE
:10563C0000209FE70220A0E7002401404801002041
:10564C0083DE1B4330B583B00023019303689A6853
:10565C0012F0010F33D104469A6842F001029A60AD
:10566C00184B1B68184AA2FB03239B0C019302E006
:10567C00019B013B0193019B002BF9D1FDF738FEF7
:10568C00054623689B6813F0010F16D1FDF730FE19
:10569C00431B022BF5D923689B6813F0010FF0D143
:1056AC00A36A43F01003A362E36A43F00103E362CD
:1056BC00002384F82430012002E0002000E00020C8
:1056CC0003B030BD4801002083DE1B4390F824302A
:1056DC00012B68D010B50446012380F82430FFF765
:1056EC00B1FF00285BD1A36A23F4407323F00103BC
:1056FC0043F48073A36223682C4A934227D0A26A96
:10570C0022F48012A2625A6812F4806F05D0A26A49
:10571C0022F4405242F48052A262A26A12F4805FD8
:10572C002BD0E26A22F00602E262002284F82420E6
:10573C006FF002021A6023689A6802F46022B2F5D4
:10574C00602F1DD09A6842F480129A602AE0A2F56C
:10575C008062526812F4702FD1D0A26A42F4801287
:10576C00A262134A526812F4806FD6D0A26A22F455
:10577C00405242F48052A262CFE70022E262D4E7A8
:10578C000A4A934204D09A6842F4A0029A6009E053
:10579C00A2F58062526812F4702FD3D1F3E7002384
:1057AC0084F8243010BD0220704700BF002801404F
:1057BC000024014038B503689A6812F0010F01D13A
:1057CC00002038BD04469A6822F001029A60FDF769
:1057DC008FFD054623689B6813F0010F13D0FDF76E
:1057EC0087FD431B022BF5D923689B6813F0010F2F
:1057FC00F0D0A36A43F01003A362E36A43F0010301
:10580C00E3620120DDE70020DBE7000000287BD00D
:10581C0070B50446836A002B4DD02046FFF7CAFFB3
:10582C00A36A13F0100369D1002867D1A26A22F48D
:10583C00885222F0020242F00202A2626268E1691E
:10584C000A43217B42EA4102A568B5F5807F02D06C
:10585C00012D36D01D46267D012E35D02668716867
:10586C0021F46941294371602568AE6827493140AC
:10587C001143A960A168B1F5807F01D0012902D143
:10588C002369013B1B052568E96A21F470010B4370
:10589C00EB62236899681E4B0B409A4225D0A36A91
:1058AC0023F0120343F01003A362E36A43F00103F5
:1058BC00E362012027E0C36280F82430FDF73EF854
:1058CC00ABE74FF48075C6E731B9A169013945EAF8
:1058DC00413141F40065C1E7A16A41F02001A162A8
:1058EC00E16A41F00101E162B8E70023E362A36AD7
:1058FC0023F0030343F00103A36204E0A36A43F023
:10590C001003A362012070BD01207047FDF7E1FF79
:10591C00FE0E1FFF90F82430012B13D010B5044657
:10592C00012380F82430FFF745FF38B9A36A23F42C
:10593C00885323F0010343F00103A362002384F88E
:10594C00243010BD0220704770B582B00023019343
:10595C0090F82430012B72D00446012380F82430B7
:10596C00FFF728FF2046FFF76DFE054628B1002300
:10597C0084F82430284602B070BDA36A23F48853FF
:10598C0023F0020343F00203A3622E4B1E68022095
:10599C00FEF796FFB6FBF0F67600019602E0019B4F
:1059AC00013B0193019B002BF9D12268936843F0D2
:1059BC0008039360FDF79CFC064623689A6812F076
:1059CC00080F14D0FDF794FC801B0A28F5D9236826
:1059DC009B6813F0080FF0D0A36A23F0120343F076
:1059EC001003A362002384F824300125C2E79A68CF
:1059FC0042F004029A60FDF77BFC064623689B6824
:105A0C0013F0040F14D0FDF773FC801B0A28F5D992
:105A1C0023689B6813F0040FF0D0A36A23F01203E1
:105A2C0043F01003A362002384F824300125A1E77E
:105A3C00A36A23F0030343F00103A36297E7022553
:105A4C0098E700BF480100207047000010B50346DE
:105A5C000C4A0D490D48006840B10C4800680344DD
:105A6C00521A934206D8094A136010BD0748084CD5
:105A7C000460F2E7FAF71AFC0C2303604FF0FF30D6
:105A8C00F3E700BF0050002000040000480900208C
:105A9C0050090020FFF7D8FF0B480C490C4A002393
:105AAC0002E0D458C4500433C4188C42F9D3094AC8
:105ABC00094C002301E013600432A242FBD3FAF735
:105ACC00FBFBFBF793FF7047000000204C0100200C
