:020000040800F2
:10000000005000208DA80008597F00085B7F000881
:100010005D7F00085F7F0008617F0008000000002E
:10002000000000000000000000000000637F0008E6
:10003000657F000800000000677F0008697F0008F6
:10004000D5A80008D5A80008D5A80008D5A800089C
:10005000D5A80008D5A80008D5A80008D5A800088C
:10006000D5A80008D5A80008D5A80008D5A800087C
:10007000D5A80008D5A80008D5A80008D5A800086C
:10008000D5A80008D5A80008D5A80008D5A800085C
:10009000D5A80008D5A80008D5A80008D5A800084C
:1000A000D5A80008D5A80008D5A80008D5A800083C
:1000B000D5A80008D5A80008C9640008D5A800087C
:1000C000D5A80008D5A80008D5A80008D5A800081C
:1000D000D5A80008717F0008D5A80008D5A8000899
:1000E000D5A80008D5A80008D5A800080000000081
:1000F0000000000000000000000000000000000000
:0C01000000000000000000005FF808F1A3
:100110002DE9F04F9FB0884607920021002200246D
:10012000CDE90412834641461A9419910F4611F8FD
:10013000012B2D2A5ED801A050F822F013030008ED
:10014000F5010008F5010008F5010008F5010008B7
:10015000F5010008F5010008F5010008F5010008A7
:100160002B0100082B0100082B0100082B010008BF
:100170002B010008F5010008F5010008F501000851
:10018000F5010008F5010008F5010008F501000877
:10019000F5010008F5010008F5010008F501000867
:1001A000F5010008F5010008F5010008F501000857
:1001B000F5010008F5010008F50100082B01000811
:1001C000F5010008F5010008F5010008F501000837
:1001D000F5010008F5010008F5010008F501000827
:1001E000F5010008F501000895080008F501000870
:1001F000A908000800210891302A00F0958000230A
:1002000009932F2A144640F2EF844FF00009384634
:100210004E464D4613E00130082D1990C8BF09EB3A
:1002200089090478C6BF02EB4902A2F13009A3F1A3
:1002300030062F2C224605F1010540F3B48006EB71
:100240008603392C02EB4303E5DD0122AB4901F0C3
:1002500011FB002879D1199A1346013219925C7862
:10026000002D40F08D85302C40F03B85134618461C
:10027000013319931C78302CF9D0C2F101021044DB
:10028000A4F13103082B37D8199F012539464FF0C7
:10029000000A431CA4F1300E0C93002006EB8606E6
:1002A0000EEB46064B1C19934C78A4F13002092A38
:1002B00000F2E082964619990130002AF2D0012816
:1002C000D8BF05F1010C40F3878400EB050C0CF15D
:1002D000FF340A9703E07E00AC4200F07C84082DD6
:1002E00006EB860705F10105F5DD102DDCBF09EBF6
:1002F00089094FEA4909EFE7652C40F0D8824FF0B1
:10030000000A0123CDF830A00A93099B034340F073
:10031000BF82079B002600270BB1C3F80080304640
:1003200039461FB0BDE8F08F7A7802F0DF02582A14
:1003300000F01284013719973A78302AFAD0002A4F
:1003400000F08182012309935BE70020AA460C900C
:100350000A90652C34D0452C32D000231093002D08
:100360007AD1099B034340F06E820A9B002BD0D1C7
:10037000692C00F0898400F35F84492C00F08484A8
:100380004E2CC6D15E4919A802F068F80028C0D0EA
:10039000199B1B78282B00F0A5855A4801F0D0FC4A
:1003A00006460F4651E20122544901F063FA002843
:1003B000CBD1199BAA465A1C19925C780C9074E711
:1003C000002DA2D0DDF8648008F10103199398F89C
:1003D00001402B2C00F059822D2C00F04E824FF062
:1003E000000CA4F13001092900F23F82302C199B46
:1003F0000AD1013319931C78302CFAD0A4F13102C0
:10040000082AAAD8A4F130015A1C19925C782F2C22
:1004100040F3FE8396460B9308E0013219929EF852
:100420000140A3F130012F2C06DD964601EB81033C
:10043000392C04EB4303F0DD0B9BD21A082A40F35E
:10044000E78344F61F631093BCF1000F87D0109B25
:100450005B421093002D84D00C9A109BBAF1000FD0
:1004600008BFAA469B1A102D30460B932C46A8BFF6
:10047000102404F013FE02460B46092DCDE9042397
:1004800016DD214B03EBC40353E9122304F080FE75
:10049000024648469046894604F000FE02460B4656
:1004A0004046494604F0BEFC0F2DCDE904012DDC89
:1004B0000B9B002B00F020830B9B40F35282162BEA
:1004C00040F3AD830B9AC5F1250393421EDBDDE9B2
:1004D00004230D4CC5F10F0504EBC501D1E9000162
:1004E00004F056FE0B9B5D1B04EBC504D4E900230E
:1004F00004F04EFE06460F46A7E100BF48AE0008D6
:1005000058AE000858AF0008B8AA00080B9B2C1B77
:100510001C44002C40F3D18114F00F000AD0DDE917
:100520000423354901EBC001D1E9000104F030FE9C
:10053000CDE9040134F00F0340D0B3F59A7F00F306
:10054000B883102B4FEA231440F31E85DDE9040124
:1005500000232A4A0997904699461746E20704D590
:10056000D8E9002304F014FE01236410012C09F1E2
:10057000010908F10808F1D13A46099F0BB1CDE90C
:100580000401059B02EBC901A3F154730593DDE956
:100590000423D1E9000104F0FBFD194B194A0B407B
:1005A0009342CDE9040100F28483174A934240F25A
:1005B00041844FF0FF33154CCDE9043400230A93F6
:1005C0002B46524639465846009602F0CDF9149013
:1005D000002800F06E83109A0C9B4FF0000A9B1AC3
:1005E0000B9ACDF824A0002AA8BF0023109322EA7A
:1005F000E2731593E5E000BFB8AA0008A8AB0008B5
:100600000000F07F0000A07C0000907CFFFFEF7FE7
:10061000D21A1F2AA4EB020400F332820123934072
:100620001E4600250A9BA0444C44A14598444B46D5
:10063000A8BF23464345A8BF4346002B04DDE41A68
:10064000A8EB0308A9EB0309109B002B00F3BE8164
:10065000002C00F3D4810B9B002B00F30782B8F130
:10066000000F00F3F781B9F1000F08DD51464A464B
:10067000584602F059FB8246002800F0F4813A46C1
:1006800058461A9902F0E4FB0990002800F0EB812B
:100690000023099AD168D3601191514602F0B8FB4A
:1006A0000028C0F2EA83DDF8149000F0768351460A
:1006B000099802F069FD00224FF0804304460D4680
:1006C00004F0E2FF002800F07181119B002B40F044
:1006D000E381049B002B40F06B82C9F31303002BD2
:1006E00040F00D82002220462946A94B04F0C2FFAB
:1006F000002840F049832046A64B2946002204F0FA
:1007000047FD03460C46CDE9123401F100430E903B
:100710000F93DFF88482A14B09EA08089845DDE9C8
:100720000E4500F0C0810A9B1BB3B8F1D46F20D8EE
:1007300095A3D3E90023DDE9120104F0A5FFA0B1E0
:10074000DDE9120104F0D4FF012838BF012004F0D4
:10075000A5FC119BCDE91201002B40F0BD8201F1F7
:10076000004316901793DDE9164505F1D663A3EB18
:100770000805DDE90C0102F027FC02460B46204685
:10078000294604F005FDDDE90C2304F04BFB0C4683
:10079000CDE904010A9B23B97F4B2340984500F023
:1007A000B78158461A9902F06DF83946584602F05A
:1007B00069F85146584602F065F85846099902F022
:1007C00061F8149C5846616802F01CF8074600283E
:1007D00000F04981226904F10C01023292000C30D0
:1007E00001F038FA1CAB01931BAB00935846DDE9CE
:1007F00004341A46CDE90C34234602F067FC1A9003
:10080000002800F005810121584602F055F9824682
:10081000002800F028811B9B002BC0F21581109A44
:10082000DDF8548003EB02090A9A1C9C9B1A2344AE
:100830005B4A013B9342C4F13604FFF6E9AE012363
:1008400000251E46EEE600260027079A0AB1199BEE
:100850001360089B002B3FF462AD07F100431F4675
:10086000304639461FB0BDE8F08F0023CDF86480D4
:10087000109374E501230A936BE54FF0010C08F126
:100880000203199398F80240ABE54FF0000CF6E72D
:10089000002597E500220892791C19917A78002AA0
:1008A0003FF437AD0F46A7E401220892F4E7452C48
:1008B0003FF425AD01230A9353E53FF47FAE644234
:1008C00014F00F020AD0DDE90401364B03EBC2033A
:1008D000D3E9002304F086FDCDE9040124113FF49F
:1008E0006DAE1F2C37DCDDE9040114F0100318BFD6
:1008F0006A230A930023DFF8B080E20704D5D8E921
:10090000002304F045FC0123641008F10808F4D129
:100910000BB1CDE904010A9BA3B1DDE90401C1F3E8
:100920000A52C2F16B03002B0ADD1F2B40F33983FF
:100930000020342B049040F37C834FF05C730593CC
:100940006A230A930022DDE90401002304F088FEF3
:1009500000283FF435AE222300260027CBF80030D4
:1009600073E71633FFF6D2ADDDE904010C9B109A54
:100970009A1A0C4B03EBC203D3E9002304F032FDB7
:1009800006460F4661E700BF0000C0FFFFFFDF41E2
:100990000000F03F0000E03F0000F07F0000E07F3B
:1009A00002FCFFFFB8AA000880A90008AC4B204653
:1009B0002946002204F0ECFB119BCDE91201002B2B
:1009C00065D101F100430E900F93A2E651461A46FD
:1009D000584602F039F98246002844D001461A9A56
:1009E000584602F07FF800283DD011901A995846D9
:1009F00001F048FF119B002C1A937FF72CAE224682
:100A000058461A9902F090F91A9000287FF423AE04
:100A1000B946054622230026924FCBF800302946DE
:100A2000584601F02FFF4946584601F02BFF51462A
:100A3000584601F027FF5846149901F023FF584605
:100A4000099901F01FFF00E7159ADDF84090A2EB2D
:100A50000308E9E639464246584602F065F907467A
:100A600000287FF400AEB9461A9DD3E739465846B0
:100A7000159A02F0E9F8074600287FF4F0ADF2E796
:100A8000012279491646CB1A02FA03F5CAE5DDE9D7
:100A90001234CDE90E343CE60023744CCDE90E341B
:100AA000CDE9123435E6A9F154730593DDE9044527
:100AB0002046294602F088FADDE90E2304F068FB9F
:100AC0002B46224604F0AEF9DFF89891684B01EA14
:100AD00009099945CDE9040179D9DDE90C0103F152
:100AE0005473994202D106460136BCD04FF0FF3311
:100AF000604CCDE9043454E6DDE90467A5E6002343
:100B00005D4CCDE90E340023584CCDE9123400E69B
:100B1000DDE912562846314609F0DDFE04F00AFBF5
:100B20000B4602463146284604F07AF9119D049B93
:100B3000C4F313041D432C438046894626D142A3A7
:100B4000D3E9002304F096FD00283FF42AAEB9460D
:100B5000DDE904671A9D62E70293089B58460193FA
:100B60001AAB0093454A1BAB19A901F0A3F910F089
:100B70000F0504463FF467AE062D40F0B580002215
:100B80007B1C00260027089219935EE630A3D3E968
:100B9000002304F06FFD0028D9D12FA3D3E900234F
:100BA0004046494604F084FD00283FF4FAADCEE704
:100BB000049B012BA3D1B9F1000FA0D1B9461A9C17
:100BC0002223254600260027CBF8003027E701F135
:100BD00054740594DEE50A9F0C9B082D03440C9386
:100BE0006DDC6546FFF759BB01223846244900F009
:100BF00041FE002800F0BB804FF000094E464846F9
:100C00004D46CA46CDF83090CDF82890FFF7A3BBEB
:100C100044F61F639942A8BF1946109114E40B983B
:100C20001849DDE9042301EBC001D1E9000104F01A
:100C3000AFFA06460F4608E66E2C3FF4A3ABFFF76B
:100C400068BB00BFAFF300809535A094FFFFCF3F96
:100C50009535A094FFFFDF3F35E5AF350000E03F5D
:100C60000000E03F0000F07FE2FBFFFF0000F03FEC
:100C7000FFFF9F7CFFFFEF7F0000F0BF58A9000837
:100C800048AE0008B8AA0008A04919A801F0E6FB80
:100C900000283FF43EAB199B9D49013B19A81993CD
:100CA00001F0DCFB10B9199B013319930026994F11
:100CB000CBE522230026974FCBF80030C5E5BCF1E9
:100CC000100FD8BF09EB890965464FF00000D8BF67
:100CD00002EB4909FFF7E6BADDE91234CDE9163433
:100CE00041E50020FFF7CCBA1A9A3AB135211CA889
:100CF00002F094FA58461A9901F0C4FD013D1B9B7D
:100D0000042D00F2C481DFE805F0032C291E030046
:100D10001C9A049203F233421D9B23F4801343EA8E
:100D200002530593E10502D543F000430593794A48
:100D3000DDE904671A40002A7FF487AD00F06AFEFF
:100D40002223036081E54FF0FF326FF00043CDE9CD
:100D50000423E3057FF5D0AE059BE5E76D4B0593D6
:100D6000F7E7DDE91C121D9BCDE90412DAE7199AB9
:100D7000064613460132199281465C78FFF773BA32
:100D8000AA460C90FFF791BA0023634CCDE90E34CC
:100D90000023624CCDE91234BBE44B461198B446B3
:100DA000B946DDE90C67AE465D49C3F3130200287E
:100DB00045D08A4200F0FD80ADBB049A1CEA020FC8
:100DC00034D030463946049302F0FEF80A9B002BDB
:100DD00000F03781049BC3F30A53C3F16B03002B6C
:100DE00040F352811C0504F17F53002203F54013A8
:100DF00004F0CEF902460B463046394604F012F8AC
:100E000006460F4630463946464B002204F0C0F9EC
:100E1000404B06460B400F46002B7FF49BAE22232F
:100E2000CBF8003096E61EEA030FCAD10A9B002BCE
:100E3000E8D18FE601F154730593FFF7BFBB002A99
:100E400074D1DDE904452246002C40F0A2800A9AC4
:100E5000002A40F0CB8025F00044240D2405A4F5A1
:100E600080146FEA14536FEA035305934FF0FF3376
:100E700004931A9DDDE90467D1E5119BDDE90401C6
:100E80000343B946DDE90C67D0D1C1F31303002B4E
:100E9000CCD121F00044240D2405B4F1D66F2546B1
:100EA000C4D9099A536913B91369012BBEDD012214
:100EB0000999584601F038FF5146099001F0A8FF02
:100EC0000028B3DD0A9B002BC9D0A5F580136FEA7B
:100ED00013536FEA035305934FF0FF330493DDE997
:100EE00004678FE7104919A81CAA01F0D1FA052858
:100EF0007FF453AA1D9B43F0FF4343F4E0030593A3
:100F00001C9B0493DDE904679FE400BF4CAE00081E
:100F100050AE00080000F07F0000E0BF0000E03F9E
:100F2000FFFF0F00000050396CA90008A5BB049A10
:100F30001CEA020F3FF47AAF30463946049302F0C0
:100F400043F80A9B002B62D0049BC3F30A53C3F1FE
:100F50006B03002B40F38C801C0504F17F530022AF
:100F600003F5401304F014F902460B4630463946A7
:100F700003F056FF0022002306460F4604F070FBE4
:100F800000283FF43FAF1AE64FF00009414AFFF74F
:100F9000F8BABEF1000FCBD01EEA030F3FF446AF04
:100FA000CAE74FF0FF3202FA03F3049A1A400492A0
:100FB000C6E40A9A0499B2B1374A1A40B2F1D46F22
:100FC00011D84FF0FF30120DC2F16B0200FA02F29D
:100FD000914240D0BEF1000F7FF425AF11EA0C0F13
:100FE0003FF424AFEDE64FF0FF32F1E72A4D1D400C
:100FF000B5F1D66F3FF669AFB5F15C7F3FF602AF52
:101000002223002600271A9DCBF8003007E5024670
:101010000B463046394603F003FF1A9C002200239A
:1010200006460F46254604F01BFB00283FF4F7ACAC
:10103000C6E54FF0FF33C2F14B0293400B400593DE
:101040007EE402460B463046394603F0EBFE1A9D1D
:1010500006460F46E3E4114A93420CD00E4A1A406A
:1010600002F58013059300230493DDE90467DDE6B0
:1010700002460B467AE70131F0D1222300261A9D61
:10108000054FCBF80030CAE402460B46B4E6002315
:1010900048E600BFA8AB00080000F07FFFFFEF7F2D
:1010A000014BFFF735B800BF0C0000208C4600B59F
:1010B00086461346034A714610685DF804EB6246A3
:1010C000FFF726B87801002084460A460249034B00
:1010D00008686146FFF71CB8780100200C0000206A
:1010E0002DE9F04705460C46DFF888A0134629464F
:1010F0002246DAF80000FFF70BF802460B460446DA
:101100000D4604F0DFFA48BB2946204604F010FBE8
:1011100020F0004706461849384604F02DFED0B9A5
:101120003846154904F00AFEA8B925F000494FF0E9
:10113000FF3220464946114B04F0C4FA38B9204624
:1011400049464FF0FF320D4B04F09EFA18B12222AF
:10115000DAF800301A603046BDE8F087002D084804
:1011600004DA00F0F3FD00F10046F4E7BDE8F047D3
:1011700000F0ECBD78010020FFFF7F7FFFFFEF7FD5
:1011800058AF00082DE9F0470446DFF8A0A00A4652
:10119000274B2146DAF80000FEF7BAFF02460B465D
:1011A00004460D4604F08EFA002833D12946204625
:1011B00004F0BEFA20F0004706461E49384604F007
:1011C000DBFDE8B938461B4904F0B8FDC0B925F08D
:1011D00000494FF0FF3220464946174B04F072FA9F
:1011E00038B9204649464FF0FF32134B04F04CFA11
:1011F00030B12222DAF800301A603046BDE8F087BC
:1012000016F0FF4FF9D10D4B2B40002BF1D130469A
:10121000BDE8F087002D0A4804DA00F097FD00F1E0
:101220000046EAE7BDE8F04700F090BD78010020F5
:101230000C000020FFFF7F7FFFFFEF7F0000F07FAB
:1012400058AF0008024A0349034800F069B900BFDB
:1012500000000020C13B00087C0100200C4B4168CD
:1012600010B59942044601D002F0AAFCA168094BCE
:10127000994202D0204602F0A3FCE168064B994255
:1012800004D02046BDE8104002F09ABC10BD00BF5B
:10129000E002002048030020B003002008B54B6E98
:1012A000DA0702D48B899B0501D5002008BD886D23
:1012B00000F0E8FB002008BD08B54B6EDA0702D449
:1012C0008B899B0501D5002008BD886D00F0E2FBED
:1012D000002008BD2DE9F84300250423304C314996
:1012E000DFF8C490DFF8C480314F324E0822C4F8D2
:1012F000381104F15C002946C4E90335C4E90055FE
:10130000C4E90555A560656600F0FCF904F15800D4
:10131000C4E90849C4E90A87266300F0ABFB264B01
:101320002946082204F1C4006367C4E91A55C4E9D8
:101330001E552567C4F8CC50C4F8805000F0E2F97F
:1013400004F1680304F1C000C4F88830C4E92398AC
:10135000C4E9257600F08EFB184B294604F59670FB
:101360000822C4F8DC30C4E93455C4E93855C4F85F
:10137000D850C4F83451C4F8E85000F0C3F904F16F
:10138000D003C4E93E87C4F8F49004F59470C4F81F
:101390000061C4F8F030BDE8F84300F06BBB00BF5B
:1013A000E002002045120008711600089916000896
:1013B000D9160008FD1600080900010012000200FD
:1013C000F8B506462A4800F05DFB2A4BD3F83831C1
:1013D000002B43D0284FD7E90134013B04D524E04A
:1013E0005A1C04F1680420D0B4F90C50013B002DC4
:1013F000F6D1224B04F15800E360656600F03AFB39
:101400001B4800F047FB08222946C4E90155C4E9FE
:1014100004552560A56104F15C0000F073F9C4E98E
:101420000D55C4E912552046F8BD3D680DB12F4653
:10143000D1E74FF4D671304601F038F9044680B157
:1014400004230560294625460C304FF4D072A06075
:10145000636000F057F93C602F46BCE7FFF73AFFA6
:10146000B8E703483C6000F015FB0C233360DAE773
:101470003C040020E0020020000000200100FFFFEB
:1014800010B504460B4800F0FDFA236A2BB90A4B4D
:101490000A4AD3F83831226223B1BDE8104005482A
:1014A00000F0F8BAFFF716FFBDE81040014800F061
:1014B000F1BA00BF3C040020E00200205D120008E9
:1014C000014800F0DFBA00BF3C040020014800F0F2
:1014D000E1BA00BF3C04002008B5054800F0D2FA8C
:1014E000BDE808400020034A034900F019B800BFD6
:1014F0003C040020000000209D12000808B50020D8
:10150000044A054900F00CF8BDE80840034800F023
:10151000C1BA00BF00000020B91200083C0400203E
:101520002DE9F8434FF0000980460F461646D6E9EC
:101530000154013D10D4A389012B08D9B4F90E3010
:10154000013304D021464046B84749EA0009013D2D
:101550006B1C04F16804EED13668002EE7D14846D2
:10156000BDE8F88308B410B5002A04469DB034DB0A
:101570004FF4027C4FF00003ADF814C01B934FF6FC
:10158000FF7C0291069120AB15D0013A049207929C
:1015900002A91F9A0193ADF816C001F09BFF421CEF
:1015A00001DA8B2323600022029B1A701DB0BDE874
:1015B000104001B070470492079202A91F9A01934C
:1015C000ADF816C001F086FF431C01DA8B232360BF
:1015D0001DB0BDE8104001B070478B234FF0FF30C5
:1015E0002360F5E70CB410B5204B00291C689CB0B3
:1015F00036DB4FF000034FF402721B934FF6FF7C73
:1016000002900690ADF814201FAB16D001391E9A37
:1016100004910791204602A90193ADF816C001F08C
:1016200059FF421C01DA8B2323600022029B1A70AF
:101630001CB0BDE8104002B07047049107912046ED
:101640001E9A02A90193ADF816C001F043FF431C96
:1016500001DA8B2323601CB0BDE8104002B0704754
:101660008B234FF0FF302360F5E700BF78010020A7
:1016700010B50C46B1F90E1000F0A0F9002803DBFC
:10168000636D0344636510BDA38923F48053A38174
:1016900010BD00BF002070472DE9F0410C46B1F9A4
:1016A0000C101F46CB05054616460BD421F480517D
:1016B000A1813B4632462846B4F90E10BDE8F04100
:1016C00000F092B9B4F90E100223002200F060F984
:1016D000B4F90C10EAE700BF10B50C46B1F90E10D2
:1016E00000F056F9B4F90C30421C0EBF23F48053BD
:1016F00043F480536065A38110BD00BFB1F90E10A3
:1017000000F034B970B5860747D0541E002A3ED089
:101710000346CAB201E0013C39D303F8012B9D070F
:10172000F9D1032C2CD9CDB205EB05250F2C1A4687
:1017300005EB054534D9A4F1100C2CF00F0603F18C
:10174000100EB6444FEA1C1CC2E90055C2E902550E
:1017500010327245F8D10CF1010214F00C0F03EBBA
:10176000021204F00F0C13D0ACF1040323F00303B6
:101770000433134442F8045B9342FBD10CF003049E
:101780002CB1C9B21C4403F8011BA342FBD170BDAC
:1017900064461346002CF4D1F9E703461446C0E72B
:1017A000A446E1E711F0FF01034600F0030239D03F
:1017B0008ABB026810B501EB012E0EEB0E4E8EEACD
:1017C0000204A2F1013323EA0203A4F1013222EA66
:1017D0000402134313F0803F0FD150F8044F84EA02
:1017E0000E0CA4F10133ACF1013223EA040322EA26
:1017F0000C02134313F0803FEFD0037823B936E097
:1018000010F8013F002B32D09942F9D110BD8A4225
:1018100028D09A0729D01A7818460133002AF6D121
:1018200010467047CAB90268A2F1013323EA0203E5
:1018300013F0803F08D150F8042FA2F1013323EABE
:10184000020313F0803FF6D003785BB110F8013F3C
:10185000002BFBD17047990705D0184613F8012BD0
:10186000002AF8D170471846DDE71846A1E7184668
:1018700010BD00BF002A3ED0844630B50446084360
:1018800080070B462ED1032A07D82BE0043A25D037
:101890001EF0803F22D1032A22D919462068A4468F
:1018A000A0F1013323EA000E0B4653F8045B043425
:1018B000A842EBD09CF800000C7884421DD1E6468B
:1018C00068B11EF8010F11F8014FA2EB0E03A04200
:1018D00003F1FF3311D11CEB0303F1D1002030BD24
:1018E000A44619469CF800000C78A04205D1012AB4
:1018F000F4D0E646E4E710467047001B30BD00BF59
:1019000040EA01039B0710B524D1032A22D98E4651
:101910008446DEF800407146A4F1013323EA040353
:1019200013F0803F0EF1040E15D1043A032A4CF84F
:10193000044BEED8714601F1FF3E52B163461EF8EA
:10194000011F541E03F8011B41B122469C46002A88
:10195000F4D110BD844601F1FF3EEEE79444002C23
:10196000F7D003F8011B6345FBD110BD002238B549
:10197000064D044608462A6008F07CFF431C00D050
:1019800038BD2B68002BFBD0236038BD1C04002021
:1019900038B50C46114600228446074D20462A6081
:1019A0001A46644608F070FF431C00D038BD2B680F
:1019B000002BFBD0236038BD1C04002038B50C463A
:1019C000114600228446074D20462A601A46644686
:1019D00008F032FF431C00D038BD2B68002BFBD031
:1019E000236038BD1C04002038B50C461146002287
:1019F0008446074D20462A601A46644608F02CFFAC
:101A0000431C00D038BD2B68002BFBD0236038BDB1
:101A10001C040020014B1868704700BF78010020AB
:101A200070B50F4B0F4DAB42A3EB050607D000245A
:101A3000B61055F8043B01349847A642F9D808F08F
:101A40007FFF094D094B5E1BAB424FEAA60606D04D
:101A5000002455F8043B01349847A642F9D870BDDC
:101A6000B8B10008B8B10008B8B10008BCB10008AE
:101A7000704700BF704700BF704700BF704700BF8E
:101A8000704700BF704700BF0120704701207047BA
:101A9000704700BF704700BF80EA010C1CF0030FC5
:101AA00037D110F0030C20F0030021F0030150F8AF
:101AB000042B08BF51F8043B0ED08CF0030C6FF0E0
:101AC0007F434FEACC0C23FA0CFC51F8043B42EA6A
:101AD0000C0243EA0C0300BFA2F1013C9A4201BF91
:101AE0002CEA020C1CF0803F50F8042B51F8043B08
:101AF000F2D04FEA02604FEA1222012828BFB0EB71
:101B0000036F08BF1B0AF4D003F0FF03000EC01AD6
:101B1000704710F0030F0AD010F8012B11F8013BA9
:101B2000012A28BF9A42F4D0A2EB0300704720B4E8
:101B300050F8042B01F0030521F0030151F8043B98
:101B4000022D27D04ED800BF22F07F45B5EB132FD2
:101B5000A2F1013C2CEA020C0DD11CF0803C08BF24
:101B600051F8043B0AD185EA0205B5EB036F0CD1AD
:101B700050F8042BE8E74FEA13235BE03CF07F4C7E
:101B800054D10B784FEA126554E04FEA126503F026
:101B9000FF034FE04FEA0245A2F1013C4FEA154531
:101BA0002CEA020CB5EB134F18D11CF0803C08BF97
:101BB00051F8043B07D185EA0205B5EB034F09D183
:101BC00050F8042BE6E75FEA0C4C2FD10B884FEA64
:101BD00012452FE04FEA03434FEA12454FEA134301
:101BE00028E000BF02F0FF05B5EB136FA2F1013C46
:101BF0002CEA020C0DD11CF0803C08BF51F8043BCC
:101C00000AD185EA0205B5EB032F0AD150F8042B5F
:101C1000E8E74FEA13630DE012F0FF0F06D051F82A
:101C2000043B4FEA122523F07F4303E04FF000000E
:101C300020BC704705F0FF0203F0FF00012828BF19
:101C4000904204BF2D0A1B0AF4D0A2EB000020BC76
:101C5000704700BF844641EA000313F0030349D1F3
:101C6000403A23D30B6803604B6843608B68836002
:101C7000CB68C3600B6903614B6943618B69836106
:101C8000CB69C3610B6A03624B6A43628B6A8362EE
:101C9000CB6AC3620B6B03634B6B43638B6B8363D6
:101CA000CB6BC36340304031403ADBD230320BD390
:101CB0000B6803604B6843608B688360CB68C360CC
:101CC00010301031103AF3D20C3205D351F8043BE6
:101CD00040F8043B043AF9D2043208D0D2071CBFC2
:101CE00011F8013B00F8013B01D30B8803806046EB
:101CF000704700BF082A13D38B07B1D010F003033D
:101D0000AED0C3F10403D21ADB071CBF11F8013BAC
:101D100000F8013BA4D331F8023B20F8023B9FE7D7
:101D2000043AD9D3013A11F8013B00F8013BF9D24A
:101D30000B7803704B7843708B78837060467047E4
:101D400000200149704700BF0000F87F004870473D
:101D50000000C07F002950D038B551F8043C0C1F5A
:101D6000002BB8BFE418054600F040FD274A136871
:101D70002BB1A3420CD92168601883422CD028468D
:101D800063601460BDE8384000F036BDA3420FD850
:101D90001A465B68002BF9D111685018844217D09D
:101DA0002CD3636054602846BDE8384000F024BD61
:101DB00011685018A04214D020D8216860188342BE
:101DC000EFD118685B680844C4E900035460EAE78F
:101DD00023680B441360E6E718685B6808442060DA
:101DE000CDE720680144501883421160DBD1D3E96C
:101DF00000040144C2E90014D5E770470C232846CB
:101E00002B60BDE8384000F0F7BC00BF4404002060
:101E10002DE9F0410469B4EB611F05DC0023036187
:101E200000234361BDE8F08100F114054E1111F06B
:101E30001F0C05EB840E05EB860321D055F8261008
:101E400004339E4521FA0CF1CCF120082DD92F4600
:101E50001A6802FA08F20A4347F8042B53F8041BE5
:101E60009E4521FA0CF1F3D8A31B9B00053B9B0870
:101E7000013305EB830445F8231079B104340DE0F8
:101E80009E4588BF00F11002C8D953F8041B9E4537
:101E900042F8041FF9D8A41B05EB8404631B9B10B4
:101EA000AC420361BCD0BDE8F08141610029B5D0EE
:101EB0002C46E3E72DE9F04F1C4685B000900868FA
:101EC000934682780B46302A029440F0F381C11C7D
:101ED0000A780C46302A01F10101F9D0A4EB00097F
:101EE000A9F10209DFF8C08218F80220002A00F0E8
:101EF000EF80002722783D4618F80220002A00F0E3
:101F00007781264616F8012F18F80220002AF9D109
:101F100001223046A5490193FFF7ACFC019B8246A4
:101F200000284DD03278002D00F0A581A5EB060ADF
:101F30004FEA8A0A02F0DF02502A35464DD01E6071
:101F4000002F74D12B1B013B072B394604DD5B109E
:101F5000072B01F10101FADC009800F053FC034665
:101F6000002800F06A8200F11406A542019640F2B2
:101F7000CA8100270390B9460DE0202F1AD03946B8
:101F800004372A7818F8022002F00F028A4049EA42
:101F90000209A54254D015F8012D2E2AEDD1A542F3
:101FA000EBD3012228468149FFF764FC0028F0D0DA
:101FB000202FE4D1002146F8049B04278946E0E75E
:101FC000002D00F068813278A5EB060A02F0DF02EE
:101FD000502A35464FEA8A0AB1D16A782B2A00F096
:101FE00048812D2A40F0D5800120AA78AE1C18F82F
:101FF00002104A1E182A00F2D5807278103918F89B
:10200000022001365AB90CE001EB810102EB4102DA
:10201000A2F1100116F8012F18F802200AB1192AAE
:10202000F2DD00B149428A441E60002F8AD0B9F126
:10203000000F0CBF06250025284605B0BDE8F08F2F
:10204000039B019A46F8049BB61AB6101E614846D7
:10205000039300F0E1FC7601DBF80040361AA6425B
:10206000039B76DCC0F209810027DBF8082052458B
:10207000C0F23E81DBF8042052454EDDA2EB0A0A95
:10208000544500F39580DBF80C10022900F0E18044
:10209000032900F05381012940F0DF80544540F0CE
:1020A000DC80012C0AD01846611E039301F0E6F88B
:1020B000039B002800F0D180DBF804200121029866
:1020C00062250260019A196111600E9A1360B3E7EC
:1020D0000122204635490193FFF7CCFB019B0746BF
:1020E000002840F087806278651C18F802100029EB
:1020F00000F08280302A2C4640F02B8114F8012F0A
:10210000302AFBD018F802204FF00109B2FA82F70A
:102110007F09002A7FF4F5AE6AE0012587B1DBF87C
:102120000C20022A6FD0032A71D0012A06D1B907E8
:1021300004D5019A12681743FA076BD445F01005CD
:1021400028460E9A1360029BC3F800A005B0BDE8B4
:10215000F08F361B1846314601F090F8039B074676
:1021600078B10127711E01984A1150F8220001F040
:102170001F0207FA02F2024203D0B94200F3CF80F5
:102180000227184631460393B244FFF741FE039BF2
:102190006BE718F8021000204A1E182A05F1010604
:1021A0007FF62BAF2E46CAE6A8A9000848AE000865
:1021B0000AF1FF35002F40F0A480002D40F0A780E9
:1021C00001220198691150F8211005F01F05AA405D
:1021D0000A4218465146039318BF47F00207A4EB82
:1021E0000A04FFF715FE0225DBF804A0039B95E720
:1021F00026468DE62546227802F0DF02502A00F0BE
:1022000099801D6013E70F9AC2F101020F920F9A95
:10221000002A93D001991E6988460A4600274FEA92
:10222000860901EB860003E0904242F8047C45D920
:10223000944652F8041BB1F1FF3FF5D00131022D55
:10224000CCF800107ED014F01F0440F0AE802125A1
:1022500076E70F9900293FF431AF502519460098D1
:1022600000F010FB002328460E9A136005B0BDE86D
:10227000F08F0020B9E6AA465CE6A61B1946324656
:10228000009800F051FD00F1140203460027AAEB6C
:10229000060A0192E9E67278751C18F802102E46BB
:1022A00000293FF447AE16F8012F18F80210002954
:1022B000F9D13BE64FF00009841C13E69A68964278
:1022C0004ADA0121022D06EB010003EB86061861B4
:1022D000DDF80480716135D0002874DC00221A61B9
:1022E00000225A61DBF808200AF1010A5245AEDAF1
:1022F0001946009800F0C6FA00230E9AA325136031
:102300009AE601275CE74FF00009019E99E618461E
:102310002946039300F0B2FF039B074650E7184697
:10232000B11E039300F0AAFF039B00283FF428AFDF
:10233000032726E74FF0000A01274EE60F990029F0
:102340008BD0BBE6DBF80020013AA24262D0222506
:10235000F6E64FF00109D4E5596800980131019380
:1023600000F050FA019B074600286CD01A6903F16F
:102370000C01023292000C300193FFF76BFC019BC1
:102380000098194600F07EFA01213B69022D03EB0B
:10239000010007EB8303386107F1140859613B46DC
:1023A000D0D08642BFF64FAF96E7C14459F8040C2F
:1023B000019300F031FBC4F12004A042019BBFF661
:1023C00046AF186988E75A6908EB800003F11804E2
:1023D000A0424FEA520229D94546216842EAC17219
:1023E00045F8042B54F8042BA0424FEA5202F4D8CB
:1023F000C11A19398908013148F8212008EB8101F7
:1024000002B10431A1EB0802921041451A617FF438
:1024100069AF65E70122611158F8211004F01F042B
:10242000A2400A4214BF2125222589E6C8F80020CF
:102430000AB14146E5E71A6152E70246E421054B3D
:10244000054801F0D9FC02468421024B024801F004
:10245000D3FC00BF64AE000878AE000810B5046875
:102460008646013409E014F8013BA3F1410CBCF1AC
:10247000190F98BF2033934207D111F8012B002A7E
:10248000F1D10120CEF8004010BD002010BD00BFEA
:102490000B682DE9F04F591102EB810113F01F0376
:1024A00006464FF000050DBF0846081D8E46A1F1F7
:1024B000040E316885B040F8045C4C1C4978002952
:1024C00000F0AF807746F4460093AA460B46A94633
:1024D0007146AB469646DFF884810246019610E0CD
:1024E000202B00F296804D4508DD674502D9BAF1F0
:1024F000070F67DDE6455CD34FF0080A14F8013F8B
:10250000B3B118F80360002EEAD00AF1010ABAF15B
:10251000080F05F1010542DCDCF800301B0106F074
:102520000F061E43CCF8006014F8013F002BE8D1E1
:10253000104672468E46009B002D72D0BC4502D2DA
:10254000BAF1070F74DD624555D26346111F53F887
:10255000044B734541F8044FF9D9AEEB0C0323F05B
:1025600003030EF1010104330CF1010C8C4588BF0B
:1025700004230021134443F8041B7345FBD950F88E
:10258000041C19B107E05EF8043D23B97245FAD185
:102590000123CEF80030052005B0BDE8F08FE645F8
:1025A000ACD24CF804BC00234FF0010AACF1040C8F
:1025B000B5E7ACF104074CF804BCA946BC464FF0A3
:1025C000000A9BE7CAF1080080006646CDE902C216
:1025D000DCF800308446C0F1200A706800FA0AF284
:1025E0001A4320FA0CF3326046F8043FB742F4D89D
:1025F000DDE902C27EE750F8041C002BC1D04FF089
:10260000FF34C3F1200324FA03F3194040F8041CFB
:10261000B7E7104672468E4619462929019E009B4F
:1026200003D0042005B0BDE8F08F0134346083E7A7
:10263000DCF80040CAF10801890066468846254654
:10264000C1F12009716801FA09F42C4321FA08F557
:10265000346046F8045FB742F4D874E7A8A90008CC
:1026600070B5114E054633680C46BBB1214628466D
:1026700001F064FB431C01460CD0C41C24F003048D
:10268000A04205D02846611A01F058FB013001D064
:10269000204670BD4FF0FF34204670BD194601F052
:1026A0004DFB3060E2E700BF400400202DE9F84315
:1026B000CD1C25F0030508350C2D38BF0C25002D49
:1026C000064618DBA94216D8DFF8DC8000F08EF849
:1026D000D8F80420A2B1144603E0636822467BB117
:1026E0001C4623685B1BF8D40B2B1FD894426368ED
:1026F00054D053600CE00C2333600020BDE8F88315
:1027000029463046FFF7ACFF431C044619D005604C
:10271000304600F071F804F10B00231D20F0070093
:10272000C21A1CBF1B1AA350BDE8F883611994425A
:10273000256014BF5160C8F80410635163684B6092
:10274000E6E7D8F804701FB33C467F68002FFBD142
:1027500023683946304604EB030901F0EFFA81455E
:1027600016D123683046ED1A2946FFF779FF01306C
:102770000ED02368D8F804202B442360536883B11B
:10278000A34203D01A465B689C42FBD10023B0E70A
:102790000C233046336000F02FF8AEE7C8F8043061
:1027A000B6E7C8F80470B3E74004002010B4034C47
:1027B000D4F8E440A44610BC604700BF0C000020E1
:1027C00082B049B15AB16BB113780B601278101E08
:1027D00018BF012002B0704701A9002AF3D11046AA
:1027E00002B070476FF00100F4E700BF0148FFF747
:1027F00049B900BF300400200148FFF74BB900BFC2
:102800003004002070B5C66905460C465EB1F36819
:10281000A3B153F82400E8B1026843F82420002350
:10282000C0E9033370BD102001F020FB0646E861CB
:10283000E8B10023C0E90033C0E9023321220421BA
:10284000284601F0FFFAEB69F060DB68002BE0D16D
:10285000002070BD0121284601FA04F56A1D92008E
:1028600001F0F0FA0028F3D0C0E90145D7E70246AD
:102870006B21024B024801F0BFFA00BFBCAE00085A
:10288000D4AE000870B5C66905460C464EB13CB1E1
:10289000EB696268DB6853F82210216043F822403C
:1028A00070BD102001F0E2FAE86120B1C0E90066D5
:1028B000C0E90266EBE702468F21024B024801F0B5
:1028C0009BFA00BFBCAE0008D4AE00082DE9F04171
:1028D0004FF0000E0E461C460D69074601F114002C
:1028E00001680EF1010E8BB202FB0343090C4FEAA3
:1028F000134C02FB01CC9BB203EB0C43754540F833
:10290000043B4FEA1C44EBDC3CB1B368AB4207DD4F
:1029100006EB850301355C6135613046BDE8F08129
:10292000716838460131FFF76DFF804690B132691A
:1029300006F10C01023292000C30FFF78BF93146A0
:1029400046463846FFF79EFF06EB850301355C617E
:102950003561E2E70246BA21014B024801F04CFA28
:1029600064AE0008D4AE00082DE9F8431E460C46BC
:1029700026490833174681FB032C092E4FEAE373DF
:102980000546C3EB6C0339DD4FF0010C00214FEA23
:102990004C0C634501F10101F9DC2846FFF732FFD9
:1029A000014668B3089B092F43614FF0010303619F
:1029B00012DC09270A34BE420BDDF61B264414F84C
:1029C000013B0A222846303BFFF780FFB442014614
:1029D000F5D10846BDE8F88304F10909C8463C442E
:1029E00018F8013B0A222846303BFFF76FFFA0454D
:1029F0000146F5D1A7F108044C44DCE70021CCE7FF
:102A00000246D321024B034801F0F6F9398EE33830
:102A100064AE0008D4AE0008B0F5803F03463ABF6C
:102A2000102083400020B3F1807F3CBF1B020830A0
:102A3000B3F1805F3CBF1B010430B3F1804F03D37F
:102A4000002B06DB013070479B0003D45B0003D4EE
:102A500020207047023070470330704703680146FA
:102A600013F0070209D0DA0721D498074BBF5B089F
:102A70009B08012002200B60704798B2A0B110465D
:102A8000DAB20AB908301B0A1A0704BF1B0904305E
:102A90009A0704BF9B080230DA0703D45B0800F1F1
:102AA000010006D00B6070471020C340E8E700200B
:102AB00070472020704700BF10B50C460121FFF77A
:102AC000A1FE024618B10123C0E9043410BD40F252
:102AD0004511024B024801F08FF900BF64AE0008B7
:102AE000D4AE00082DE9F04FD1F8108015690E46DC
:102AF000A845924685B005DB2A46534645468A4698
:102B000090461E46DAF80830DAF8041005EB08049F
:102B1000A342B8BF0131FFF775FE002800F089809D
:102B200000F1140707EB840E774505D23B460022DF
:102B300043F8042B9E45FBD8143606EB88080AF1AF
:102B40001409464509EB850566D2A5EB0A03153B3A
:102B500023F003030AF1150A043355452CBF9B46A5
:102B60004FF0040BCDF808E08246AE46039405E032
:102B7000090C2AD1B04507F104074AD956F8041BBD
:102B80008DB2002DF4D0CC463C46002301965CF873
:102B9000040B216886B28AB205FB0622000C090CE0
:102BA00005FB00111A4401EB124192B242EA0142C4
:102BB000E64544F8042B4FEA1143E8D8019E47F854
:102BC0000B3056F8041C090CD4D000223B68484650
:102BD0001D463C46944602889BB201FB02C202EBB2
:102BE000154243EA024344F8043B50F8043B25688D
:102BF0004FEA134CABB201FB0C33704503EB1243AD
:102C00004FEA134CE7D3B04547F80B3007F1040700
:102C1000B4D8DDE902E45046002C02DC05E0013CBA
:102C200003D05EF8043D002BF9D0046105B0BDE887
:102C3000F08F02464FF4B171014B024801F0DCF80D
:102C400064AE0008D4AE00082DE9F04112F0030391
:102C50001446074682B02DD10E46A4101CD0FA6946
:102C60008AB39568002D39D0E3074FF0000806D4E9
:102C7000641011D0286898B10546E307F8D53146AD
:102C80002A463846FFF72EFF0346314638461E4691
:102C9000FFF7F8FD6410EDD1304602B0BDE8F081D9
:102CA0002A4629463846FFF71DFF28600546C0F82A
:102CB0000080E2E7184A013B52F823200023FFF787
:102CC00005FE0646C9E7102001F0D0F80246F8617B
:102CD000E0B10023C0E90033C0E9023301213846E6
:102CE0000192FFF78FFD019A054640B1012340F2A2
:102CF0007121C0E90431002390600360B4E702460B
:102D000040F24511054B064801F076F840F2B31148
:102D1000044B034801F070F8A8AA000864AE00084C
:102D2000D4AE0008BCAE00082DE9F0470D462F696F
:102D3000AB6807EB62177C1C9C42914606464968CB
:102D40004FEA621A04DD5B009C4201F10101FADCEA
:102D50003046FFF757FD804600284ED0BAF1000FED
:102D600000F114000EDD034600210AF105024FEACE
:102D7000820C08EB820243F8041B9342FBD1ACF1B6
:102D800014031844296905F1140319F01F0903EB12
:102D900081012AD084464FF0000AC9F1200E1A683A
:102DA00002FA09F242EA0A024CF8042B53F8042B07
:102DB000994222FA0EFAF2D84B1B153B23F003037B
:102DC000043305F11502914238BF042340F803A0F3
:102DD000BAF1000F00D13C4630462946C8F81040F1
:102DE000FFF750FD4046BDE8F087043853F8042B48
:102DF000994240F8042FF9D8EDE702464FF4EF71FD
:102E0000014B024800F0F8FF64AE0008D4AE0008A1
:102E100084460B690069C01A15D10CF1140C1431E9
:102E20000CEB830210B401EB830301E0944508D25C
:102E300052F8044D53F8041D8C42F7D004D24FF0E1
:102E4000FF3010BC70477047012010BC704700BFB6
:102E50002DE9F04F14460A6923698846D21A002AE0
:102E600083B040F0888001F1140604F1140202EBF3
:102E7000830206EB830301E09E427FD253F8045D98
:102E800052F8041D8D42F7D076D3234600254446E0
:102E900098466168FFF7B6FC002800F0898000F1D1
:102EA000140949464FF0000C2769D8F8106004F166
:102EB000140B08F1140EC56004F110020EEB860627
:102EC0000BEB870ACDF804B05EF8044B52F8045FB0
:102ED0001FFA84FBABB2A3EB0B03240C6344C4EBDB
:102EE000154404EB23449BB243EA0443764541F87E
:102EF000043B4FEA244CE7D808F115018E4234BF59
:102F000000210121A6EB0806153EB608002906F1AE
:102F100001024FEA820208BF0422DDF804B00BEB85
:102F20000204A2454A4434D915462146E04651F8E8
:102F3000046BB3B263444FEA164E0EEB234E06EB1E
:102F400008039BB243EA0E438A454FEA2E4C45F8EC
:102F5000043BEBD80AF1FF3AAAEB040A2AF0030A71
:102F6000524423B952F8043D013F002BFAD00761C7
:102F700003B0BDE8F08F88DA01258AE70021FFF76A
:102F800041FC70B101220023C0E9042303B0BDE875
:102F9000F08F00294FEA860608BF002609EB0602DB
:102FA000DFE7024640F23721054B064800F024FFD8
:102FB000024640F24521024B024800F01DFF00BFCF
:102FC00064AE0008D4AE0008124B0A460B40A3F1D1
:102FD0005073002B03DD00221946104670475B42F8
:102FE000B3F1A07F4FEA235106DA4FF40023002209
:102FF0000B4119461046704714391E29D4BF4FF0B3
:10300000004201224FF00003D8BFCA4010461946C3
:10301000704700BF0000F07FF8B5046900F11402AA
:1030200002EB840454F8045C261F2846FFF7F4FCE6
:103030000346C0F120000A2B086030DDB242A3F144
:103040000B071AD254F8083C1FB3C7F1200C23FA1F
:103050000CF1BD4045EA0106A4F1080546F07F5198
:10306000AA4203FA07F341F4401116D254F80C2C8B
:1030700022FA0CF213431846F8BD0B2B08D000239C
:1030800005FA07F747F07F51184641F44011F8BDA3
:10309000002345F07F5141F440111846F8BDB2427B
:1030A0002CBF002254F8082CC3F10B0703F11503C1
:1030B00025FA07FC38BFFA4005FA03F34CF07F51BC
:1030C0001343184641F44011F8BD00BFF0B501218B
:1030D00083B016461F46FFF795FB0546002847D0EC
:1030E000C7F30A54C7F313030CB143F48013002E43
:1030F000019314D101A8FFF7B1FC0122019B2030FC
:103100006B612A6114B3089BA4F2334404441C602D
:10311000099BC0F135001860284603B0F0BD684631
:103120000096FFF79BFC019B00B30099C0F12002C1
:1031300003FA02F2C34001930A43002B6A610CBFF9
:1031400001220222AB612A61002CDCD105EB820155
:10315000A0F23243086908990B60FFF75DFC099BF8
:10316000C0EB42101860284603B0F0BD009AE4E7B7
:10317000024640F20F31024B024800F03DFE00BF14
:1031800064AE0008D4AE00082DE9F04383B0884651
:1031900069468146FFF740FF04460D46404601A9B7
:1031A000FFF73AFFD9F81030D8F81020A3EB020C43
:1031B000DDE900329B1A03EB4C13002B0BDD05EB12
:1031C00003573D4602460B462046294602F00AF9BF
:1031D00003B0BDE8F083C3EB033301EB0359494669
:1031E000F0E700BF172870B506460ADD002000246E
:1031F0000749084D22462B4601F0CAFF013EF9D18E
:1032000070BD054B03EBC003D3E9040170BD00BFE3
:103210000000F03F00002440A8AA000801F1FF3C94
:10322000116902F114034FEA6C1C03EB81010CF1EC
:10323000010C8B4200EB8C0C16D210B5A0F1040EE1
:1032400053F8044B99424EF8044FF9D88B1A153BAA
:1032500023F0030304331844844504D9002340F8C1
:10326000043B8445FBD810BD844505D9002340F8B4
:10327000043B8445FBD87047704700BF03694A117F
:10328000934200F1140009DA00EB830302E053F8E3
:10329000042DA2B98342FAD80020704700EB8203C4
:1032A000F8DD11F01F01F5D010B450F8224024FAD7
:1032B00001F28A40944208D0012010BC70470120DE
:1032C000704753F8042D002AF6D18342F9D8002024
:1032D00010BC704710B4034CD4F8E040A44610BCB6
:1032E000604700BF0C000020034649B1FF2A02D806
:1032F00001200A7070478A224FF0FF301A60704731
:10330000084670472DE9F0471D468F680C46AF42CE
:1033100016460B6836D8B1F90CC01CF4906F0ED16C
:103320003D46184631462A4600F08AFC0020A36834
:10333000DF1B2368A7602B442360BDE8F0874A6940
:10334000096902EB42025F1A02EBD2726B1C521047
:103350003B44934292BF914699461A461CF4806FB3
:10336000804611D01146FFF7A1F9824600B33A46D4
:103370002169FEF76FFCA38923F4906343F0800377
:10338000A38105E02F46CCE700F080FD824658B1CE
:103390000AEB0703A9EB0707A760C4F810A02F46A4
:1033A000C4F814902360BCE740462169FEF7D2FCC4
:1033B0000C22A3894FF0FF3043F04003C8F80020EF
:1033C000A381BAE72DE9F04F936883B0924617685E
:1033D0000190002B76D04FF0000B0C465D468B68B9
:1033E0000A6848E0B4F90CC01CF4906F2FD0D4E9FF
:1033F0000403A2EB000803EB430202EBD27208F1D4
:10340000010152102944914292BF914689460A46D1
:103410001CF4806F39D011460198FFF747F9064632
:1034200000283DD042462169FEF714FCA28922F40F
:10343000906242F08002A28106EB0800A9EB08022C
:103440002661A8462E46A2602060C4F81490324639
:10345000594600F0F5FBDAF80810A3682268A3EBE0
:1034600008033244491BA3602260CAF8081049B31C
:10347000D7E900B5083798461046002DF8D09D4290
:103480001E46AFD2A8462E46E1E70146019800F05D
:10349000FDFC06460028CFD101982169FEF75AFCB1
:1034A0000C21A389019D43F0400329600022A381E0
:1034B0004FF0FF300023CAF80820CAF8043003B0E8
:1034C000BDE8F08F00200023CAF8043003B0BDE847
:1034D000F08F00BF2DE9F04F1C468B8989461D06F1
:1034E000824693469DB003D50B69002B00F0EE8019
:1034F000002343F2200209939BF8003001277C4E01
:103500000394ADF82920002B71D05D4603E015F837
:10351000013F002B73D0252BF9D1B5EB0B0471D1F2
:103520002A78002A63D000234FF0FF320135CDE91D
:103530000523049307938DF853301A9306E025462C
:10354000049B801B07FA00F0034304932C460522DA
:1035500014F8011B304600F003FCA3460028EED10E
:10356000049BD90644BF20228DF853201A0748BF78
:103570002B22297848BF8DF853202A294FD1039A4E
:1035800011680432002903927BDB079169782E29A8
:103590005BD0584C0322204600F0E2FB38B14022B9
:1035A000049B001B824013430BF1010B04931BF897
:1035B000011B062250488DF8281000F0D1FB00288E
:1035C00065D04E4B002B55D003A900914A4650467A
:1035D0004B4B04A9AFF300808046B8F1FF3F06D003
:1035E000099B434409939BF80030002B8DD1B9F817
:1035F0000C305B0679D409981DB0BDE8F08FB5EBAF
:103600000B04F4D023465A4649465046FFF77AFE4B
:103610000130ECD0099B2A782344099381E7A1F17A
:103620003002092A88BFAB46B1D8079B00E00134BD
:10363000217803EB830302EB4303A1F13002092A53
:10364000F5D92E29A3460793A3D19BF801102A2967
:1036500027D1039B0BF102001A680433002A03935D
:10366000B8BF4FF0FF339BF8021005928346B8BFF6
:1036700005938EE7039B073323F007030833039377
:10368000AEE7494243F00203079104937EE703A9A2
:1036900000914A4650461A4B04A900F0C5F88046EE
:1036A0009BE70023A1F13002092A0BF1010B0593DE
:1036B0003FF66FAF1BF8011F03EB830302EB4303DD
:1036C000A1F13002092AF5D9059362E74021FEF7FE
:1036D000EDFFC9F80000C9F8100018B14023C9F87F
:1036E000143005E70C23CAF800304FF0FF3083E7B1
:1036F00010AF000818AF00081CAF00080000000061
:10370000053300082DE9F84F92461F460A698B6879
:103710000C469A42B8BF1A46CAF8002091F84330C6
:103720000646DDF8289013B10132CAF8002022685D
:1037300091065FD5DAF800300233CAF8003022680B
:1037400012F0060F11461DD1E1689942D8BF11460B
:1037500018DD4FF0000804F1190B05E0E568DAF810
:103760000030ED1A45450CDD01235A4639463046F6
:10377000C847013008F10108F0D14FF0FF30BDE833
:10378000F88F216894F84330003B18BF01238A0664
:103790000AD53021E21882F8431094F845105A1CDB
:1037A0002244023382F843103946304604F1430282
:1037B000C8470130E1D0D4E902202368DAF800508C
:1037C00003F00603042B21691BD08A4220DD4FF051
:1037D0000008521A904400251A3401E0454517DAD2
:1037E0000123224639463046C847013005F101051C
:1037F000F4D1C2E712F0060F0DD0003B18BF012331
:10380000D2E7401B8A4220EAE078E2DC0028E2DCD2
:103810000020BDE8F88FE168DAF800309942D8BF9F
:10382000114696DCAEE700BF2DE9F04717460A7E49
:1038300084B00C46064698460C9D01F1430C002AC4
:1038400035D0A2F15803D9B2202969D8202B67D8E6
:10385000DFE813F0E60066006600660066006600BA
:1038600066006600660066006600AC0070006600D8
:10387000660066006600700066006600660066000E
:1038800021008300C60066006600B6006600830063
:1038900066006600EC002B682268181D61692860CC
:1038A00010061B6802D4520600F1E0801960002364
:1038B000E14623613B4621463046CDF8008003AA0D
:1038C000FFF720FF013020D04A46394630462369B1
:1038D000C047013019D02368E0689B07DDF80C90E1
:1038E00018D5484516DD002504F1190A04E0E06802
:1038F000A0EB0903AB420DDD0123524639463046A9
:10390000C047013005F10105F1D14FF0FF3004B09F
:10391000BDE8F0874845B8BF484604B0BDE8F08729
:10392000012084F8422004F142090023206184F838
:103930004330BFE72A682368111D1806296002D4A6
:10394000590600F195801068014600286268C0F2AF
:1039500093804FF00A0E534815E020682B6810F052
:10396000800F53F8041B02D1400648BF89B26F2A6A
:1039700014BF4FF00A0E4FF0080E4A482B60002388
:10398000626884F84330002AA26051DB236823F088
:103990000403236000294BD1002A7BD1E146BEF10C
:1039A000080F56D0ACEB0903236183E72A68012096
:1039B000116804322A6004F1420984F84210B4E725
:1039C0002B6800211A1D2A60D3F8009062684846CF
:1039D00000F0C6F9002863D0A0EB09006060A4E7FE
:1039E000236843F02003236078222F4884F8452081
:1039F0002A6813F0800F52F8041B03D113F0400F14
:103A000018BF89B22A60DA0744BF43F0200323605D
:103A100019B9236823F0200323604FF0100EAEE79E
:103A20005823204884F845302368E1E72368DBE722
:103A30007546E146B1FBF5F30A4605FB131A194634
:103A400010F80A30AA4209F8013DF3D2BEF1080F7E
:103A5000A8D12368DD07A5D5626823699A42A1DC55
:103A6000302309F1FF3989F800309BE719801EE700
:103A7000B2F90010084668E72D20002AA26084F8F9
:103A8000430002DB23F0040323600A250548AE4609
:103A90004942CEE7037804F1420984F842307EE7D8
:103AA000606842E724AF000838AF0008F8B5B1F904
:103AB0000C300C461E07074639D44A68002A53DDED
:103AC000E56A002D31D000223E683A6013F480523E
:103AD000216A55D101233846A847451C024663D0C8
:103AE000B4F90C30E56A216A580705D56368D21A23
:103AF000636B0BB1236CD21A00233846A847421CD3
:103B000040D00022236962602360A389DB0400D5D2
:103B10006065616B3E6041B104F14403994202D09B
:103B20003846FEF717F9002363630020F8BD0E69DD
:103B3000002EFAD09B0718BF00230D6808BF4B6901
:103B40000E60AD1B8B600CE02B463246D4F828C0CB
:103B50003846216AE047B0F1000CA5EB0C0566443D
:103B600006DD002DF0DCE0E70A6C002AA8DCDCE7CB
:103B7000B4F90C3043F040034FF0FF30A381F8BD9F
:103B8000626DB1E73968B4F90C301D29F2D80B4ADF
:103B9000CA40D507EED50022626022692260DA04AD
:103BA000B7D50029B4D0B4E73B68002B98D01D2BC3
:103BB00001D0162BDCD13E60B7E700BF01004020EA
:103BC00038B50B69CBB10C46054608B1036ABBB1E9
:103BD000B4F90C308BB1626ED00701D4990512D5BF
:103BE00028462146FFF762FF636E0546DA0702D4D6
:103BF000A3899B050BD5284638BD0025284638BD2E
:103C0000FDF73EFCE4E7A06DFDF73CFFE8E7A06DA3
:103C1000FDF740FFEFE700BF014618B1044B1868FD
:103C2000FFF7CEBF034A04490448FDF779BC00BF43
:103C30007801002000000020C13B00087C0100202A
:103C400088420ED98B1883420BD900EB020C002A54
:103C50006DD0624613F801CD994202F801CDF9D139
:103C600070470F2A0FD8034602F1FF3C002A5ED0AE
:103C70000CF1010C013B8C4411F8012B614503F858
:103C8000012FF9D1704740EA01039B0750D1A2F1FF
:103C9000100370B501F1200C23F00F0501F1100E97
:103CA00000F11004AC441B095EF8105C0EF1100E1C
:103CB00044F8105C5EF81C5C103444F81C5C5EF840
:103CC000185C44F8185C5EF8145CE64544F8145C33
:103CD000EAD1013312F00C0F01EB031102F00F04D3
:103CE00000EB031328D08E46043C24F003064FEA71
:103CF000940C1E441C1F5EF8045B44F8045FB4423D
:103D0000F9D10CF1010402F0030203EB840301EB8F
:103D1000840102F1FF3C4AB10CF1010C013B8C44DF
:103D200011F8012B614503F8012FF9D170BD7047DF
:103D3000034602F1FF3C9BE72246EAE7002238B542
:103D4000064D044608462A6006F042FD431C00D09A
:103D500038BD2B68002BFBD0236038BD1C0400202D
:103D60005FFA81FC810744D00346511E22B909E065
:103D70009A0709D0013905D3184602780133624504
:103D8000F6D1704700207047184603290CD8002947
:103D9000F8D00346014401E08B42F3D0184613F8F3
:103DA000012B6245F8D1704710B50CEB0C2402468C
:103DB00004EB044402E00439032915D9104652F8F3
:103DC000043B6340A3F1013E2EEA030313F0803F5E
:103DD000F1D00346014401E08B4208D0184613F8A5
:103DE000012B6245F8D110BD10460029F1D1002009
:103DF00010BD1146C9E700BF144600B51A460A4B6C
:103E00000D461B6885B0DE6803464CB10749019139
:103E1000304607490294009500F078F800F08AF8DF
:103E200004490C46F3E700BF780100204CAF0008BE
:103E30005CAF000858AF000808B513460022FFF732
:103E4000DBFF00BF70B5A1FB025454B92946FEF751
:103E50002DFC064618B12A462146FDF753FC304694
:103E600070BD0C2200260260F9E700BF024B01463C
:103E70001868FEF71BBC00BF78010020024B01460A
:103E80001868FDF767BF00BF780100202DE9F041F9
:103E9000144641B30AB306460D4600F053F8844277
:103EA000074602D8B4EB500F13D821463046FEF730
:103EB000FDFB804650B1BC422246294628BF3A4607
:103EC000FDF7C8FE29463046FDF744FF4046BDE8F1
:103ED000F081A8464046BDE8F081A046FDF73AFFD4
:103EE0004046BDE8F0811146BDE8F041FEF7DEBB7B
:103EF0000CB400B583B004AB53F8042B019300F06D
:103F000065F803B05DF804EB02B070470EB400B57D
:103F1000074A82B003AB0146106853F8042B0193A3
:103F200000F054F802B05DF804EB03B0704700BF36
:103F300078010020062008B500F06CFC012006F096
:103F400075FC00BF51F8043C181F002BBCBF0B5878
:103F5000C01870479368013B002B936005DAD2F8D4
:103F600018C0634507DB0A2905D01368581C106088
:103F700008461970704700F007BB00BF9BB1F8B549
:103F8000134406460F46541E5D1E01E0AC4208D0A5
:103F90003A46304614F8011FFFF7DCFF431CF5D109
:103FA000F8BD0020F8BD0020704700BF936810B531
:103FB00014461BB918460023636010BD00F06EF96B
:103FC0000023A3600023636010BD00BF2DE9F04F04
:103FD000A1B08B4691461C46049018B1036A002B91
:103FE00000F04181DBF86420BBF90C30D20702D429
:103FF0009F0540F131811E0740F19A80DBF81030B7
:10400000002B00F09580002343F220020D9399F8D5
:1040100000300127954E0794ADF83920002B77D05A
:104020004D4604E015F8013F002B00F09780252B4A
:10403000F8D1B5EB090A40F094802B78002B67D0BB
:1040400000234FF0FF320135CDE9092308930B938C
:104050008DF863301E9306E02546089B801B07FA07
:1040600000F0034308932C46052214F8011B304648
:10407000FFF776FEA1460028EED1089BD80644BF84
:1040800020228DF86320190748BF2B22297848BFCA
:104090008DF863202A297AD1079A11680432002901
:1040A0000792C0F2AD800B9169782E2900F08680CE
:1040B0006F4C03222046FFF753FE38B14022089B85
:1040C000001B8240134309F10109089319F8011BF1
:1040D000062268488DF83810FFF742FE002800F0ED
:1040E0009580654B002B7ED007A900915A46049815
:1040F000624B08A9AFF300800390039B013307D004
:104100000D9B039A13440D9399F80030002B87D12F
:10411000DBF8643013F0010FBBF80C3002D19A05C4
:1041200040F193805B0616D40D9821B0BDE8F08F66
:104130005946049800F076FA00283FF464AFDBF8A3
:104140006430DD0707D4BBF80C309C0503D4DBF8E2
:104150005800FDF79FFC4FF0FF30E6E7B5EB090A8A
:10416000D6D009F1FF3805954546DDF8108001E00D
:10417000A2453FD92C465A46404615F8011FFFF785
:10418000E9FE02340130A4EB0904F1D1C0E7A1F14A
:104190003002092A88BFA94687D80B9B00E001346A
:1041A000217803EB830302EB4303A1F13002092AD8
:1041B000F5D92E29A1460B937FF47AAF99F8011017
:1041C0002A292DD1079B09F102001A680433002A1D
:1041D0000793B8BF4FF0FF3399F802100992814658
:1041E000B8BF099364E7079B073323F0070308333D
:1041F000079385E70D99059D51442B780D911DE797
:10420000494243F002030B9108934DE707A900913F
:104210005A460498194B08A9FFF706FB03906CE770
:104220000023A1F13002092A09F1010909933FF69F
:104230003FAF19F8011F03EB830302EB4303A1F126
:104240003002092AF5D9099332E7DBF85800FDF767
:1042500021FCBBF80C3065E7DBF85800FDF712FCD9
:10426000BBF90C30C7E6FDF70BF9BBE610AF000851
:1042700018AF00081CAF0008000000007D3F0008D8
:104280008C4600B586461346034A714610685DF8B1
:1042900004EB6246FFF79ABE780100209368002B7A
:1042A00000F0F0802DE9F04FB1F90CC090461CF001
:1042B000080F81460C4683B02BD00B694BB31CF022
:1042C0000207D8F8006032D04FF0000A5546D4F803
:1042D00028B0216AAB4FC5B1BD422B46524628BF1C
:1042E0003B464846D847002840F3C280D8F80830FB
:1042F00082441B1A2D1AC8F80830002B00F0AE803B
:10430000D4F828B0216A002DE6D1D6E900A50836F8
:10431000E1E72146484600F085F9002840F0AD80ED
:10432000B4F90CC0D8F800601CF00207CCD11CF026
:10433000010A63D157462368A16818468B46002FAF
:1043400058D01CF4007F00F0B180B9420A4600F258
:10435000DD801CF4906F2FD0216962695D1A02EB39
:10436000420202EBD2726B1C52103B44934292BF4A
:1043700093469B461A461CF4806F00F0E680114677
:104380004846FEF793F9002800F0F5802A46216997
:104390000190FDF75FFCA289019B22F4906242F03C
:1043A0008002A2815819C4F814B0ABEB05053A4657
:1043B000BB462361A56020603D460027514601921F
:1043C000FFF73EFCA1682368019AA1EB0B011A4498
:1043D000A1602260D8F80830AA445B1BC8F80830F6
:1043E000002B3BD02368A16818468B46B4F90CC05B
:1043F000002FA6D1D6E900A708369EE73846BB466F
:104400003D46002D40D0002845D03A46D4E904C3AB
:104410002068AA4228BF2A466045A16804D901EB5A
:10442000030A524500F38280934272DC5A464846A2
:10443000216AD4F828C0E047B0F1000A18DDB7EBD4
:104440000A070FD00120D8F80830D344A3EB0A03A1
:10445000A5EB0A05C8F80830002BD2D1002003B024
:10446000BDE8F08F21464846FFF7AAFB0028EAD0B6
:10447000B4F90C3043F04003A3814FF0FF3003B098
:10448000BDE8F08F00207047756833460836002D70
:10449000FAD0D3F800B02A460A215846FFF760FC4C
:1044A000002865D00130A0EB0B07AEE722699A42E5
:1044B00014D36569BD4211D86FF00043BB4228BFD9
:1044C0003B4693FBF5F3524605FB03F34846A56ACA
:1044D000216AA847051ECBDD7F1B7BE7B94228BFB9
:1044E00039460D46184651462A46FFF7A9FBA168F2
:1044F0002368491B2B44A16023600029ECD121468D
:104500004846FFF75DFB0028E6D0B1E7BB463A46D8
:1045100052E759460192FFF793FB019AA36892462E
:104520009B1AA36023681344236088E759465246C8
:10453000FFF786FB23682146534448462360FFF774
:104540003FFB00283FF47BAF92E74846FFF79EFC15
:10455000034600287FF426AF48462169FDF7FAFBA1
:104560000C22B4F90C30C9F8002023F0800381E755
:104570006A1C17464AE70C22B4F90C30C9F800202F
:1045800078E700BF00FCFF7FF8B506460D461446ED
:1045900010B1036A002B37D0A269A389A2601A0761
:1045A00019D52369BBB122686169D31AEDB299426A
:1045B0002F4620DD0133A1680139A160511C216023
:1045C000157062699A420DD0A389DB0701D50A2DC7
:1045D00008D03846F8BD2146304600F023F838B9F7
:1045E0002369E0E721463046FFF7EAFA0028F0D0D9
:1045F0004FF0FF37EDE721463046FFF7E1FA00289C
:10460000F6D101232268D6E7FCF73AFFC4E700BFE2
:1046100003460A46024908681946FFF7B5BF00BFBE
:104620007801002038B52F4B05461B680C4613B1A6
:104630001A6A002A4BD0B4F90C3018071CD522692D
:1046400022B313F0010107D000206169A060494244
:10465000A1613AB1002038BD980758BF6169A160D7
:10466000002AF7D1190658BF1046F4D543F040038D
:10467000A3814FF0FF3038BDD9062CD55A0712D48C
:10468000226943F00803A381002ADAD103F42071E0
:10469000B1F5007FD5D02146284600F06DF9B4F978
:1046A0000C302269CDE7616B51B104F144029142B3
:1046B00004D02846FDF74EFBB4F90C3000226263AB
:1046C0000021226923F02403C4E90021D9E7184618
:1046D000FCF7D6FEAFE7092243F040032A60A3812E
:1046E000C7E700BF7801002038B5C46B0CB10020CB
:1046F00038BD80210546FDF7D9FF0246E86330B199
:10470000031F7C3243F8044F9342FBD1EFE74FF095
:10471000FF3038BD30B51F29054683B008D8C36BBC
:104720000C4653B153F8240043F8242003B030BDA5
:10473000162303604FF0FF30F8E780210192FDF768
:10474000B5FF019A0346E8630028F3D0011F00F18A
:104750007C05002041F8040FA942FBD1E2E700BF2D
:104760001F2938B505461ED8C26B0C466AB152F8EF
:10477000213053B1012B06D0591C10D00021204606
:1047800042F824109847002038BD284600F0F2F87F
:10479000224601462846BDE8384000F0D7B8162327
:1047A00001202B6038BD16234FF0FF302B6038BD41
:1047B0001F292BD838B5C36B0C460546A3B153F857
:1047C000242003EB84034AB1511C0BD0012A07D0EB
:1047D000002520461D609047284638BD012038BD81
:1047E000032038BD022038BD8021FDF75FFF03465E
:1047F000E86340B100201A1F03F17C0142F8040F66
:104800008A42FBD1DBE74FF0FF3038BD4FF0FF307D
:10481000704700BF38B5134B1F281D681DD8EA6BC1
:10482000044662B152F820304BB1012B05D0591C1F
:104830000FD0002142F820109847002038BD2846AC
:1048400000F098F8224601462846BDE8384000F0BE
:104850007DB8162301202B6038BD16234FF0FF30A2
:104860002B6038BD78010020114B1F2870B51E68E1
:1048700008D8F36B04460D464BB153F8240043F8B7
:10488000245070BD162333604FF0FF3070BD80217F
:104890003046FDF70BFF0346F0630028F4D00021FB
:1048A000021F7C3042F8041F8242FBD1E5E700BFC3
:1048B0007801002038B50B4B1D68EC6B0CB1002063
:1048C00038BD80212846FDF7F1FEE86338B1031FAB
:1048D00000F17C0243F8044F9342FBD1EFE74FF025
:1048E000FF3038BD7801002038B5174B1F281D68F0
:1048F00026D80446E86BA0B150F8242000EB8403CE
:104900004AB1511C0BD0012A07D0002520461D605A
:104910009047284638BD012038BD032038BD02200D
:1049200038BD80212846FDF7C1FEE86340B1002173
:10493000031F00F17C0243F8041F9342FBD1DBE725
:104940004FF0FF3038BD00BF7801002070B5002661
:10495000074D0446084611462E6005F05FFF431CD4
:1049600000D070BD2B68002BFBD0236070BD00BF52
:104970001C04002005F050BF70B5B1F90C300C4696
:10498000990796B007D5012204F14703C4E9043220
:10499000236016B070BDB4F90E100546002929DB5E
:1049A0006A4600F071F8002822DB4FF48061284647
:1049B000019EFDF77BFE88B3A38906F4704643F0A1
:1049C0008003A3814FF48063B6F5005FC4E904035C
:1049D0002060DED12846B4F90E1000F069F80028F6
:1049E000D7D0A38923F0030343F00103A381D0E7C9
:1049F000B4F90C3013F0800F14BF40264FF48066DA
:104A000028463146FDF752FE40B1A389C4E90406A9
:104A100043F080032060A38116B070BDB4F90C3060
:104A20009A05B6D4012123F0030304F1470243F0B1
:104A30000203C4E90421A3812260AAE770B50C46F1
:104A4000B1F90E10154600291E4696B00FDB6A46D6
:104A500000F01AF800280ADB019B4FF4806203F48F
:104A60007043A3F50053B3FA83F35B0907E0A2890F
:104A7000002312F0800F14BF40224FF48062002008
:104A800033602A6016B070BD70B50026074D04462D
:104A9000084611462E6005F0F0FE431C00D070BDA4
:104AA0002B68002BFBD0236070BD00BF1C040020CE
:104AB000002238B5064D044608462A6005F0E2FE9D
:104AC000431C00D038BD2B68002BFBD0236038BDC1
:104AD0001C04002000F000B870B521F00045B5F1CD
:104AE000FF4F0A4603462CD820F00046B6F1FF4F90
:104AF000844626D8B1F17E5F35D08C1704F00204CD
:104B000044EAD07416B33DB3B5F1FF4F33D0B6F1DC
:104B1000FF4F21D0761BB6F1F45F4FEAE65028DA5A
:104B2000002934DA3C3032DA0020012C40D0022C4B
:104B300036D02CB1254900F051FE254900F04CFE3D
:104B400070BD1946104600F049FE70BD022C08D019
:104B5000032CF5D11F4870BDBCF1000F07DB1E48C8
:104B600070BD1B4870BDBDE8704000F03DB81B48EB
:104B700070BD1948D9E7B6F1FF4F04F1FF341AD0E0
:104B8000022C1ED8164B03EB8403D86870BD114667
:104B9000184600F0DFFF00F03BF900F025F8C4E70D
:104BA0000A4900F01BFE0146094800F015FE70BDE1
:104BB00000F1004070BD022C05D8094B53F82400C9
:104BC00070BD002070BD074870BD00BF2EBDBB3357
:104BD000DB0F4940DB0F49C0DB0FC93FDB0FC9BF0B
:104BE000D4AC0008DB0F493F2DE9F04120F000452F
:104BF000B5F1A14F0446074608D3B5F1FF4F73D86E
:104C0000002840F381806F48BDE8F0816E4B9D42E3
:104C10007DD8B5F1445F6CD34FF0FF382146204674
:104C200000F0E4FE0146064600F0E0FE0546674956
:104C300000F0DCFE664900F0D1FD294600F0D6FE0A
:104C4000644900F0CBFD294600F0D0FE624900F037
:104C5000C5FD294600F0CAFE604900F0BFFD2946A7
:104C600000F0C4FE5E4900F0B9FD314600F0BEFE22
:104C70005C490646284600F0B9FE5B4900F0ACFDF1
:104C8000294600F0B3FE594900F0A6FD294600F080
:104C9000ADFE574900F0A0FD294600F0A7FE55499A
:104CA00000F09AFD294600F0A1FE0146304600F0D2
:104CB00095FD214600F09AFEB8F1FF3F014646D02F
:104CC0004D4D05EB8803196900F086FD214600F083
:104CD00083FD014655F8280000F07EFD002F93DA91
:104CE00000F10040BDE8F081014600F077FDBDE82D
:104CF000F081424900F072FD4FF07E5101F032F830
:104D0000002889D020467FE73D48BDE8F08100F0CB
:104D10007FF83C4B04469D421ED8A3F5D0039D422C
:104D20003CD8014600F05AFD4FF07E5100F054FD92
:104D300003464FF0804120461C4600F04FFD0146DF
:104D4000204600F007FF4FF00008044666E72046C3
:104D500000F042FDBDE8F0812B4B9D4216D84FF08C
:104D60007F5100F039FD03464FF07F5120461C462D
:104D700000F03CFE4FF07E5100F030FD0146204631
:104D800000F0E8FE4FF00208044647E701461F48DE
:104D900000F0E0FE4FF0030804463FE74FF07E517D
:104DA00000F01AFD03464FF07E5120461C4600F0ED
:104DB00015FD0146204600F0CDFE4FF001080446E7
:104DC0002CE700BFDB0FC93FFFFFDF3ED769853C03
:104DD00059DA4B3D356B883D6E2EBA3D2549123E62
:104DE000ABAAAA3E21A215BD6BF16E3D95879D3DF4
:104DF000388EE33DCDCC4C3EECAC0008CAF2497194
:104E0000DB0FC9BFFFFF973FFFFF1B40000080BFC4
:104E100020F00040704700BF81F0004102E000BF79
:104E200083F0004330B54FEA41044FEA430594EA6A
:104E3000050F08BF90EA020F1FBF54EA000C55EAA5
:104E4000020C7FEA645C7FEA655C00F0E2804FEA76
:104E50005454D4EB5555B8BF6D420CDD2C4480EA58
:104E6000020281EA030382EA000083EA010180EA88
:104E7000020281EA0303362D88BF30BD11F0004FD6
:104E80004FEA01314FF4801C4CEA113102D040420C
:104E900061EB410113F0004F4FEA03334CEA133347
:104EA00002D0524263EB430394EA050F00F0A7805F
:104EB000A4F10104D5F1200E0DDB02FA0EFC22FA5A
:104EC00005F2801841F1000103FA0EF2801843FA4E
:104ED00005F359410EE0A5F120050EF1200E012A3F
:104EE00003FA0EFC28BF4CF0020C43FA05F3C0187D
:104EF00051EBE37101F0004507D54FF0000EDCF1F6
:104F0000000C7EEB00006EEB0101B1F5801F1BD39E
:104F1000B1F5001F0CD349085FEA30004FEA3C0CA2
:104F200004F101044FEA445212F5800F80F09A8098
:104F3000BCF1004F08BF5FEA500C50F1000041EB9C
:104F4000045141EA050130BD5FEA4C0C404141EBA0
:104F50000101013C28BFB1F5801FE9D291F0000F9B
:104F600004BF01460020B1FA81F308BF2033A3F14A
:104F70000B03B3F120020CDA0C3208DD02F1140C41
:104F8000C2F10C0201FA0CF021FA02F10CE002F17C
:104F90001402D8BFC2F1200C01FA02F120FA0CFC75
:104FA000DCBF41EA0C019040E41AA2BF01EB0451BE
:104FB000294330BD6FEA04041F3C1CDA0C340EDCBC
:104FC00004F11404C4F1200220FA04F001FA02F3FF
:104FD00040EA030021FA04F345EA030130BDC4F1BD
:104FE0000C04C4F1200220FA02F001FA04F340EAB2
:104FF0000300294630BD21FA04F0294630BD94F063
:10500000000F83F4801306BF81F480110134013D49
:105010004EE77FEA645C18BF7FEA655C29D094EABA
:10502000050F08BF90EA020F05D054EA000C04BF38
:105030001946104630BD91EA030F1EBF0021002023
:1050400030BD5FEA545C05D14000494128BF41F0C2
:10505000004130BD14F580043CBF01F5801130BD26
:1050600001F0004545F0FE4141F470014FF00000B1
:1050700030BD7FEA645C1ABF194610467FEA655C62
:105080001CBF0B46024650EA013406BF52EA033504
:1050900091EA030F41F4002130BD00BF90F0000FF2
:1050A00004BF0021704730B54FF4806404F132042E
:1050B0004FF000054FF0000150E700BF90F0000FE7
:1050C00004BF0021704730B54FF4806404F132040E
:1050D00010F0004548BF40424FF000013EE700BFDE
:1050E00042004FEAE2014FEA31014FEA02701FBF6E
:1050F00012F07F4393F07F4F81F06051704732F0A0
:105100007F4208BF704793F07F4F04BF41F40021F6
:10511000704730B54FF4607401F0004521F0004154
:105120001CE700BF50EA010208BF704730B54FF0DE
:1051300000050AE050EA010208BF704730B511F0DF
:10514000004502D5404261EB41014FF4806404F117
:1051500032045FEA915C3FF4D8AE4FF003025FEA9D
:10516000DC0C18BF03325FEADC0C18BF033202EB21
:10517000DC02C2F1200300FA03FC20FA02F001FA7B
:1051800003FE40EA0E0021FA02F11444BDE600BF1E
:1051900070B54FF0FF0C4CF4E06C1CEA11541DBFCD
:1051A0001CEA135594EA0C0F95EA0C0F00F0DEF898
:1051B0002C4481EA030621EA4C5123EA4C5350EA7D
:1051C000013518BF52EA033541F4801143F48013CE
:1051D00038D0A0FB02CE4FF00005E1FB02E506F05F
:1051E0000042E0FB03E54FF00006E1FB03569CF0B4
:1051F000000F18BF4EF0010EA4F1FF04B6F5007FBA
:1052000064F5407404D25FEA4E0E6D4146EB06062B
:1052100042EAC62141EA55514FEAC52040EA5E50B4
:105220004FEACE2EB4F1FD0C88BFBCF5E06F1ED85E
:10523000BEF1004F08BF5FEA500E50F1000041EB95
:10524000045170BD06F0004646EA010140EA020042
:1052500081EA0301B4EB5C04C2BFD4EB0C0541EA64
:10526000045170BD41F480114FF0000E013C00F379
:10527000AB8014F1360FDEBF002001F0004170BD9D
:10528000C4F10004203C35DA0C341BDC04F11404B6
:10529000C4F1200500FA05F320FA04F001FA05F242
:1052A00040EA020001F0004221F0004110EBD3700F
:1052B00021FA04F642EB06015EEA430E08BF20EA3B
:1052C000D37070BDC4F10C04C4F1200500FA04F3DE
:1052D00020FA05F001FA04F240EA020001F0004170
:1052E00010EBD37041F100015EEA430E08BF20EAE3
:1052F000D37070BDC4F1200500FA05F24EEA020E2B
:1053000020FA04F301FA05F243EA020321FA04F059
:1053100001F0004121FA04F220EA020000EBD37010
:105320005EEA430E08BF20EAD37070BD94F0000F10
:105330000FD101F00046400041EB010111F4801F44
:1053400008BF013CF7D041EA060195F0000F18BFF5
:10535000704703F00046520043EB030313F4801F31
:1053600008BF013DF7D043EA0603704794EA0C0FEB
:105370000CEA135518BF95EA0C0F0CD050EA410601
:1053800018BF52EA4306D1D181EA030101F000417E
:105390004FF0000070BD50EA410606BF10461946A6
:1053A00052EA430619D094EA0C0F02D150EA0136B2
:1053B00013D195EA0C0F05D152EA03361CBF1046F3
:1053C00019460AD181EA030101F0004141F0FE4192
:1053D00041F470014FF0000070BD41F0FE4141F416
:1053E000780170BD70B54FF0FF0C4CF4E06C1CEA16
:1053F00011541DBF1CEA135594EA0C0F95EA0C0FCB
:1054000000F0A7F8A4EB050481EA030E52EA033585
:105410004FEA013100F088804FEA03334FF08055A6
:1054200045EA131343EA12634FEA022245EA1115D3
:1054300045EA10654FEA00260EF000419D4208BF84
:10544000964244F1FD0404F5407402D25B084FEA31
:105450003202B61A65EB03055B084FEA32024FF4DD
:1054600080104FF4002CB6EB020E75EB030E22BF3A
:10547000B61A754640EA0C005B084FEA3202B6EBFA
:10548000020E75EB030E22BFB61A754640EA5C00A9
:105490005B084FEA3202B6EB020E75EB030E22BF39
:1054A000B61A754640EA9C005B084FEA3202B6EB3A
:1054B000020E75EB030E22BFB61A754640EADC00F9
:1054C00055EA060E18D04FEA051545EA16754FEA5B
:1054D00006164FEAC30343EA52734FEAC2025FEA79
:1054E0001C1CC0D111F4801F0BD141EA00014FF008
:1054F00000004FF0004CB6E711F4801F04BF0143D9
:105500000020B4F1FD0C88BFBCF5E06F3FF6AFAEF4
:10551000B5EB030C04BFB6EB020C5FEA500C50F184
:10552000000041EB045170BD0EF0004E4EEA113107
:1055300014EB5C04C2BFD4EB0C0541EA045170BD0E
:1055400041F480114FF0000E013C90E645EA060E52
:105550008DE60CEA135594EA0C0F08BF95EA0C0F80
:105560003FF43BAF94EA0C0F0AD150EA01347FF4C8
:1055700034AF95EA0C0F7FF425AF104619462CE79F
:1055800095EA0C0F06D152EA03353FF4FDAE104602
:10559000194622E750EA410618BF52EA43067FF453
:1055A000C5AE50EA41047FF40DAF52EA43057FF4E3
:1055B000EBAE12E74FF0FF3C06E000BF4FF0010CEE
:1055C00002E000BF4FF0010C4DF804CD4FEA410C52
:1055D0007FEA6C5C4FEA430C18BF7FEA6C5C1BD01F
:1055E00001B050EA410C0CBF52EA430C91EA030FA0
:1055F00002BF90EA020F0020704710F1000F91EAFD
:10560000030F58BF994208BF90422CBFD8176FEACA
:10561000E37040F0010070474FEA410C7FEA6C5C98
:1056200002D150EA013C07D14FEA430C7FEA6C5C9F
:10563000D6D152EA033CD3D05DF8040B704700BFCB
:105640008446104662468C461946634600E000BF19
:1056500001B5FFF7B7FF002848BF10F1000F01BDEB
:105660004DF808EDFFF7F4FF0CBF012000205DF8B6
:1056700008FB00BF4DF808EDFFF7EAFF34BF01203B
:1056800000205DF808FB00BF4DF808EDFFF7E0FFD4
:1056900094BF012000205DF808FB00BF4DF808ED25
:1056A000FFF7CEFF94BF012000205DF808FB00BF8C
:1056B0004DF808EDFFF7C4FF34BF012000205DF86E
:1056C00008FB00BF4FEA410C7FEA6C5C02D150EA54
:1056D000013C0AD14FEA430C7FEA6C5C02D152EAEA
:1056E000033C02D14FF0000070474FF001007047BB
:1056F0004A0011D212F5001211D20DD56FF4787351
:10570000B3EB62520ED44FEAC12343F0004343EAA5
:10571000505323FA02F070474FF00000704750EAF0
:10572000013002D14FF0FF3070474FF0000070475A
:105730004FEA4102B2F1E04324BFB3F5001CDCF1B3
:10574000FE5C0DD901F0004C4FEAC0024CEA5070EB
:10575000B2F1004F40EB830008BF20F0010070471A
:1057600011F0804F21D113F13872BCBF01F000401D
:10577000704741F480114FEA5252C2F11802C2F14F
:10578000200C10FA0CF320FA02F018BF40F00100D0
:105790004FEAC1234FEAD32303FA0CFC40EA0C0082
:1057A00023FA02F34FEA4303CCE77FEA625307D1BF
:1057B00050EA01331EBF4FF0FE4040F440007047F6
:1057C00001F0004040F0FE4040F40000704700BF90
:1057D00080F0004002E000BF81F0004142001FBFA6
:1057E0005FEA410392EA030F7FEA226C7FEA236CAF
:1057F0006AD04FEA1262D2EB1363C1BFD2184140A4
:1058000048404140B8BF5B42192B88BF704710F039
:10581000004F40F4000020F07F4018BF404211F0DC
:10582000004F41F4000121F07F4118BF494292EA44
:10583000030F3FD0A2F1010241FA03FC10EB0C0070
:10584000C3F1200301FA03F100F0004302D54942FD
:1058500060EB4000B0F5000F13D3B0F1807F06D3AA
:1058600040084FEA310102F10102FE2A51D2B1F1A2
:10587000004F40EBC25008BF20F0010040EA030097
:105880007047490040EB0000013A28BFB0F5000F17
:10589000EDD2B0FA80FCACF1080CB2EB0C0200FACD
:1058A0000CF0AABF00EBC25052421843BCBFD0401C
:1058B0001843704792F0000F81F4000106BF80F496
:1058C00000000132013BB5E74FEA41037FEA226C59
:1058D00018BF7FEA236C21D092EA030F04D092F024
:1058E000000F08BF0846704790EA010F1CBF002058
:1058F000704712F07F4F04D1400028BF40F00040B5
:10590000704712F100723CBF00F50000704700F0D4
:10591000004343F0FE4040F4000070477FEA2262FB
:1059200016BF08467FEA23630146420206BF5FEACC
:10593000412390EA010F40F4800070474FF00003CC
:1059400004E000BF10F0004348BF40425FEA000C93
:1059500008BF704743F0964301464FF000001CE03B
:1059600050EA010208BF70474FF000030AE000BF91
:1059700050EA010208BF704711F0004302D54042CF
:1059800061EB41015FEA010C02BF84460146002041
:1059900043F0B64308BFA3F18053A3F50003BCFA5C
:1059A0008CF2083AA3EBC25310DB01FA02FC634409
:1059B00000FA02FCC2F12002BCF1004F20FA02F210
:1059C00043EB020008BF20F00100704702F1200203
:1059D00001FA02FCC2F1200250EA4C0021FA02F264
:1059E00043EB020008BF20EADC7070474FF0FF0C69
:1059F0001CEAD0521EBF1CEAD15392EA0C0F93EA64
:105A00000C0F6FD01A4480EA010C400218BF5FEA05
:105A100041211ED04FF0006343EA501043EA511178
:105A2000A0FB01310CF00040B1F5000F3EBF490072
:105A300041EAD3715B0040EA010062F17F02FD2A76
:105A40001DD8B3F1004F40EBC25008BF20F0010059
:105A5000704790F0000F0CF0004C08BF49024CEA70
:105A6000502040EA51207F3AC2BFD2F1FF0340EA02
:105A7000C250704740F400004FF00003013A5DDC73
:105A800012F1190FDCBF00F000407047C2F10002B4
:105A9000410021FA02F1C2F1200200FA02FC5FEAA1
:105AA000310040F1000053EA4C0308BF20EADC70EB
:105AB000704792F0000F00F0004C02BF400010F45D
:105AC000000F013AF9D040EA0C0093F0000F01F00A
:105AD000004C02BF490011F4000F013BF9D041EA2C
